{
  "_format": "hh3-artifact-1",
  "contractName": "BettingContract",
  "sourceName": "contracts/BettingContract.sol",
  "abi": [
    {
      "inputs": [
        {
          "internalType": "address",
          "name": "router",
          "type": "address"
        },
        {
          "internalType": "uint64",
          "name": "_subscriptionId",
          "type": "uint64"
        },
        {
          "internalType": "bytes32",
          "name": "_donId",
          "type": "bytes32"
        },
        {
          "internalType": "address",
          "name": "_bettingToken",
          "type": "address"
        },
        {
          "internalType": "address",
          "name": "_betTicketNFT",
          "type": "address"
        },
        {
          "internalType": "address",
          "name": "_usdt",
          "type": "address"
        }
      ],
      "stateMutability": "nonpayable",
      "type": "constructor"
    },
    {
      "inputs": [],
      "name": "EmptyArgs",
      "type": "error"
    },
    {
      "inputs": [],
      "name": "EmptySecrets",
      "type": "error"
    },
    {
      "inputs": [],
      "name": "EmptySource",
      "type": "error"
    },
    {
      "inputs": [],
      "name": "NoInlineSecrets",
      "type": "error"
    },
    {
      "inputs": [],
      "name": "OnlyRouterCanFulfill",
      "type": "error"
    },
    {
      "anonymous": false,
      "inputs": [
        {
          "indexed": false,
          "internalType": "address",
          "name": "user",
          "type": "address"
        },
        {
          "indexed": false,
          "internalType": "uint256",
          "name": "tokenId",
          "type": "uint256"
        },
        {
          "indexed": false,
          "internalType": "uint256",
          "name": "matchId",
          "type": "uint256"
        },
        {
          "indexed": false,
          "internalType": "uint8",
          "name": "prediction",
          "type": "uint8"
        },
        {
          "indexed": false,
          "internalType": "uint256",
          "name": "amount",
          "type": "uint256"
        }
      ],
      "name": "BetPlaced",
      "type": "event"
    },
    {
      "anonymous": false,
      "inputs": [
        {
          "indexed": false,
          "internalType": "uint256",
          "name": "tokenId",
          "type": "uint256"
        },
        {
          "indexed": false,
          "internalType": "bool",
          "name": "won",
          "type": "bool"
        },
        {
          "indexed": false,
          "internalType": "uint256",
          "name": "payout",
          "type": "uint256"
        }
      ],
      "name": "BetResolved",
      "type": "event"
    },
    {
      "anonymous": false,
      "inputs": [
        {
          "indexed": false,
          "internalType": "string",
          "name": "response",
          "type": "string"
        }
      ],
      "name": "ChainlinkResponseReceived",
      "type": "event"
    },
    {
      "anonymous": false,
      "inputs": [
        {
          "indexed": false,
          "internalType": "uint256",
          "name": "matchId",
          "type": "uint256"
        },
        {
          "indexed": false,
          "internalType": "uint8",
          "name": "result",
          "type": "uint8"
        }
      ],
      "name": "MatchResultFetched",
      "type": "event"
    },
    {
      "anonymous": false,
      "inputs": [
        {
          "indexed": false,
          "internalType": "uint256[]",
          "name": "matchIds",
          "type": "uint256[]"
        }
      ],
      "name": "MatchesFetched",
      "type": "event"
    },
    {
      "anonymous": false,
      "inputs": [
        {
          "indexed": true,
          "internalType": "address",
          "name": "previousOwner",
          "type": "address"
        },
        {
          "indexed": true,
          "internalType": "address",
          "name": "newOwner",
          "type": "address"
        }
      ],
      "name": "OwnershipTransferred",
      "type": "event"
    },
    {
      "anonymous": false,
      "inputs": [
        {
          "indexed": true,
          "internalType": "bytes32",
          "name": "id",
          "type": "bytes32"
        }
      ],
      "name": "RequestFulfilled",
      "type": "event"
    },
    {
      "anonymous": false,
      "inputs": [
        {
          "indexed": true,
          "internalType": "bytes32",
          "name": "id",
          "type": "bytes32"
        }
      ],
      "name": "RequestSent",
      "type": "event"
    },
    {
      "inputs": [
        {
          "internalType": "uint256",
          "name": "id",
          "type": "uint256"
        },
        {
          "internalType": "string",
          "name": "homeTeam",
          "type": "string"
        },
        {
          "internalType": "string",
          "name": "awayTeam",
          "type": "string"
        },
        {
          "internalType": "uint256",
          "name": "matchDate",
          "type": "uint256"
        },
        {
          "internalType": "uint256",
          "name": "homeOdd",
          "type": "uint256"
        },
        {
          "internalType": "uint256",
          "name": "drawOdd",
          "type": "uint256"
        },
        {
          "internalType": "uint256",
          "name": "awayOdd",
          "type": "uint256"
        }
      ],
      "name": "addMatch",
      "outputs": [],
      "stateMutability": "nonpayable",
      "type": "function"
    },
    {
      "inputs": [],
      "name": "betTicketNFT",
      "outputs": [
        {
          "internalType": "contract BetTicketNFT",
          "name": "",
          "type": "address"
        }
      ],
      "stateMutability": "view",
      "type": "function"
    },
    {
      "inputs": [],
      "name": "bettingToken",
      "outputs": [
        {
          "internalType": "contract BettingToken",
          "name": "",
          "type": "address"
        }
      ],
      "stateMutability": "view",
      "type": "function"
    },
    {
      "inputs": [
        {
          "internalType": "uint256",
          "name": "tokenId",
          "type": "uint256"
        }
      ],
      "name": "claimReward",
      "outputs": [],
      "stateMutability": "nonpayable",
      "type": "function"
    },
    {
      "inputs": [],
      "name": "clearMatches",
      "outputs": [],
      "stateMutability": "nonpayable",
      "type": "function"
    },
    {
      "inputs": [],
      "name": "donId",
      "outputs": [
        {
          "internalType": "bytes32",
          "name": "",
          "type": "bytes32"
        }
      ],
      "stateMutability": "view",
      "type": "function"
    },
    {
      "inputs": [],
      "name": "encryptedSecretsReference",
      "outputs": [
        {
          "internalType": "bytes",
          "name": "",
          "type": "bytes"
        }
      ],
      "stateMutability": "view",
      "type": "function"
    },
    {
      "inputs": [],
      "name": "finalizeMatches",
      "outputs": [],
      "stateMutability": "nonpayable",
      "type": "function"
    },
    {
      "inputs": [],
      "name": "gasLimit",
      "outputs": [
        {
          "internalType": "uint32",
          "name": "",
          "type": "uint32"
        }
      ],
      "stateMutability": "view",
      "type": "function"
    },
    {
      "inputs": [],
      "name": "getMatchIdsLength",
      "outputs": [
        {
          "internalType": "uint256",
          "name": "",
          "type": "uint256"
        }
      ],
      "stateMutability": "view",
      "type": "function"
    },
    {
      "inputs": [
        {
          "internalType": "bytes32",
          "name": "requestId",
          "type": "bytes32"
        },
        {
          "internalType": "bytes",
          "name": "response",
          "type": "bytes"
        },
        {
          "internalType": "bytes",
          "name": "err",
          "type": "bytes"
        }
      ],
      "name": "handleOracleFulfillment",
      "outputs": [],
      "stateMutability": "nonpayable",
      "type": "function"
    },
    {
      "inputs": [
        {
          "internalType": "bytes32",
          "name": "",
          "type": "bytes32"
        }
      ],
      "name": "isMatchesRequest",
      "outputs": [
        {
          "internalType": "bool",
          "name": "",
          "type": "bool"
        }
      ],
      "stateMutability": "view",
      "type": "function"
    },
    {
      "inputs": [],
      "name": "lastChainlinkResponse",
      "outputs": [
        {
          "internalType": "string",
          "name": "",
          "type": "string"
        }
      ],
      "stateMutability": "view",
      "type": "function"
    },
    {
      "inputs": [],
      "name": "lastMatchRequestTime",
      "outputs": [
        {
          "internalType": "uint256",
          "name": "",
          "type": "uint256"
        }
      ],
      "stateMutability": "view",
      "type": "function"
    },
    {
      "inputs": [
        {
          "internalType": "uint256",
          "name": "",
          "type": "uint256"
        }
      ],
      "name": "matchIds",
      "outputs": [
        {
          "internalType": "uint256",
          "name": "",
          "type": "uint256"
        }
      ],
      "stateMutability": "view",
      "type": "function"
    },
    {
      "inputs": [
        {
          "internalType": "uint256",
          "name": "",
          "type": "uint256"
        }
      ],
      "name": "matches",
      "outputs": [
        {
          "internalType": "uint256",
          "name": "id",
          "type": "uint256"
        },
        {
          "internalType": "string",
          "name": "homeTeam",
          "type": "string"
        },
        {
          "internalType": "string",
          "name": "awayTeam",
          "type": "string"
        },
        {
          "internalType": "uint256",
          "name": "matchDate",
          "type": "uint256"
        },
        {
          "internalType": "uint8",
          "name": "result",
          "type": "uint8"
        },
        {
          "internalType": "uint256",
          "name": "homeOdds",
          "type": "uint256"
        },
        {
          "internalType": "uint256",
          "name": "drawOdds",
          "type": "uint256"
        },
        {
          "internalType": "uint256",
          "name": "awayOdds",
          "type": "uint256"
        }
      ],
      "stateMutability": "view",
      "type": "function"
    },
    {
      "inputs": [],
      "name": "matchesSourceCode",
      "outputs": [
        {
          "internalType": "string",
          "name": "",
          "type": "string"
        }
      ],
      "stateMutability": "view",
      "type": "function"
    },
    {
      "inputs": [],
      "name": "owner",
      "outputs": [
        {
          "internalType": "address",
          "name": "",
          "type": "address"
        }
      ],
      "stateMutability": "view",
      "type": "function"
    },
    {
      "inputs": [
        {
          "internalType": "uint256",
          "name": "matchId",
          "type": "uint256"
        },
        {
          "internalType": "uint8",
          "name": "prediction",
          "type": "uint8"
        },
        {
          "internalType": "uint256",
          "name": "amount",
          "type": "uint256"
        }
      ],
      "name": "placeBet",
      "outputs": [],
      "stateMutability": "nonpayable",
      "type": "function"
    },
    {
      "inputs": [],
      "name": "renounceOwnership",
      "outputs": [],
      "stateMutability": "nonpayable",
      "type": "function"
    },
    {
      "inputs": [],
      "name": "requestInterval",
      "outputs": [
        {
          "internalType": "uint256",
          "name": "",
          "type": "uint256"
        }
      ],
      "stateMutability": "view",
      "type": "function"
    },
    {
      "inputs": [
        {
          "internalType": "uint256",
          "name": "matchId",
          "type": "uint256"
        }
      ],
      "name": "requestMatchResult",
      "outputs": [],
      "stateMutability": "nonpayable",
      "type": "function"
    },
    {
      "inputs": [],
      "name": "requestMatches",
      "outputs": [],
      "stateMutability": "nonpayable",
      "type": "function"
    },
    {
      "inputs": [
        {
          "internalType": "bytes32",
          "name": "",
          "type": "bytes32"
        }
      ],
      "name": "requestToMatchId",
      "outputs": [
        {
          "internalType": "uint256",
          "name": "",
          "type": "uint256"
        }
      ],
      "stateMutability": "view",
      "type": "function"
    },
    {
      "inputs": [],
      "name": "resetLastRequestTime",
      "outputs": [],
      "stateMutability": "nonpayable",
      "type": "function"
    },
    {
      "inputs": [],
      "name": "resultsSourceCode",
      "outputs": [
        {
          "internalType": "string",
          "name": "",
          "type": "string"
        }
      ],
      "stateMutability": "view",
      "type": "function"
    },
    {
      "inputs": [],
      "name": "secretsLocation",
      "outputs": [
        {
          "internalType": "uint8",
          "name": "",
          "type": "uint8"
        }
      ],
      "stateMutability": "view",
      "type": "function"
    },
    {
      "inputs": [
        {
          "internalType": "string",
          "name": "source",
          "type": "string"
        }
      ],
      "name": "setMatchesSource",
      "outputs": [],
      "stateMutability": "nonpayable",
      "type": "function"
    },
    {
      "inputs": [
        {
          "internalType": "uint256",
          "name": "_interval",
          "type": "uint256"
        }
      ],
      "name": "setRequestInterval",
      "outputs": [],
      "stateMutability": "nonpayable",
      "type": "function"
    },
    {
      "inputs": [
        {
          "internalType": "string",
          "name": "source",
          "type": "string"
        }
      ],
      "name": "setResultsSource",
      "outputs": [],
      "stateMutability": "nonpayable",
      "type": "function"
    },
    {
      "inputs": [
        {
          "internalType": "uint8",
          "name": "_location",
          "type": "uint8"
        },
        {
          "internalType": "bytes",
          "name": "_reference",
          "type": "bytes"
        }
      ],
      "name": "setSecretsReference",
      "outputs": [],
      "stateMutability": "nonpayable",
      "type": "function"
    },
    {
      "inputs": [],
      "name": "subscriptionId",
      "outputs": [
        {
          "internalType": "uint64",
          "name": "",
          "type": "uint64"
        }
      ],
      "stateMutability": "view",
      "type": "function"
    },
    {
      "inputs": [
        {
          "internalType": "address",
          "name": "newOwner",
          "type": "address"
        }
      ],
      "name": "transferOwnership",
      "outputs": [],
      "stateMutability": "nonpayable",
      "type": "function"
    },
    {
      "inputs": [],
      "name": "usdt",
      "outputs": [
        {
          "internalType": "contract USDT",
          "name": "",
          "type": "address"
        }
      ],
      "stateMutability": "view",
      "type": "function"
    }
  ],
  "bytecode": "0x60a03461017957601f612ed238819003918201601f19168301916001600160401b0383118484101761017d5780849260c0946040528339810103126101795761004781610191565b6020820151906001600160401b03821682036101795760408301519061006f60608501610191565b9361008860a061008160808401610191565b9201610191565b6001600160a01b039283166080525f8054336001600160a01b031982168117835560405198939590929116907f8be0079c531659141344cd1fd0a4f28419497f9722a3daafe3b4186f6b6457e09080a36005805463ffffffff1916620493e0179055600a600d5560038054600495909555600180546001600160a01b03199081166001600160a01b039485161790915560028054909116938316939093179092556001600160e01b031990931660a09490941b600160a01b600160e01b0316939093179116179055600e805460ff191660ff179055612d2c90816101a68239608051818181610624015261234f0152f35b5f80fd5b634e487b7160e01b5f52604160045260245ffd5b51906001600160a01b03821682036101795756fe60806040526004361015610011575f80fd5b5f3560e01c806309c1ba2e146102345780630af8a5b01461022f5780630ca761751461022a5780630e599a731461022557806326b2acc3146102205780632eae6e351461021b5780632f48ab7d1461021657806336ff6a70146102115780633f6abd8f1461020c5780634075d2a11461020757806341c512ad1461020257806343425e88146101fd57806344af6819146101f85780634768d4ef146101f35780634acd1eb9146101ee5780634b40a275146101e957806352d6af9e146101e4578063536f6070146101df578063715018a6146101da57806380f9683e146101d557806387cad4cd146101d05780638c640f0c146101cb5780638da5cb5b146101c65780638dbe7b9d146101c1578063a197317e146101bc578063ae169a50146101b7578063c6ee5ebf146101b2578063cc0e597c146101ad578063cdc634f1146101a8578063d8c73d46146101a3578063da866c481461019e578063e7b33f9714610199578063f2fde38b146101945763f68016b71461018f575f80fd5b611696565b6115c8565b61158f565b6113c2565b611293565b61126d565b6110f1565b611099565b610ea7565b610e8c565b610e6f565b610e48565b610d55565b610cf0565b610c68565b610c11565b610bf4565b610bd7565b610bba565b610ae4565b610a7c565b610a09565b6109e1565b6109c3565b610994565b6108d1565b610894565b610858565b6107e3565b6106b1565b610691565b6105cf565b61052c565b3461025d575f36600319011261025d5760206001600160401b0360035460a01c16604051908152f35b5f80fd5b90600182811c9216801561028f575b602083101461027b57565b634e487b7160e01b5f52602260045260245ffd5b91607f1691610270565b634e487b7160e01b5f52604160045260245ffd5b61010081019081106001600160401b038211176102c957604052565b610299565b604081019081106001600160401b038211176102c957604052565b90601f801991011681019081106001600160401b038211176102c957604052565b604051905f826007549161031d83610261565b80835292600181169081156103a25750600114610343575b610341925003836102e9565b565b5060075f90815290917fa66cc928b5edb82af9bd49922954155ab7b0942694bea4ce44661d9a8736c6885b81831061038657505090602061034192820101610335565b602091935080600191548385890101520191019091849261036e565b6020925061034194915060ff191682840152151560051b820101610335565b604051905f82600654916103d483610261565b80835292600181169081156103a257506001146103f757610341925003836102e9565b5060065f90815290917ff652222313e28459528d920b65115c16c04f3efc82aaedc97be59f3f377c0d3f5b81831061043a57505090602061034192820101610335565b6020919350806001915483858901015201910190918492610422565b9060405191825f82549261046984610261565b80845293600181169081156104d2575060011461048e575b50610341925003836102e9565b90505f9291925260205f20905f915b8183106104b6575050906020610341928201015f610481565b602091935080600191548385890101520191019091849261049d565b90506020925061034194915060ff191682840152151560051b8201015f610481565b805180835260209291819084018484015e5f828201840152601f01601f1916010190565b9060206105299281815201906104f4565b90565b3461025d575f36600319011261025d5761055b61054761030a565b6040519182916020835260208301906104f4565b0390f35b60405190610341610100836102e9565b9291926001600160401b0382116102c95760405191610598601f8201601f1916602001846102e9565b82948184528183011161025d578281602093845f960137010152565b9080601f8301121561025d578160206105299335910161056f565b3461025d57606036600319011261025d576004356024356001600160401b03811161025d576106029036906004016105b4565b6044356001600160401b03811161025d576106219036906004016105b4565b507f00000000000000000000000000000000000000000000000000000000000000006001600160a01b031633036106825761065c9082611d66565b7f85e1543bf2f84fe80c6badbce3648c8539ad1df4d2b3d822938ca0538be727e65f80a2005b63c6829f8360e01b5f5260045ffd5b3461025d575f36600319011261025d57602060ff600e5416604051908152f35b3461025d57602036600319011261025d576004356107826107746107526106d66116b9565b6106e76106e161030a565b82612509565b60ff6106f5600e5460ff1690565b1615806107a3575b610785575b61074d61070d6116ff565b604051610733816107258a6020830160209181520190565b03601f1981018352826102e9565b61073c82611739565b5261074681611739565b5082611ffa565b61212f565b60035460a01c6001600160401b031660055463ffffffff1690600454926122f8565b5f52600a60205260405f2090565b55005b61079e6107986107936111d8565b611ea3565b82611f79565b610702565b506107af600f54610261565b15156106fd565b9181601f8401121561025d578235916001600160401b03831161025d576020838186019501011161025d57565b3461025d5760e036600319011261025d576004356024356001600160401b03811161025d576108169036906004016107b6565b9190604435926001600160401b03841161025d5761083b6108569436906004016107b6565b606435916084359360a4359561085060c43590565b9761175f565b005b3461025d575f36600319011261025d576003546040516001600160a01b039091168152602090f35b634e487b7160e01b5f52603260045260245ffd5b3461025d57602036600319011261025d5760043560095481101561025d5760209060095f525f516020612cd75f395f51905f520154604051908152f35b3461025d575f36600319011261025d5761094661093961092b6107526108f56116b9565b6109006106e16103c1565b60ff61090e600e5460ff1690565b16801580610981575b1561094f575061074d6107986107936111d8565b5f52600b60205260405f2090565b805460ff19166001179055565b61085642600c55565b6001148061096e575b1561212f5761074d6109686111d8565b82612426565b5061097a600f54610261565b1515610958565b5061098d600f54610261565b1515610917565b3461025d57602036600319011261025d576004355f52600b602052602060ff60405f2054166040519015158152f35b3461025d575f36600319011261025d576109db6123cf565b5f600c55005b3461025d575f36600319011261025d576001546040516001600160a01b039091168152602090f35b3461025d57602036600319011261025d57600435610a256123cf565b600d55005b949060e09693610a5460ff94610a62939c9b9a979c895261010060208a01526101008901906104f4565b9087820360408901526104f4565b98606086015216608084015260a083015260c08201520152565b3461025d57602036600319011261025d576004355f52600860205260405f20805461055b610aac60018401610456565b92610ab960028201610456565b90600381015460ff600483015416600583015491600760068501549401549460405198899889610a2a565b3461025d575f36600319011261025d576040515f601054610b0481610261565b8084529060018116908115610b965750600114610b38575b61055b83610b2c818503826102e9565b60405191829182610518565b60105f9081527f1b6847dc741a1b0cd08d278845f9d819d87b734759afb55fe2de5cb82a9ae672939250905b808210610b7c57509091508101602001610b2c610b1c565b919260018160209254838588010152019101909291610b64565b60ff191660208086019190915291151560051b84019091019150610b2c9050610b1c565b3461025d575f36600319011261025d576020600954604051908152f35b3461025d575f36600319011261025d576020600c54604051908152f35b3461025d575f36600319011261025d576020600d54604051908152f35b3461025d575f36600319011261025d57610c296123cf565b5f80546001600160a01b0319811682556001600160a01b03167f8be0079c531659141344cd1fd0a4f28419497f9722a3daafe3b4186f6b6457e08280a3005b3461025d575f36600319011261025d57610c806123cf565b6040516020810160208252600954809152604082019060095f525f516020612cd75f395f51905f52905f5b818110610cda577fc8ebec3ee270205e821a96d947158a7e7fe9df1ac520c2c8ae231a90978c8bdb85850386a1005b8254845260209093019260019283019201610cab565b3461025d57602036600319011261025d576004355f52600a602052602060405f2054604051908152f35b602060031982011261025d57600435906001600160401b03821161025d578060238301121561025d578160246105299360040135910161056f565b3461025d57610d6336610d1a565b610d6b6123cf565b80516001600160401b0381116102c957610d8f81610d8a600754610261565b611847565b602091601f8211600114610dcd57610dbd925f9183610dc2575b50508160011b915f199060031b1c19161790565b600755005b015190505f80610da9565b60075f52601f198216927fa66cc928b5edb82af9bd49922954155ab7b0942694bea4ce44661d9a8736c688915f5b858110610e3057508360019510610e18575b505050811b01600755005b01515f1960f88460031b161c191690555f8080610e0d565b91926020600181928685015181550194019201610dfb565b3461025d575f36600319011261025d575f546040516001600160a01b039091168152602090f35b3461025d575f36600319011261025d576020600454604051908152f35b3461025d575f36600319011261025d5761055b6105476103c1565b3461025d57602036600319011261025d57600435600254610ed8906001600160a01b03165b6001600160a01b031690565b6040516331a9108f60e11b815260048101839052602081602481855afa801561102357610f17915f9161106a575b506001600160a01b03163314611b23565b604051630efbf52960e01b8152600481018390529060a090829060249082905afa90811561102357610f69915f5f915f935f905f92611028575b5090610f5f610f6492611ba7565b611be6565b612449565b600354610f7e906001600160a01b0316610ecc565b60405163a9059cbb60e01b8152336004820152602481018390529290602090849060449082905f905af1928315611023577fe1b4cc7b572a56466df9203312ded49052ff26393efd614a3f8658c98ec0fc3893610ff6575b50604080519182526001602083015281019190915280606081015b0390a1005b6110179060203d60201161101c575b61100f81836102e9565b810190611c20565b610fd6565b503d611005565b611b18565b915050610f5f9350610f649250611057915060a03d60a011611063575b61104f81836102e9565b810190611b6c565b91959294509091610f51565b503d611045565b61108c915060203d602011611092575b61108481836102e9565b810190611b03565b5f610f06565b503d61107a565b3461025d575f36600319011261025d576110b16123cf565b6009545f600955806110bf57005b5f516020612cd75f395f51905f52015f516020612cd75f395f51905f525b8181106110e657005b5f81556001016110dd565b3461025d576110ff36610d1a565b6111076123cf565b80516001600160401b0381116102c95761112b81611126600654610261565b61188a565b602091601f821160011461115d57611158925f9183610dc25750508160011b915f199060031b1c19161790565b600655005b60065f52601f198216927ff652222313e28459528d920b65115c16c04f3efc82aaedc97be59f3f377c0d3f915f5b8581106111c0575083600195106111a8575b505050811b01600655005b01515f1960f88460031b161c191690555f808061119d565b9192602060018192868501518155019401920161118b565b604051905f82600f54916111eb83610261565b80835292600181169081156103a2575060011461120e57610341925003836102e9565b50600f5f90815290917f8d1108e10bcb7c27dddfc02ed9d693a074039d026cf4ea4240b40f7d581ac8025b81831061125157505090602061034192820101610335565b6020919350806001915483858901015201910190918492611239565b3461025d575f36600319011261025d5761055b6105476111d8565b60ff81160361025d57565b3461025d57604036600319011261025d576004356112b081611288565b6024356001600160401b03811161025d576112d160ff9136906004016107b6565b9190926112dc6123cf565b1660ff19600e541617600e556001600160401b0381116102c95761130a81611305600f54610261565b6118c2565b5f601f8211600114611346578190611336935f9261133b5750508160011b915f199060031b1c19161790565b600f55005b013590505f80610da9565b600f5f52601f198216927f8d1108e10bcb7c27dddfc02ed9d693a074039d026cf4ea4240b40f7d581ac802915f5b8581106113aa57508360019510611391575b505050811b01600f55005b01355f19600384901b60f8161c191690555f8080611386565b90926020600181928686013581550194019101611374565b3461025d57606036600319011261025d576024356004356113e282611288565b604435916114036113fb835f52600860205260405f2090565b541515611c8e565b61142e60ff611427600461141f865f52600860205260405f2090565b015460ff1690565b1615611cd1565b61143e600260ff83161115611d16565b600354611453906001600160a01b0316610ecc565b6040516323b872dd60e01b81523360048201523060248201526044810185905290602090829060649082905f905af1801561102357611572575b506002546114a3906001600160a01b0316610ecc565b604051633a3446df60e21b81523360048201526024810184905260ff83166044820152606481018590529390602090859060849082905f905af1908115611023577f11d02810c631c72400f6f1739955999911bdcec8c268889873bcfb0dd64b94ba945f9261153f575b5060408051338152602081019390935282019390935260ff909116606082015260808101919091528060a08101610ff1565b610ff192506115659060203d60201161156b575b61155d81836102e9565b810190611d57565b9161150d565b503d611553565b61158a9060203d60201161101c5761100f81836102e9565b61148d565b3461025d575f36600319011261025d576002546040516001600160a01b039091168152602090f35b6001600160a01b0381160361025d57565b3461025d57602036600319011261025d576004356115e5816115b7565b6115ed6123cf565b6001600160a01b03811615611642575f80546001600160a01b039283166001600160a01b03198216811783559216907f8be0079c531659141344cd1fd0a4f28419497f9722a3daafe3b4186f6b6457e09080a3005b60405162461bcd60e51b815260206004820152602660248201527f4f776e61626c653a206e6577206f776e657220697320746865207a65726f206160448201526564647265737360d01b6064820152608490fd5b3461025d575f36600319011261025d57602063ffffffff60055416604051908152f35b6040519060e082018281106001600160401b038211176102c957604052606060c0835f81525f60208201525f604082015282808201528260808201528260a08201520152565b6040805190919061171083826102e9565b6001815291601f1901825f5b82811061172857505050565b80606060208093850101520161171c565b8051156117465760200190565b610880565b80518210156117465760209160051b010190565b969261034198946007966117fc6117aa6118099461179b61181c978e9d996117856123cf565b6040519e8f611793816102ad565b52369161056f565b9460208d01958652369161056f565b60408b0190815260608b019283526117f260808c01945f865260a08d0198895260c08d01998a5260e08d019a8b528d5f52600860205260405f209c518d555160018d01611a09565b5160028b01611a09565b5160038901555160ff1690565b600487019060ff1660ff19825416179055565b51600585015551600684015551910155611ac8565b81811061183c575050565b5f8155600101611831565b90601f8211611854575050565b6103419160075f5260205f20906020601f840160051c83019310611880575b601f0160051c0190611831565b9091508190611873565b90601f8211611897575050565b6103419160065f5260205f20906020601f840160051c8301931061188057601f0160051c0190611831565b90601f82116118cf575050565b61034191600f5f5260205f20906020601f840160051c8301931061188057601f0160051c0190611831565b9190601f811161190957505050565b610341925f5260205f20906020601f840160051c8301931061188057601f0160051c0190611831565b9081516001600160401b0381116102c95761195981611952601054610261565b60106118fa565b602092601f821160011461198d57611988929382915f92610dc25750508160011b915f199060031b1c19161790565b601055565b60105f52601f198216937f1b6847dc741a1b0cd08d278845f9d819d87b734759afb55fe2de5cb82a9ae672915f5b8681106119f157508360019596106119d9575b505050811b01601055565b01515f1960f88460031b161c191690555f80806119ce565b919260206001819286850151815501940192016119bb565b91909182516001600160401b0381116102c957611a3081611a2a8454610261565b846118fa565b6020601f8211600114611a63578190611a5f9394955f92610dc25750508160011b915f199060031b1c19161790565b9055565b601f19821690611a76845f5260205f2090565b915f5b818110611ab057509583600195969710611a98575b505050811b019055565b01515f1960f88460031b161c191690555f8080611a8e565b9192602060018192868b015181550194019201611a79565b600954680100000000000000008110156102c957600181016009556009548110156117465760095f525f516020612cd75f395f51905f520155565b9081602091031261025d5751610529816115b7565b6040513d5f823e3d90fd5b15611b2a57565b60405162461bcd60e51b815260206004820152600d60248201526c2737ba103a34329037bbb732b960991b6044820152606490fd5b5190811515820361025d57565b908160a091031261025d578051916020820151611b8881611288565b916040810151916105296080611ba060608501611b5f565b9301611b5f565b15611bae57565b60405162461bcd60e51b815260206004820152601060248201526f10995d081b9bdd081c995cdbdb1d995960821b6044820152606490fd5b15611bed57565b60405162461bcd60e51b815260206004820152600b60248201526a2132ba103737ba103bb7b760a91b6044820152606490fd5b9081602091031261025d5761052990611b5f565b634e487b7160e01b5f52601160045260245ffd5b600381901b91906001600160fd1b03811603611c6057565b611c34565b908160011b9180830460021490151715611c6057565b81810292918115918404141715611c6057565b15611c9557565b60405162461bcd60e51b815260206004820152601460248201527313585d18da08191bd95cc81b9bdd08195e1a5cdd60621b6044820152606490fd5b15611cd857565b60405162461bcd60e51b815260206004820152601660248201527513585d18da08185b1c9958591e481c995cdbdb1d995960521b6044820152606490fd5b15611d1d57565b60405162461bcd60e51b815260206004820152601260248201527124b73b30b634b210383932b234b1ba34b7b760711b6044820152606490fd5b9081602091031261025d575190565b5f818152600b602052604090205460ff16611e2857611d8d815f52600a60205260405f2090565b549081611d9957505050565b7f1e64e9780c0a892267b8ddd6e87d3c74446a01c70ecb6d6ac1f60ab6175e9c0b611e2592611ddb611dd5866020805f99518301019101611d57565b60ff1690565b90611e04826004611df4845f52600860205260405f2090565b019060ff1660ff19825416179055565b6040805191825260ff929092166020820152a15f52600a60205260405f2090565b55565b611e6e907f5c0e8d00ec66d6db4deedf631eb9a678f52951894706544650fb549a5ea0b50a611e5d84610b2c61034196611932565b0390a15f52600b60205260405f2090565b805460ff19169055565b6007039060078211611c6057565b601f19810191908211611c6057565b5f19810191908211611c6057565b6008815110611f1a575f905f905b60088210611ebe57505090565b9091815183101561174657600190611f11611eef611dd5611ee960208888010160ff60f81b90511690565b60f81c90565b611f00611efb87611e78565b611c48565b6001600160401b03809216901b1690565b17920190611eb1565b60405162461bcd60e51b8152602060048201526014602482015273092dcecc2d8d2c840c4f2e8cae640d8cadccee8d60631b6044820152606490fd5b634e487b7160e01b5f52602160045260245ffd5b60031115611f7457565b611f56565b90608090611fec611f88612547565b91611fe66040611fb68151611f9d83826102e9565b60068152651cdb1bdd125160d21b602082015286612577565b611fc05f866127d4565b611fcc815191826102e9565b60078152663b32b939b4b7b760c91b602082015284612577565b826127d4565b600260208401525151910152565b8151156120075760a00152565b63fe936cb760e01b5f5260045ffd5b604051906120256040836102e9565b600c82526b31b7b232a637b1b0ba34b7b760a11b6020830152565b6040519061204f6040836102e9565b60088252676c616e677561676560c01b6020830152565b60011115611f7457565b6040519061207f6040836102e9565b6006825265736f7572636560d01b6020830152565b604051906120a36040836102e9565b60048252636172677360e01b6020830152565b604051906120c56040836102e9565b600f82526e39b2b1b932ba39a637b1b0ba34b7b760891b6020830152565b604051906120f26040836102e9565b60078252667365637265747360c81b6020830152565b604051906121176040836102e9565b600982526862797465734172677360b81b6020830152565b612137612547565b90612149612143612016565b83612577565b612166815161215781611f6a565b61216081611f6a565b8361265e565b612171612143612040565b61218b604082015161218281612066565b61216081612066565b612196612143612070565b6121a4606082015183612577565b60a081018051516122a0575b506080810190815151612223575b60c09150018051516121d1575b50515190565b916121dd612143612108565b6121e6826126a6565b5f5b83518051821015612210579061220a6122038260019461174b565b51856126ea565b016121e8565b5050915061221d816126c8565b5f6121cb565b60208101805161223281611f6a565b61223b81611f6a565b156122915760c09261227461228c9261225b6122556120b6565b88612577565b5161226581611f6a565b61226e81611f6a565b8661265e565b61228561227f6120e3565b86612577565b51846126ea565b6121be565b63a80d31f760e01b5f5260045ffd5b926122b26122ac612094565b84612577565b6122bb836126a6565b5f5b845180518210156122e557906122df6122d88260019461174b565b5186612577565b016122bd565b505092506122f2826126c8565b5f6121b0565b92906020926001600160401b039263ffffffff612337604051978896879663230e93b160e11b885216600487015260a0602487015260a48601906104f4565b6001604486015292166064840152608483015203815f7f00000000000000000000000000000000000000000000000000000000000000006001600160a01b03165af1908115611023575f916123b0575b50807f1131472297a800fee664d1d89cfa8f7676ff07189ecc53f80bbb5f4969099db85f80a290565b6123c9915060203d60201161156b5761155d81836102e9565b5f612387565b5f546001600160a01b031633036123e257565b606460405162461bcd60e51b815260206004820152602060248201527f4f776e61626c653a2063616c6c6572206973206e6f7420746865206f776e65726044820152fd5b81511561243a576001602082015260800152565b63e889636f60e01b5f5260045ffd5b916124e891610529935f52600860205260405f2060e060ff61246961055f565b938354855261247a60018501610456565b602086015261248b60028501610456565b6040860152600384015460608601526124b56124ab600486015460ff1690565b60ff166080870152565b6005840154948560a082015260076006860154958660c0840152015493849101521680155f146124ef5750505090611c7b565b6064900490565b91925090600103612501575090611c7b565b905090611c7b565b81511561251f575f808252604082015260600152565b6322ce3edd60e01b5f5260045ffd5b6040519061253b826102ce565b5f602083606081520152565b604051612553816102ce565b5f61255c61252e565b8083526125726101006020850192848452612783565b505290565b81516125c69291906001600160401b0316601781116125c95781516125b1916125ab906125a46060611dd5565b1760ff1690565b906129b0565b505b51906125bd61252e565b50805191612c1a565b50565b60ff81116125f65781516125f091906125e890601860605b17906129b0565b508251612b9a565b506125b3565b61ffff811161261b5781516125f0919061261390601960606125e1565b508251612b21565b63ffffffff81116126425781516125f0919061263a90601a60606125e1565b508251612aa8565b81516125f0919061265690601b60606125e1565b508251612a2a565b906103419161266d8151612940565b50604051916020830152602082526126866040836102e9565b6126ea565b9060208201809211611c6057565b91908201809211611c6057565b6020906126b5609f82516129b0565b500180519060018201809211611c605752565b6020906126d760ff82516129b0565b500180515f19810191908211611c605752565b81516125c69291906001600160401b0316601781116127175781516125b1916125ab906125a46040611dd5565b60ff81116127335781516125f091906125e890601860406125e1565b61ffff81116127505781516125f0919061261390601960406125e1565b63ffffffff811161276f5781516125f0919061263a90601a60406125e1565b81516125f0919061265690601b60406125e1565b9061278c61252e565b50601f8116806127ba575b50806020830152604051908183525f8252810160200190811061025d5760405290565b60200360208111611c60578101809111611c60575f612797565b906001600160401b038116601781116127fb575090516125c6916125ab906125a45f611dd5565b905060ff811161281f5781516125c692906128189060185f6125e1565b5051612b9a565b61ffff81116128425781516125c6929061283b9060195f6125e1565b5051612b21565b63ffffffff81116128675781516125c6929061286090601a5f6125e1565b5051612aa8565b81516125c6929061287a90601b5f6125e1565b5051612a2a565b9061288a61252e565b50805161289561252e565b506128a38251821115612c13565b825151916128b18284612699565b9060208501518211612929575b602091855183815196820101958211612921575b505001905b60208110156128fb575f19906020036101000a019081199051169082511617905290565b909161291661291061291c928551815261268b565b9361268b565b91611e86565b6128d7565b525f806128d2565b61293b61293583611c65565b86612cbf565b6128be565b61294861252e565b508051516001810190818111611c60576020830151811015612981575b60c26020845192830101538051821161297d57505090565b5290565b8160011b82810460021483151715611c60576129aa906129a385519186612783565b5084612881565b50612965565b906129b961252e565b508151516001810191828211611c605760208401518210156129ec575b6020845192830101538051821161297d57505090565b8260011b83810460021484151715611c6057612a1590612a0e86519187612783565b5085612881565b506129d6565b601f8111611c60576101000a90565b90612a3361252e565b50815151806008019182600811611c605760208401518311612a80575b612a62612a5d6008612a1b565b611e95565b90600885519384010191198251161790528051821161297d57505090565b8260011b83810460021484151715611c6057612aa290612a0e86519187612783565b50612a50565b90612ab161252e565b50815151806004019182600411611c605760208401518311612af9575b612adb612a5d6004612a1b565b90600485519384010191198251161790528051821161297d57505090565b8260011b83810460021484151715611c6057612b1b90612a0e86519187612783565b50612ace565b90612b2a61252e565b50815151806002019182600211611c605760208401518311612b72575b612b54612a5d6002612a1b565b90600285519384010191198251161790528051821161297d57505090565b8260011b83810460021484151715611c6057612b9490612a0e86519187612783565b50612b47565b90612ba361252e565b50815151806001019182600111611c605760208401518311612beb575b612bcd612a5d6001612a1b565b90600185519384010191198251161790528051821161297d57505090565b8260011b83810460021484151715611c6057612c0d90612a0e86519187612783565b50612bc0565b1561025d57565b91612c2361252e565b50612c318251821115612c13565b602083515192612c418385612699565b828601518111612ca8575b855183815196820101958211612ca0575b505001905b6020811015612c86575f19906020036101000a019081199051169082511617905290565b9091612916612910612c9b928551815261268b565b612c62565b525f80612c5d565b612cba612cb482611c65565b87612cbf565b612c4c565b906125c691612cd081519282612783565b5061288156fe6e1540171b6c0c960b71a7020d9f60077f6af931a8bbf590da0223dacf75c7afa2646970667358221220b7ad616d30523b540c8357d149b4235bafcf016445bb9ca5a130a7b8b514cf4c64736f6c634300081c0033",
  "linkReferences": {},
  "deployedLinkReferences": {},
  "immutableReferences": {
    "17": [
      {
        "length": 32,
        "start": 1572
      },
      {
        "length": 32,
        "start": 9039
      }
    ]
  },
  "inputSourceName": "project/contracts/BettingContract.sol",
  "buildInfoId": "solc-0_8_28-5bb5a2f33e8a436fafd18b23e8ccc4b61a1e2cb4"
}