{
  "_format": "hh3-artifact-1",
  "contractName": "BettingContract",
  "sourceName": "contracts/BettingContract.sol",
  "abi": [
    {
      "inputs": [
        {
          "internalType": "address",
          "name": "router",
          "type": "address"
        },
        {
          "internalType": "uint64",
          "name": "_subscriptionId",
          "type": "uint64"
        },
        {
          "internalType": "bytes32",
          "name": "_donId",
          "type": "bytes32"
        },
        {
          "internalType": "address",
          "name": "_bettingToken",
          "type": "address"
        },
        {
          "internalType": "address",
          "name": "_betTicketNFT",
          "type": "address"
        },
        {
          "internalType": "address",
          "name": "_usdt",
          "type": "address"
        }
      ],
      "stateMutability": "nonpayable",
      "type": "constructor"
    },
    {
      "inputs": [],
      "name": "EmptyArgs",
      "type": "error"
    },
    {
      "inputs": [],
      "name": "EmptySource",
      "type": "error"
    },
    {
      "inputs": [],
      "name": "NoInlineSecrets",
      "type": "error"
    },
    {
      "inputs": [],
      "name": "OnlyRouterCanFulfill",
      "type": "error"
    },
    {
      "inputs": [
        {
          "internalType": "address",
          "name": "owner",
          "type": "address"
        }
      ],
      "name": "OwnableInvalidOwner",
      "type": "error"
    },
    {
      "inputs": [
        {
          "internalType": "address",
          "name": "account",
          "type": "address"
        }
      ],
      "name": "OwnableUnauthorizedAccount",
      "type": "error"
    },
    {
      "anonymous": false,
      "inputs": [
        {
          "indexed": false,
          "internalType": "address",
          "name": "user",
          "type": "address"
        },
        {
          "indexed": false,
          "internalType": "uint256",
          "name": "tokenId",
          "type": "uint256"
        },
        {
          "indexed": false,
          "internalType": "uint256",
          "name": "matchId",
          "type": "uint256"
        },
        {
          "indexed": false,
          "internalType": "uint8",
          "name": "prediction",
          "type": "uint8"
        },
        {
          "indexed": false,
          "internalType": "uint256",
          "name": "amount",
          "type": "uint256"
        }
      ],
      "name": "BetPlaced",
      "type": "event"
    },
    {
      "anonymous": false,
      "inputs": [
        {
          "indexed": false,
          "internalType": "uint256",
          "name": "tokenId",
          "type": "uint256"
        },
        {
          "indexed": false,
          "internalType": "bool",
          "name": "won",
          "type": "bool"
        },
        {
          "indexed": false,
          "internalType": "uint256",
          "name": "payout",
          "type": "uint256"
        }
      ],
      "name": "BetResolved",
      "type": "event"
    },
    {
      "anonymous": false,
      "inputs": [
        {
          "indexed": false,
          "internalType": "uint256",
          "name": "matchId",
          "type": "uint256"
        },
        {
          "indexed": false,
          "internalType": "uint8",
          "name": "result",
          "type": "uint8"
        }
      ],
      "name": "MatchResultFetched",
      "type": "event"
    },
    {
      "anonymous": false,
      "inputs": [
        {
          "indexed": false,
          "internalType": "uint256[]",
          "name": "matchIds",
          "type": "uint256[]"
        }
      ],
      "name": "MatchesFetched",
      "type": "event"
    },
    {
      "anonymous": false,
      "inputs": [
        {
          "indexed": true,
          "internalType": "address",
          "name": "previousOwner",
          "type": "address"
        },
        {
          "indexed": true,
          "internalType": "address",
          "name": "newOwner",
          "type": "address"
        }
      ],
      "name": "OwnershipTransferred",
      "type": "event"
    },
    {
      "anonymous": false,
      "inputs": [
        {
          "indexed": true,
          "internalType": "bytes32",
          "name": "id",
          "type": "bytes32"
        }
      ],
      "name": "RequestFulfilled",
      "type": "event"
    },
    {
      "anonymous": false,
      "inputs": [
        {
          "indexed": true,
          "internalType": "bytes32",
          "name": "id",
          "type": "bytes32"
        }
      ],
      "name": "RequestSent",
      "type": "event"
    },
    {
      "inputs": [],
      "name": "betTicketNFT",
      "outputs": [
        {
          "internalType": "contract BetTicketNFT",
          "name": "",
          "type": "address"
        }
      ],
      "stateMutability": "view",
      "type": "function"
    },
    {
      "inputs": [],
      "name": "bettingToken",
      "outputs": [
        {
          "internalType": "contract BettingToken",
          "name": "",
          "type": "address"
        }
      ],
      "stateMutability": "view",
      "type": "function"
    },
    {
      "inputs": [
        {
          "internalType": "bytes",
          "name": "",
          "type": "bytes"
        }
      ],
      "name": "checkUpkeep",
      "outputs": [
        {
          "internalType": "bool",
          "name": "upkeepNeeded",
          "type": "bool"
        },
        {
          "internalType": "bytes",
          "name": "performData",
          "type": "bytes"
        }
      ],
      "stateMutability": "view",
      "type": "function"
    },
    {
      "inputs": [
        {
          "internalType": "uint256",
          "name": "tokenId",
          "type": "uint256"
        }
      ],
      "name": "claimReward",
      "outputs": [],
      "stateMutability": "nonpayable",
      "type": "function"
    },
    {
      "inputs": [],
      "name": "donId",
      "outputs": [
        {
          "internalType": "bytes32",
          "name": "",
          "type": "bytes32"
        }
      ],
      "stateMutability": "view",
      "type": "function"
    },
    {
      "inputs": [],
      "name": "gasLimit",
      "outputs": [
        {
          "internalType": "uint32",
          "name": "",
          "type": "uint32"
        }
      ],
      "stateMutability": "view",
      "type": "function"
    },
    {
      "inputs": [
        {
          "internalType": "bytes32",
          "name": "requestId",
          "type": "bytes32"
        },
        {
          "internalType": "bytes",
          "name": "response",
          "type": "bytes"
        },
        {
          "internalType": "bytes",
          "name": "err",
          "type": "bytes"
        }
      ],
      "name": "handleOracleFulfillment",
      "outputs": [],
      "stateMutability": "nonpayable",
      "type": "function"
    },
    {
      "inputs": [
        {
          "internalType": "uint256",
          "name": "",
          "type": "uint256"
        }
      ],
      "name": "matchIds",
      "outputs": [
        {
          "internalType": "uint256",
          "name": "",
          "type": "uint256"
        }
      ],
      "stateMutability": "view",
      "type": "function"
    },
    {
      "inputs": [
        {
          "internalType": "uint256",
          "name": "",
          "type": "uint256"
        }
      ],
      "name": "matches",
      "outputs": [
        {
          "internalType": "uint256",
          "name": "id",
          "type": "uint256"
        },
        {
          "internalType": "string",
          "name": "homeTeam",
          "type": "string"
        },
        {
          "internalType": "string",
          "name": "awayTeam",
          "type": "string"
        },
        {
          "internalType": "uint256",
          "name": "matchDate",
          "type": "uint256"
        },
        {
          "internalType": "uint8",
          "name": "result",
          "type": "uint8"
        },
        {
          "internalType": "uint256",
          "name": "homeOdds",
          "type": "uint256"
        },
        {
          "internalType": "uint256",
          "name": "drawOdds",
          "type": "uint256"
        },
        {
          "internalType": "uint256",
          "name": "awayOdds",
          "type": "uint256"
        }
      ],
      "stateMutability": "view",
      "type": "function"
    },
    {
      "inputs": [],
      "name": "matchesSourceCode",
      "outputs": [
        {
          "internalType": "string",
          "name": "",
          "type": "string"
        }
      ],
      "stateMutability": "view",
      "type": "function"
    },
    {
      "inputs": [],
      "name": "owner",
      "outputs": [
        {
          "internalType": "address",
          "name": "",
          "type": "address"
        }
      ],
      "stateMutability": "view",
      "type": "function"
    },
    {
      "inputs": [
        {
          "internalType": "bytes",
          "name": "performData",
          "type": "bytes"
        }
      ],
      "name": "performUpkeep",
      "outputs": [],
      "stateMutability": "nonpayable",
      "type": "function"
    },
    {
      "inputs": [
        {
          "internalType": "uint256",
          "name": "matchId",
          "type": "uint256"
        },
        {
          "internalType": "uint8",
          "name": "prediction",
          "type": "uint8"
        },
        {
          "internalType": "uint256",
          "name": "amount",
          "type": "uint256"
        }
      ],
      "name": "placeBet",
      "outputs": [],
      "stateMutability": "nonpayable",
      "type": "function"
    },
    {
      "inputs": [],
      "name": "renounceOwnership",
      "outputs": [],
      "stateMutability": "nonpayable",
      "type": "function"
    },
    {
      "inputs": [],
      "name": "requestMatches",
      "outputs": [],
      "stateMutability": "nonpayable",
      "type": "function"
    },
    {
      "inputs": [
        {
          "internalType": "bytes32",
          "name": "",
          "type": "bytes32"
        }
      ],
      "name": "requestToMatchId",
      "outputs": [
        {
          "internalType": "uint256",
          "name": "",
          "type": "uint256"
        }
      ],
      "stateMutability": "view",
      "type": "function"
    },
    {
      "inputs": [
        {
          "internalType": "bytes32",
          "name": "",
          "type": "bytes32"
        }
      ],
      "name": "requestType",
      "outputs": [
        {
          "internalType": "bool",
          "name": "",
          "type": "bool"
        }
      ],
      "stateMutability": "view",
      "type": "function"
    },
    {
      "inputs": [
        {
          "internalType": "uint256",
          "name": "matchId",
          "type": "uint256"
        }
      ],
      "name": "resolveBets",
      "outputs": [],
      "stateMutability": "view",
      "type": "function"
    },
    {
      "inputs": [],
      "name": "resultsSourceCode",
      "outputs": [
        {
          "internalType": "string",
          "name": "",
          "type": "string"
        }
      ],
      "stateMutability": "view",
      "type": "function"
    },
    {
      "inputs": [
        {
          "internalType": "string",
          "name": "source",
          "type": "string"
        }
      ],
      "name": "setMatchesSource",
      "outputs": [],
      "stateMutability": "nonpayable",
      "type": "function"
    },
    {
      "inputs": [
        {
          "internalType": "string",
          "name": "source",
          "type": "string"
        }
      ],
      "name": "setResultsSource",
      "outputs": [],
      "stateMutability": "nonpayable",
      "type": "function"
    },
    {
      "inputs": [],
      "name": "subscriptionId",
      "outputs": [
        {
          "internalType": "uint64",
          "name": "",
          "type": "uint64"
        }
      ],
      "stateMutability": "view",
      "type": "function"
    },
    {
      "inputs": [
        {
          "internalType": "address",
          "name": "newOwner",
          "type": "address"
        }
      ],
      "name": "transferOwnership",
      "outputs": [],
      "stateMutability": "nonpayable",
      "type": "function"
    },
    {
      "inputs": [],
      "name": "usdt",
      "outputs": [
        {
          "internalType": "contract USDT",
          "name": "",
          "type": "address"
        }
      ],
      "stateMutability": "view",
      "type": "function"
    }
  ],
  "bytecode": "0x60a03461018657601f612b3338819003918201601f19168301916001600160401b0383118484101761018a5780849260c094604052833981010312610186576100478161019e565b6020820151906001600160401b03821682036101865760408301519061006f6060850161019e565b9361008860a06100816080840161019e565b920161019e565b6001600160a01b039092166080523315610173575f8054336001600160a01b0319821681178355604051979290916001600160a01b0316907f8be0079c531659141344cd1fd0a4f28419497f9722a3daafe3b4186f6b6457e09080a36005805463ffffffff1916620493e017905560038054600495909555600180546001600160a01b03199081166001600160a01b039485161790915560028054909116938316939093179092556001600160e01b031990931660a09490941b600160a01b600160e01b031693909317911617905561298090816101b382396080518181816105730152611fe10152f35b631e4fbdf760e01b5f525f60045260245ffd5b5f80fd5b634e487b7160e01b5f52604160045260245ffd5b51906001600160a01b03821682036101865756fe60806040526004361015610011575f80fd5b5f3560e01c806309c1ba2e146101945780630af8a5b01461018f5780630ca761751461018a5780632f48ab7d146101855780632fa0a1151461018057806336ff6a701461017b5780633f6abd8f1461017657806343425e88146101715780634585e33b1461016c5780634768d4ef146101675780636e04ff0d14610162578063715018a61461015d57806387cad4cd146101585780638c640f0c146101535780638da5cb5b1461014e5780638dbe7b9d14610149578063996d0b5414610144578063a197317e1461013f578063ae169a501461013a578063cc0e597c14610135578063da866c4814610130578063e7b33f971461012b578063f2fde38b146101265763f68016b714610121575f80fd5b611439565b6113b0565b611377565b6111b2565b6110c0565b610ece565b610eb3565b610e84565b610e67565b610e40565b610d4d565b610ce8565b610c91565b610bbc565b610b3b565b6109fa565b610983565b6108d6565b610886565b6107ea565b6107c2565b61051f565b610470565b346101bd575f3660031901126101bd5760206001600160401b0360035460a01c16604051908152f35b5f80fd5b90600182811c921680156101ef575b60208310146101db57565b634e487b7160e01b5f52602260045260245ffd5b91607f16916101d0565b634e487b7160e01b5f52604160045260245ffd5b604081019081106001600160401b0382111761022857604052565b6101f9565b90601f801991011681019081106001600160401b0382111761022857604052565b604051905f8260075491610261836101c1565b80835292600181169081156102e65750600114610287575b6102859250038361022d565b565b5060075f90815290917fa66cc928b5edb82af9bd49922954155ab7b0942694bea4ce44661d9a8736c6885b8183106102ca57505090602061028592820101610279565b60209193508060019154838589010152019101909184926102b2565b6020925061028594915060ff191682840152151560051b820101610279565b604051905f8260065491610318836101c1565b80835292600181169081156102e6575060011461033b576102859250038361022d565b5060065f90815290917ff652222313e28459528d920b65115c16c04f3efc82aaedc97be59f3f377c0d3f5b81831061037e57505090602061028592820101610279565b6020919350806001915483858901015201910190918492610366565b9060405191825f8254926103ad846101c1565b808452936001811690811561041657506001146103d2575b506102859250038361022d565b90505f9291925260205f20905f915b8183106103fa575050906020610285928201015f6103c5565b60209193508060019154838589010152019101909184926103e1565b90506020925061028594915060ff191682840152151560051b8201015f6103c5565b805180835260209291819084018484015e5f828201840152601f01601f1916010190565b90602061046d928181520190610438565b90565b346101bd575f3660031901126101bd5761049f61048b61024e565b604051918291602083526020830190610438565b0390f35b604051906102856101008361022d565b6001600160401b03811161022857601f01601f191660200190565b9291926104da826104b3565b916104e8604051938461022d565b8294818452818301116101bd578281602093845f960137010152565b9080601f830112156101bd5781602061046d933591016104ce565b346101bd5760603660031901126101bd576004356024356001600160401b0381116101bd57610552903690600401610504565b6044356001600160401b0381116101bd57610571903690600401610504565b7f00000000000000000000000000000000000000000000000000000000000000006001600160a01b031633036107b357805161079357506105c46105bd835f52600b60205260405f2090565b5460ff1690565b1561071e57806020806105dc935183010191016119e4565b945f9491949392935b87518110156106bc578080808080808c8c8f8c8c8f92610606878f92611ad6565b519b61061191611ad6565b519961061c91611ad6565b519461062791611ad6565b519461063291611ad6565b519461063d91611ad6565b519461064891611ad6565b51946106526104a3565b9687526020870152604086015260608501525f608085015260a084015260c083015260e0820152610683828a611ad6565b51610696905f52600860205260405f2090565b906106a091611aea565b6106aa8189611ad6565b516106b490611b59565b6001016105e5565b505050505050506106f47fc8ebec3ee270205e821a96d947158a7e7fe9df1ac520c2c8ae231a90978c8bdb9160405191829182611ba7565b0390a15b7f85e1543bf2f84fe80c6badbce3648c8539ad1df4d2b3d822938ca0538be727e65f80a2005b610752816020807f1e64e9780c0a892267b8ddd6e87d3c74446a01c70ecb6d6ac1f60ab6175e9c0b9451830101910161189c565b9061077b82600461076b845f52600860205260405f2090565b019060ff1660ff19825416179055565b6040805191825260ff929092166020820152a16106f8565b60405162461bcd60e51b81529081906107af906004830161045c565b0390fd5b63c6829f8360e01b5f5260045ffd5b346101bd575f3660031901126101bd576003546040516001600160a01b039091168152602090f35b346101bd5760203660031901126101bd576004355f52600860205260ff600460405f200154161561081757005b60405162461bcd60e51b815260206004820152601660248201527513585d18da081b9bdd081c995cdbdb1d9959081e595d60521b6044820152606490fd5b634e487b7160e01b5f52603260045260245ffd5b6009548110156108815760095f5260205f2001905f90565b610855565b346101bd5760203660031901126101bd576004356009548110156101bd5760209060095f527f6e1540171b6c0c960b71a7020d9f60077f6af931a8bbf590da0223dacf75c7af0154604051908152f35b346101bd575f3660031901126101bd576108ee611be0565b6108f661145c565b6108fe610305565b8051156109745761095761092f61097293610965935f82525f6040830152606082015261092a81611c29565b611dc1565b6001600160401b0360035460a01c1661094d60055463ffffffff1690565b9060045492611f8a565b5f52600b60205260405f2090565b805460ff19166001179055565b005b6322ce3edd60e01b5f5260045ffd5b346101bd575f3660031901126101bd576001546040516001600160a01b039091168152602090f35b9060206003198301126101bd576004356001600160401b0381116101bd57826023820112156101bd578060040135926001600160401b0384116101bd57602484830101116101bd576024019190565b346101bd576020610a0a366109ab565b90809291810103126101bd5735610a1f61145c565b90610a2861024e565b9081511561097457610abd610aa061097294610adf945f82525f60408301526060820152610a5581611c29565b61092a610a60612061565b604051610a8681610a78896020830160209181520190565b03601f19810183528261022d565b610a8f82611ac9565b52610a9981611ac9565b50826123db565b60035460a01c6001600160401b031660055463ffffffff1661094d565b90610ad0825f52600a60205260405f2090565b555f52600b60205260405f2090565b805460ff19169055565b949060e09693610b1360ff94610b21939c9b9a979c895261010060208a0152610100890190610438565b908782036040890152610438565b98606086015216608084015260a083015260c08201520152565b346101bd5760203660031901126101bd576004355f52600860205260405f20805461049f610b6b6001840161039a565b92610b786002820161039a565b90600381015460ff600483015416600583015491600760068501549401549460405198899889610ae9565b60409061046d9392151581528160208201520190610438565b346101bd57610bca366109ab565b50505f6060905f600954905b818110610bef575b505061049f60405192839283610ba3565b610c05610bfb82610869565b90549060031b1c90565b610c2d610c276004610c1f845f52600860205260405f2090565b015460ff1690565b60ff1690565b1580610c6b575b610c415750600101610bd6565b9350505050610a78610c63600192604051928391602083019190602083019252565b905f80610bde565b50610c8a6003610c83835f52600860205260405f2090565b01546114b6565b4211610c34565b346101bd575f3660031901126101bd57610ca9611be0565b5f80546001600160a01b0319811682556001600160a01b03167f8be0079c531659141344cd1fd0a4f28419497f9722a3daafe3b4186f6b6457e08280a3005b346101bd5760203660031901126101bd576004355f52600a602052602060405f2054604051908152f35b60206003198201126101bd57600435906001600160401b0382116101bd57806023830112156101bd5781602461046d936004013591016104ce565b346101bd57610d5b36610d12565b610d63611be0565b80516001600160401b03811161022857610d8781610d826007546101c1565b6114e5565b602091601f8211600114610dc557610db5925f9183610dba575b50508160011b915f199060031b1c19161790565b600755005b015190505f80610da1565b60075f52601f198216927fa66cc928b5edb82af9bd49922954155ab7b0942694bea4ce44661d9a8736c688915f5b858110610e2857508360019510610e10575b505050811b01600755005b01515f1960f88460031b161c191690555f8080610e05565b91926020600181928685015181550194019201610df3565b346101bd575f3660031901126101bd575f546040516001600160a01b039091168152602090f35b346101bd575f3660031901126101bd576020600454604051908152f35b346101bd5760203660031901126101bd576004355f52600b602052602060ff60405f2054166040519015158152f35b346101bd575f3660031901126101bd5761049f61048b610305565b346101bd5760203660031901126101bd57600435600254610eff906001600160a01b03165b6001600160a01b031690565b6040516331a9108f60e11b815260048101839052602081602481855afa801561104a57610f3e915f91611091575b506001600160a01b031633146116b3565b604051630efbf52960e01b8152600481018390529060a090829060249082905afa90811561104a57610f90915f5f915f935f905f9261104f575b5090610f86610f8b92611737565b611776565b6120c4565b600354610fa5906001600160a01b0316610ef3565b60405163a9059cbb60e01b8152336004820152602481018390529290602090849060449082905f905af192831561104a577fe1b4cc7b572a56466df9203312ded49052ff26393efd614a3f8658c98ec0fc389361101d575b50604080519182526001602083015281019190915280606081015b0390a1005b61103e9060203d602011611043575b611036818361022d565b8101906117b0565b610ffd565b503d61102c565b6116a8565b915050610f869350610f8b925061107e915060a03d60a01161108a575b611076818361022d565b8101906116fc565b91959294509091610f78565b503d61106c565b6110b3915060203d6020116110b9575b6110ab818361022d565b810190611693565b5f610f2d565b503d6110a1565b346101bd576110ce36610d12565b6110d6611be0565b80516001600160401b038111610228576110fa816110f56006546101c1565b611535565b602091601f821160011461112c57611127925f9183610dba5750508160011b915f199060031b1c19161790565b600655005b60065f52601f198216927ff652222313e28459528d920b65115c16c04f3efc82aaedc97be59f3f377c0d3f915f5b85811061118f57508360019510611177575b505050811b01600655005b01515f1960f88460031b161c191690555f808061116c565b9192602060018192868501518155019401920161115a565b60ff8116036101bd57565b346101bd5760603660031901126101bd576024356004356111d2826111a7565b604435916111f36111eb835f52600860205260405f2090565b5415156117c4565b61121660ff61120f6004610c1f865f52600860205260405f2090565b1615611807565b611226600260ff8316111561184c565b60035461123b906001600160a01b0316610ef3565b6040516323b872dd60e01b81523360048201523060248201526044810185905290602090829060649082905f905af1801561104a5761135a575b5060025461128b906001600160a01b0316610ef3565b604051633a3446df60e21b81523360048201526024810184905260ff83166044820152606481018590529390602090859060849082905f905af190811561104a577f11d02810c631c72400f6f1739955999911bdcec8c268889873bcfb0dd64b94ba945f92611327575b5060408051338152602081019390935282019390935260ff909116606082015260808101919091528060a08101611018565b611018925061134d9060203d602011611353575b611345818361022d565b81019061188d565b916112f5565b503d61133b565b6113729060203d60201161104357611036818361022d565b611275565b346101bd575f3660031901126101bd576002546040516001600160a01b039091168152602090f35b6001600160a01b038116036101bd57565b346101bd5760203660031901126101bd576004356113cd8161139f565b6113d5611be0565b6001600160a01b03168015611426575f80546001600160a01b03198116831782556001600160a01b0316907f8be0079c531659141344cd1fd0a4f28419497f9722a3daafe3b4186f6b6457e09080a3005b631e4fbdf760e01b5f525f60045260245ffd5b346101bd575f3660031901126101bd57602063ffffffff60055416604051908152f35b6040519060e082018281106001600160401b0382111761022857604052606060c0835f81525f60208201525f604082015282808201528260808201528260a08201520152565b634e487b7160e01b5f52601160045260245ffd5b90611c2082018092116114c557565b6114a2565b90602082018092116114c557565b919082018092116114c557565b601f81116114f1575050565b60075f5260205f20906020601f840160051c8301931061152b575b601f0160051c01905b818110611520575050565b5f8155600101611515565b909150819061150c565b601f8111611541575050565b60065f5260205f20906020601f840160051c8301931061157b575b601f0160051c01905b818110611570575050565b5f8155600101611565565b909150819061155c565b601f821161159257505050565b5f5260205f20906020601f840160051c830193106115ca575b601f0160051c01905b8181106115bf575050565b5f81556001016115b4565b90915081906115ab565b91909182516001600160401b038111610228576115fb816115f584546101c1565b84611585565b6020601f821160011461162e57819061162a9394955f92610dba5750508160011b915f199060031b1c19161790565b9055565b601f19821690611641845f5260205f2090565b915f5b81811061167b57509583600195969710611663575b505050811b019055565b01515f1960f88460031b161c191690555f8080611659565b9192602060018192868b015181550194019201611644565b908160209103126101bd575161046d8161139f565b6040513d5f823e3d90fd5b156116ba57565b60405162461bcd60e51b815260206004820152600d60248201526c2737ba103a34329037bbb732b960991b6044820152606490fd5b519081151582036101bd57565b908160a09103126101bd578051916020820151611718816111a7565b9160408101519161046d6080611730606085016116ef565b93016116ef565b1561173e57565b60405162461bcd60e51b815260206004820152601060248201526f10995d081b9bdd081c995cdbdb1d995960821b6044820152606490fd5b1561177d57565b60405162461bcd60e51b815260206004820152600b60248201526a2132ba103737ba103bb7b760a91b6044820152606490fd5b908160209103126101bd5761046d906116ef565b156117cb57565b60405162461bcd60e51b815260206004820152601460248201527313585d18da08191bd95cc81b9bdd08195e1a5cdd60621b6044820152606490fd5b1561180e57565b60405162461bcd60e51b815260206004820152601660248201527513585d18da08185b1c9958591e481c995cdbdb1d995960521b6044820152606490fd5b1561185357565b60405162461bcd60e51b815260206004820152601260248201527124b73b30b634b210383932b234b1ba34b7b760711b6044820152606490fd5b908160209103126101bd575190565b91908260409103126101bd576020825192015161046d816111a7565b6001600160401b0381116102285760051b60200190565b9080601f830112156101bd5781516118e6816118b8565b926118f4604051948561022d565b81845260208085019260051b8201019283116101bd57602001905b82821061191c5750505090565b815181526020918201910161190f565b9080601f830112156101bd57815191611944836118b8565b92611952604051948561022d565b80845260208085019160051b830101918383116101bd5760208101915b83831061197e57505050505090565b82516001600160401b0381116101bd57820185603f820112156101bd576020810151916119aa836104b3565b6119b7604051918261022d565b83815260408385010188106101bd575f602085819660408397018386015e8301015281520192019161196f565b9060e0828203126101bd5781516001600160401b0381116101bd5781611a0b9184016118cf565b9260208301516001600160401b0381116101bd5782611a2b91850161192c565b9260408101516001600160401b0381116101bd5783611a4b91830161192c565b9260608201516001600160401b0381116101bd5781611a6b9184016118cf565b9260808301516001600160401b0381116101bd5782611a8b9185016118cf565b9260a08101516001600160401b0381116101bd5783611aab9183016118cf565b9260c08201516001600160401b0381116101bd5761046d92016118cf565b8051156108815760200190565b80518210156108815760209160051b010190565b9060e060079180518455611b056020820151600186016115d4565b611b166040820151600286016115d4565b60608101516003850155611b3e60ff608083015116600486019060ff1660ff19825416179055565b60a0810151600585015560c081015160068501550151910155565b6009546801000000000000000081101561022857600181016009556009548110156108815760095f527f6e1540171b6c0c960b71a7020d9f60077f6af931a8bbf590da0223dacf75c7af0155565b60206040818301928281528451809452019201905f5b818110611bca5750505090565b8251845260209384019390920191600101611bbd565b5f546001600160a01b03163303611bf357565b63118cdaa760e01b5f523360045260245ffd5b634e487b7160e01b5f52602160045260245ffd5b60031115611c2457565b611c06565b6080611c3361219d565b611c906040611c608151611c47838261022d565b60068152651cdb1bdd125160d21b6020820152846121cd565b611c6a5f84612448565b611c768151918261022d565b60078152663b32b939b4b7b760c91b6020820152826121cd565b611c9a5f82612448565b600260208401525151910152565b60405190611cb760408361022d565b600c82526b31b7b232a637b1b0ba34b7b760a11b6020830152565b60405190611ce160408361022d565b60088252676c616e677561676560c01b6020830152565b60011115611c2457565b60405190611d1160408361022d565b6006825265736f7572636560d01b6020830152565b60405190611d3560408361022d565b60048252636172677360e01b6020830152565b60405190611d5760408361022d565b600f82526e39b2b1b932ba39a637b1b0ba34b7b760891b6020830152565b60405190611d8460408361022d565b60078252667365637265747360c81b6020830152565b60405190611da960408361022d565b600982526862797465734172677360b81b6020830152565b611dc961219d565b90611ddb611dd5611ca8565b836121cd565b611df88151611de981611c1a565b611df281611c1a565b836122b4565b611e03611dd5611cd2565b611e1d6040820151611e1481611cf8565b611df281611cf8565b611e28611dd5611d02565b611e366060820151836121cd565b60a08101805151611f32575b506080810190815151611eb5575b60c0915001805151611e63575b50515190565b91611e6f611dd5611d9a565b611e78826122e1565b5f5b83518051821015611ea25790611e9c611e9582600194611ad6565b5185612342565b01611e7a565b50509150611eaf81612320565b5f611e5d565b602081018051611ec481611c1a565b611ecd81611c1a565b15611f235760c092611f06611f1e92611eed611ee7611d48565b886121cd565b51611ef781611c1a565b611f0081611c1a565b866122b4565b611f17611f11611d75565b866121cd565b5184612342565b611e50565b63a80d31f760e01b5f5260045ffd5b92611f44611f3e611d26565b846121cd565b611f4d836122e1565b5f5b84518051821015611f775790611f71611f6a82600194611ad6565b51866121cd565b01611f4f565b50509250611f8482612320565b5f611e42565b92906020926001600160401b039263ffffffff611fc9604051978896879663230e93b160e11b885216600487015260a0602487015260a4860190610438565b6001604486015292166064840152608483015203815f7f00000000000000000000000000000000000000000000000000000000000000006001600160a01b03165af190811561104a575f91612042575b50807f1131472297a800fee664d1d89cfa8f7676ff07189ecc53f80bbb5f4969099db85f80a290565b61205b915060203d60201161135357611345818361022d565b5f612019565b60408051909190612072838261022d565b6001815291601f1901825f5b82811061208a57505050565b80606060208093850101520161207e565b908160011b91808304600214901517156114c557565b818102929181159184041417156114c557565b916121639161046d935f52600860205260405f2060e060ff6120e46104a3565b93835485526120f56001850161039a565b60208601526121066002850161039a565b604086015260038401546060860152612130612126600486015460ff1690565b60ff166080870152565b6005840154948560a082015260076006860154958660c0840152015493849101521680155f1461216a57505050906120b1565b6064900490565b9192509060010361217c5750906120b1565b9050906120b1565b604051906121918261020d565b5f602083606081520152565b6040516121a98161020d565b5f6121b2612184565b8083526121c861010060208501928484526123f7565b505290565b815161221c9291906001600160401b03166017811161221f57815161220791612201906121fa6060610c27565b1760ff1690565b90612624565b505b5190612213612184565b5080519161288e565b50565b60ff811161224c578151612246919061223e90601860605b1790612624565b50825161280e565b50612209565b61ffff811161227157815161224691906122699060196060612237565b508251612795565b63ffffffff8111612298578151612246919061229090601a6060612237565b50825161271c565b815161224691906122ac90601b6060612237565b50825161269e565b90610285916122c381516125b4565b50604051916020830152602082526122dc60408361022d565b612342565b6020906122f0609f8251612624565b5001805190600182018092116114c55752565b601f198101919082116114c557565b5f198101919082116114c557565b60209061232f60ff8251612624565b500180515f198101919082116114c55752565b815161221c9291906001600160401b03166017811161236f57815161220791612201906121fa6040610c27565b60ff811161238b578151612246919061223e9060186040612237565b61ffff81116123a857815161224691906122699060196040612237565b63ffffffff81116123c7578151612246919061229090601a6040612237565b815161224691906122ac90601b6040612237565b8151156123e85760a00152565b63fe936cb760e01b5f5260045ffd5b90612400612184565b50601f81168061242e575b50806020830152604051908183525f825281016020019081106101bd5760405290565b602003602081116114c55781018091116114c5575f61240b565b906001600160401b0381166017811161246f5750905161221c91612201906121fa5f610c27565b905060ff811161249357815161221c929061248c9060185f612237565b505161280e565b61ffff81116124b657815161221c92906124af9060195f612237565b5051612795565b63ffffffff81116124db57815161221c92906124d490601a5f612237565b505161271c565b815161221c92906124ee90601b5f612237565b505161269e565b906124fe612184565b508051612509612184565b506125178251821115612887565b8251519161252582846114d8565b906020850151821161259d575b602091855183815196820101958211612595575b505001905b602081101561256f575f19906020036101000a019081199051169082511617905290565b909161258a61258461259092855181526114ca565b936114ca565b91612303565b61254b565b525f80612546565b6125af6125a98361209b565b86612933565b612532565b6125bc612184565b5080515160018101908181116114c55760208301518110156125f5575b60c2602084519283010153805182116125f157505090565b5290565b8160011b828104600214831517156114c55761261e90612617855191866123f7565b50846124f5565b506125d9565b9061262d612184565b5081515160018101918282116114c5576020840151821015612660575b602084519283010153805182116125f157505090565b8260011b838104600214841517156114c55761268990612682865191876123f7565b50856124f5565b5061264a565b601f81116114c5576101000a90565b906126a7612184565b508151518060080191826008116114c557602084015183116126f4575b6126d66126d1600861268f565b612312565b9060088551938401019119825116179052805182116125f157505090565b8260011b838104600214841517156114c55761271690612682865191876123f7565b506126c4565b90612725612184565b508151518060040191826004116114c5576020840151831161276d575b61274f6126d1600461268f565b9060048551938401019119825116179052805182116125f157505090565b8260011b838104600214841517156114c55761278f90612682865191876123f7565b50612742565b9061279e612184565b508151518060020191826002116114c557602084015183116127e6575b6127c86126d1600261268f565b9060028551938401019119825116179052805182116125f157505090565b8260011b838104600214841517156114c55761280890612682865191876123f7565b506127bb565b90612817612184565b508151518060010191826001116114c5576020840151831161285f575b6128416126d1600161268f565b9060018551938401019119825116179052805182116125f157505090565b8260011b838104600214841517156114c55761288190612682865191876123f7565b50612834565b156101bd57565b91612897612184565b506128a58251821115612887565b6020835151926128b583856114d8565b82860151811161291c575b855183815196820101958211612914575b505001905b60208110156128fa575f19906020036101000a019081199051169082511617905290565b909161258a61258461290f92855181526114ca565b6128d6565b525f806128d1565b61292e6129288261209b565b87612933565b6128c0565b9061221c91612944815192826123f7565b506124f556fea26469706673582212202d915af4676e9a407d918c610f4b2e6cfc3915ee45c5749601359517cb57711664736f6c634300081c0033",
  "linkReferences": {},
  "deployedLinkReferences": {},
  "immutableReferences": {
    "36": [
      {
        "length": 32,
        "start": 1395
      },
      {
        "length": 32,
        "start": 8161
      }
    ]
  },
  "inputSourceName": "project/contracts/BettingContract.sol",
  "buildInfoId": "solc-0_8_28-43d7b3c5a830d9fac7e6e90844648c62c09438a8"
}