{
  "_format": "hh3-artifact-1",
  "contractName": "BetTicketNFT",
  "sourceName": "contracts/BetTicketNFT.sol",
  "abi": [
    {
      "inputs": [],
      "stateMutability": "nonpayable",
      "type": "constructor"
    },
    {
      "anonymous": false,
      "inputs": [
        {
          "indexed": true,
          "internalType": "address",
          "name": "owner",
          "type": "address"
        },
        {
          "indexed": true,
          "internalType": "address",
          "name": "approved",
          "type": "address"
        },
        {
          "indexed": true,
          "internalType": "uint256",
          "name": "tokenId",
          "type": "uint256"
        }
      ],
      "name": "Approval",
      "type": "event"
    },
    {
      "anonymous": false,
      "inputs": [
        {
          "indexed": true,
          "internalType": "address",
          "name": "owner",
          "type": "address"
        },
        {
          "indexed": true,
          "internalType": "address",
          "name": "operator",
          "type": "address"
        },
        {
          "indexed": false,
          "internalType": "bool",
          "name": "approved",
          "type": "bool"
        }
      ],
      "name": "ApprovalForAll",
      "type": "event"
    },
    {
      "anonymous": false,
      "inputs": [
        {
          "indexed": true,
          "internalType": "address",
          "name": "previousOwner",
          "type": "address"
        },
        {
          "indexed": true,
          "internalType": "address",
          "name": "newOwner",
          "type": "address"
        }
      ],
      "name": "OwnershipTransferred",
      "type": "event"
    },
    {
      "anonymous": false,
      "inputs": [
        {
          "indexed": true,
          "internalType": "address",
          "name": "from",
          "type": "address"
        },
        {
          "indexed": true,
          "internalType": "address",
          "name": "to",
          "type": "address"
        },
        {
          "indexed": true,
          "internalType": "uint256",
          "name": "tokenId",
          "type": "uint256"
        }
      ],
      "name": "Transfer",
      "type": "event"
    },
    {
      "inputs": [
        {
          "internalType": "address",
          "name": "to",
          "type": "address"
        },
        {
          "internalType": "uint256",
          "name": "tokenId",
          "type": "uint256"
        }
      ],
      "name": "approve",
      "outputs": [],
      "stateMutability": "nonpayable",
      "type": "function"
    },
    {
      "inputs": [
        {
          "internalType": "address",
          "name": "owner",
          "type": "address"
        }
      ],
      "name": "balanceOf",
      "outputs": [
        {
          "internalType": "uint256",
          "name": "",
          "type": "uint256"
        }
      ],
      "stateMutability": "view",
      "type": "function"
    },
    {
      "inputs": [
        {
          "internalType": "uint256",
          "name": "",
          "type": "uint256"
        }
      ],
      "name": "betDetails",
      "outputs": [
        {
          "internalType": "uint256",
          "name": "matchId",
          "type": "uint256"
        },
        {
          "internalType": "uint8",
          "name": "prediction",
          "type": "uint8"
        },
        {
          "internalType": "uint256",
          "name": "amount",
          "type": "uint256"
        },
        {
          "internalType": "bool",
          "name": "resolved",
          "type": "bool"
        },
        {
          "internalType": "bool",
          "name": "won",
          "type": "bool"
        }
      ],
      "stateMutability": "view",
      "type": "function"
    },
    {
      "inputs": [
        {
          "internalType": "uint256",
          "name": "tokenId",
          "type": "uint256"
        }
      ],
      "name": "getApproved",
      "outputs": [
        {
          "internalType": "address",
          "name": "",
          "type": "address"
        }
      ],
      "stateMutability": "view",
      "type": "function"
    },
    {
      "inputs": [],
      "name": "getNextTokenId",
      "outputs": [
        {
          "internalType": "uint256",
          "name": "",
          "type": "uint256"
        }
      ],
      "stateMutability": "view",
      "type": "function"
    },
    {
      "inputs": [
        {
          "internalType": "address",
          "name": "owner",
          "type": "address"
        },
        {
          "internalType": "address",
          "name": "operator",
          "type": "address"
        }
      ],
      "name": "isApprovedForAll",
      "outputs": [
        {
          "internalType": "bool",
          "name": "",
          "type": "bool"
        }
      ],
      "stateMutability": "view",
      "type": "function"
    },
    {
      "inputs": [
        {
          "internalType": "address",
          "name": "to",
          "type": "address"
        },
        {
          "internalType": "uint256",
          "name": "matchId",
          "type": "uint256"
        },
        {
          "internalType": "uint8",
          "name": "prediction",
          "type": "uint8"
        },
        {
          "internalType": "uint256",
          "name": "amount",
          "type": "uint256"
        }
      ],
      "name": "mintBetTicket",
      "outputs": [
        {
          "internalType": "uint256",
          "name": "",
          "type": "uint256"
        }
      ],
      "stateMutability": "nonpayable",
      "type": "function"
    },
    {
      "inputs": [],
      "name": "name",
      "outputs": [
        {
          "internalType": "string",
          "name": "",
          "type": "string"
        }
      ],
      "stateMutability": "view",
      "type": "function"
    },
    {
      "inputs": [],
      "name": "owner",
      "outputs": [
        {
          "internalType": "address",
          "name": "",
          "type": "address"
        }
      ],
      "stateMutability": "view",
      "type": "function"
    },
    {
      "inputs": [
        {
          "internalType": "uint256",
          "name": "tokenId",
          "type": "uint256"
        }
      ],
      "name": "ownerOf",
      "outputs": [
        {
          "internalType": "address",
          "name": "",
          "type": "address"
        }
      ],
      "stateMutability": "view",
      "type": "function"
    },
    {
      "inputs": [],
      "name": "renounceOwnership",
      "outputs": [],
      "stateMutability": "nonpayable",
      "type": "function"
    },
    {
      "inputs": [
        {
          "internalType": "uint256",
          "name": "tokenId",
          "type": "uint256"
        },
        {
          "internalType": "bool",
          "name": "won",
          "type": "bool"
        }
      ],
      "name": "resolveBet",
      "outputs": [],
      "stateMutability": "nonpayable",
      "type": "function"
    },
    {
      "inputs": [
        {
          "internalType": "address",
          "name": "from",
          "type": "address"
        },
        {
          "internalType": "address",
          "name": "to",
          "type": "address"
        },
        {
          "internalType": "uint256",
          "name": "tokenId",
          "type": "uint256"
        }
      ],
      "name": "safeTransferFrom",
      "outputs": [],
      "stateMutability": "nonpayable",
      "type": "function"
    },
    {
      "inputs": [
        {
          "internalType": "address",
          "name": "from",
          "type": "address"
        },
        {
          "internalType": "address",
          "name": "to",
          "type": "address"
        },
        {
          "internalType": "uint256",
          "name": "tokenId",
          "type": "uint256"
        },
        {
          "internalType": "bytes",
          "name": "data",
          "type": "bytes"
        }
      ],
      "name": "safeTransferFrom",
      "outputs": [],
      "stateMutability": "nonpayable",
      "type": "function"
    },
    {
      "inputs": [
        {
          "internalType": "address",
          "name": "operator",
          "type": "address"
        },
        {
          "internalType": "bool",
          "name": "approved",
          "type": "bool"
        }
      ],
      "name": "setApprovalForAll",
      "outputs": [],
      "stateMutability": "nonpayable",
      "type": "function"
    },
    {
      "inputs": [
        {
          "internalType": "bytes4",
          "name": "interfaceId",
          "type": "bytes4"
        }
      ],
      "name": "supportsInterface",
      "outputs": [
        {
          "internalType": "bool",
          "name": "",
          "type": "bool"
        }
      ],
      "stateMutability": "view",
      "type": "function"
    },
    {
      "inputs": [],
      "name": "symbol",
      "outputs": [
        {
          "internalType": "string",
          "name": "",
          "type": "string"
        }
      ],
      "stateMutability": "view",
      "type": "function"
    },
    {
      "inputs": [
        {
          "internalType": "uint256",
          "name": "tokenId",
          "type": "uint256"
        }
      ],
      "name": "tokenURI",
      "outputs": [
        {
          "internalType": "string",
          "name": "",
          "type": "string"
        }
      ],
      "stateMutability": "view",
      "type": "function"
    },
    {
      "inputs": [],
      "name": "totalSupply",
      "outputs": [
        {
          "internalType": "uint256",
          "name": "",
          "type": "uint256"
        }
      ],
      "stateMutability": "view",
      "type": "function"
    },
    {
      "inputs": [
        {
          "internalType": "address",
          "name": "from",
          "type": "address"
        },
        {
          "internalType": "address",
          "name": "to",
          "type": "address"
        },
        {
          "internalType": "uint256",
          "name": "tokenId",
          "type": "uint256"
        }
      ],
      "name": "transferFrom",
      "outputs": [],
      "stateMutability": "nonpayable",
      "type": "function"
    },
    {
      "inputs": [
        {
          "internalType": "address",
          "name": "newOwner",
          "type": "address"
        }
      ],
      "name": "transferOwnership",
      "outputs": [],
      "stateMutability": "nonpayable",
      "type": "function"
    }
  ],
  "bytecode": "0x60806040523461035757604080519081016001600160401b0381118282101761026d576040908152600c82526b10995d151a58dad95d13919560a21b602083015280519081016001600160401b0381118282101761026d57604052600681526510915513919560d21b602082015281516001600160401b03811161026d575f54600181811c9116801561034d575b602082101461024f57601f81116102eb575b50602092601f821160011461028c57928192935f92610281575b50508160011b915f199060031b1c1916175f555b80516001600160401b03811161026d57600154600181811c91168015610263575b602082101461024f57601f81116101ec575b50602091601f821160011461018c579181925f92610181575b50508160011b915f199060031b1c1916176001555b60068054336001600160a01b03198216811790925560405191906001600160a01b03167f8be0079c531659141344cd1fd0a4f28419497f9722a3daafe3b4186f6b6457e05f80a361130b908161035c8239f35b015190505f80610119565b601f1982169260015f52805f20915f5b8581106101d4575083600195106101bc575b505050811b0160015561012e565b01515f1960f88460031b161c191690555f80806101ae565b9192602060018192868501518155019401920161019c565b60015f527fb10e2d527612073b26eecdfd717e6a320cf44b4afac2b0732d9fcbe2b7fa0cf6601f830160051c81019160208410610245575b601f0160051c01905b81811061023a5750610100565b5f815560010161022d565b9091508190610224565b634e487b7160e01b5f52602260045260245ffd5b90607f16906100ee565b634e487b7160e01b5f52604160045260245ffd5b015190505f806100b9565b601f198216935f8052805f20915f5b8681106102d357508360019596106102bb575b505050811b015f556100cd565b01515f1960f88460031b161c191690555f80806102ae565b9192602060018192868501518155019401920161029b565b5f80527f290decd9548b62a8d60345a988386fc84ba6bc95484008f6362f93160ef3e563601f830160051c81019160208410610343575b601f0160051c01905b818110610338575061009f565b5f815560010161032b565b9091508190610322565b90607f169061008d565b5f80fdfe6080806040526004361015610012575f80fd5b5f905f3560e01c90816301ffc9a714610c3e5750806306fdde0314610b86578063081812fc14610b68578063095ea7b3146109e25780630efbf5291461098257806318160ddd1461046457806323b872dd1461095957806342842e0e146109305780636352211e1461090057806370a082311461086b578063715018a6146108105780638da5cb5b146107e857806395d89b41146106e0578063a22cb4651461060c578063b6e1324414610569578063b88d4fde146104df578063c87b56dd14610469578063caa0f92a14610464578063e8d11b7c14610228578063e985e9c5146101d05763f2fde38b14610105575f80fd5b346101cd5760203660031901126101cd5761011e610ccd565b610126611108565b6001600160a01b0316801561017957600680546001600160a01b0319811683179091556001600160a01b03167f8be0079c531659141344cd1fd0a4f28419497f9722a3daafe3b4186f6b6457e05f80a380f35b60405162461bcd60e51b815260206004820152602660248201527f4f776e61626c653a206e6577206f776e657220697320746865207a65726f206160448201526564647265737360d01b6064820152608490fd5b80fd5b50346101cd5760403660031901126101cd5760406101ec610ccd565b916101f5610ce3565b9260018060a01b031681526005602052209060018060a01b03165f52602052602060ff60405f2054166040519015158152f35b50346101cd5760803660031901126101cd57610242610ccd565b6044359160ff83168093036101cd57610259611108565b600754915f19831461045057600183016007556001600160a01b031692831561040c575f838152600260205260409020546001600160a01b03166103c757838252600360205260408220805490600182018092116103b357558282526002602052604080832080546001600160a01b0319168617905551938390837fddf252ad1be2c89b69c2b068fc378daa952ba7f163c4a11628f55a4df523b3ef8180a460a084019184831067ffffffffffffffff84111761039f5761038060036020966103979560405260243581528781019485526040810160643581526060820195858752604060808401968088528a815260088c52209251835560ff6001840191511660ff198254161790555160028201550192511515839060ff801983541691151516179055565b51815461ff00191690151560081b61ff0016179055565b604051908152f35b634e487b7160e01b5f52604160045260245ffd5b634e487b7160e01b84526011600452602484fd5b60405162461bcd60e51b815260206004820152601c60248201527f4552433732313a20746f6b656e20616c7265616479206d696e746564000000006044820152606490fd5b606460405162461bcd60e51b815260206004820152602060248201527f4552433732313a206d696e7420746f20746865207a65726f20616464726573736044820152fd5b634e487b7160e01b5f52601160045260245ffd5b610cf9565b346104db5760203660031901126104db576004355f9081526002602052604090205461049f906001600160a01b03161515610e3c565b5f6040516104ae602082610d5f565b526104d76040516104c0602082610d5f565b5f8152604051918291602083526020830190610ca9565b0390f35b5f80fd5b346104db5760803660031901126104db576104f8610ccd565b610500610ce3565b6064359167ffffffffffffffff83116104db57366023840112156104db5782600401359161052d83610d81565b9261053b6040519485610d5f565b80845236602482870101116104db576020815f9260246105679801838801378501015260443591610ead565b005b346104db5760403660031901126104db57600435610585610d50565b61058d611108565b815f52600860205260ff600360405f200154166105d0575f918252600860208190526040909220600301805461ffff191691151590921b61ff0016176001179055005b60405162461bcd60e51b815260206004820152601460248201527310995d08185b1c9958591e481c995cdbdb1d995960621b6044820152606490fd5b346104db5760403660031901126104db57610625610ccd565b61062d610d50565b6001600160a01b039091169033821461069b57335f52600560205260405f20825f5260205261066b8160405f209060ff801983541691151516179055565b60405190151581527f17307eab39ab6107e8899845ad3d59bd9653f200f220920489ca2b5937696c3160203392a3005b60405162461bcd60e51b815260206004820152601960248201527f4552433732313a20617070726f766520746f2063616c6c6572000000000000006044820152606490fd5b346104db575f3660031901126104db576040515f6001548060011c906001811680156107de575b6020831081146107ca578285529081156107a65750600114610748575b6104d78361073481850382610d5f565b604051918291602083526020830190610ca9565b91905060015f527fb10e2d527612073b26eecdfd717e6a320cf44b4afac2b0732d9fcbe2b7fa0cf6915f905b80821061078c57509091508101602001610734610724565b919260018160209254838588010152019101909291610774565b60ff191660208086019190915291151560051b840190910191506107349050610724565b634e487b7160e01b5f52602260045260245ffd5b91607f1691610707565b346104db575f3660031901126104db576006546040516001600160a01b039091168152602090f35b346104db575f3660031901126104db57610828611108565b600680546001600160a01b031981169091555f906001600160a01b03167f8be0079c531659141344cd1fd0a4f28419497f9722a3daafe3b4186f6b6457e08280a3005b346104db5760203660031901126104db576001600160a01b0361088c610ccd565b1680156108a9575f526003602052602060405f2054604051908152f35b60405162461bcd60e51b815260206004820152602960248201527f4552433732313a2061646472657373207a65726f206973206e6f7420612076616044820152683634b21037bbb732b960b91b6064820152608490fd5b346104db5760203660031901126104db57602061091e600435610e88565b6040516001600160a01b039091168152f35b346104db5761056761094136610d16565b9060405192610951602085610d5f565b5f8452610ead565b346104db5761056761096a36610d16565b9161097d6109788433610ef5565b610dd9565b610f6a565b346104db5760203660031901126104db576004355f52600860205260a060405f2060ff81549181600182015416906003600282015491015491604051948552602085015260408401528181161515606084015260081c1615156080820152f35b346104db5760403660031901126104db576109fb610ccd565b602435906001600160a01b03610a1083610e88565b6001600160a01b039092169116818114610b1957803314908115610af5575b5015610a8a575f82815260046020526040902080546001600160a01b031916821790556001600160a01b03610a6383610e88565b167f8c5be1e5ebec7d5bd14f71427d1e84f3dd0314c0f7b2291e5b200ac8c7c3b9255f80a4005b60405162461bcd60e51b815260206004820152603e60248201527f4552433732313a20617070726f76652063616c6c6572206973206e6f7420746f60448201527f6b656e206f776e6572206e6f7220617070726f76656420666f7220616c6c00006064820152608490fd5b5f90815260056020908152604080832033845290915290205460ff16905083610a2f565b60405162461bcd60e51b815260206004820152602160248201527f4552433732313a20617070726f76616c20746f2063757272656e74206f776e656044820152603960f91b6064820152608490fd5b346104db5760203660031901126104db57602061091e600435610d9d565b346104db575f3660031901126104db576040515f5f548060011c90600181168015610c34575b6020831081146107ca578285529081156107a65750600114610bd8576104d78361073481850382610d5f565b5f8080527f290decd9548b62a8d60345a988386fc84ba6bc95484008f6362f93160ef3e563939250905b808210610c1a57509091508101602001610734610724565b919260018160209254838588010152019101909291610c02565b91607f1691610bac565b346104db5760203660031901126104db576004359063ffffffff60e01b82168092036104db576020916380ac58cd60e01b8114908115610c98575b8115610c87575b5015158152f35b6301ffc9a760e01b14905083610c80565b635b5e139f60e01b81149150610c79565b805180835260209291819084018484015e5f828201840152601f01601f1916010190565b600435906001600160a01b03821682036104db57565b602435906001600160a01b03821682036104db57565b346104db575f3660031901126104db576020600754604051908152f35b60609060031901126104db576004356001600160a01b03811681036104db57906024356001600160a01b03811681036104db579060443590565b6024359081151582036104db57565b90601f8019910116810190811067ffffffffffffffff82111761039f57604052565b67ffffffffffffffff811161039f57601f01601f191660200190565b5f81815260026020526040902054610dbf906001600160a01b03161515610e3c565b5f908152600460205260409020546001600160a01b031690565b15610de057565b60405162461bcd60e51b815260206004820152602e60248201527f4552433732313a2063616c6c6572206973206e6f7420746f6b656e206f776e6560448201526d1c881b9bdc88185c1c1c9bdd995960921b6064820152608490fd5b15610e4357565b60405162461bcd60e51b815260206004820152601860248201527f4552433732313a20696e76616c696420746f6b656e20494400000000000000006044820152606490fd5b5f908152600260205260409020546001600160a01b0316610eaa811515610e3c565b90565b90610ed1939291610ec16109788433610ef5565b610ecc838383610f6a565b6111b3565b15610ed857565b60405162461bcd60e51b815280610ef160048201611160565b0390fd5b906001600160a01b03610f0782610e88565b6001600160a01b0390931692168281149291908315610f47575b508215610f2d57505090565b9091506001600160a01b0390610f4290610d9d565b161490565b9092505f52600560205260405f20815f5260205260ff60405f205416915f610f21565b90610f7483610e88565b6001600160a01b0392831692168290036110b5576001600160a01b0316908115611064575f83815260046020526040812080546001600160a01b031916905583906001600160a01b03610fc683610e88565b167f8c5be1e5ebec7d5bd14f71427d1e84f3dd0314c0f7b2291e5b200ac8c7c3b9258280a4805f52600360205260405f208054905f1982019182116104505755815f52600360205260405f208054906001820180921161045057555f83815260026020526040812080546001600160a01b031916841790557fddf252ad1be2c89b69c2b068fc378daa952ba7f163c4a11628f55a4df523b3ef9080a4565b60405162461bcd60e51b8152602060048201526024808201527f4552433732313a207472616e7366657220746f20746865207a65726f206164646044820152637265737360e01b6064820152608490fd5b60405162461bcd60e51b815260206004820152602560248201527f4552433732313a207472616e736665722066726f6d20696e636f72726563742060448201526437bbb732b960d91b6064820152608490fd5b6006546001600160a01b0316330361111c57565b606460405162461bcd60e51b815260206004820152602060248201527f4f776e61626c653a2063616c6c6572206973206e6f7420746865206f776e65726044820152fd5b60809060208152603260208201527f4552433732313a207472616e7366657220746f206e6f6e20455243373231526560408201527131b2b4bb32b91034b6b83632b6b2b73a32b960711b60608201520190565b919290803b156112cc57611202935f60209460405196879586948593630a85bd0160e11b855233600486015260018060a01b031660248501526044840152608060648401526084830190610ca9565b03926001600160a01b03165af15f9181611287575b50611271573d1561126a573d61122c81610d81565b9061123a6040519283610d5f565b81523d5f602083013e5b805190816112655760405162461bcd60e51b815280610ef160048201611160565b602001fd5b6060611244565b6001600160e01b031916630a85bd0160e11b1490565b9091506020813d6020116112c4575b816112a360209383610d5f565b810103126104db57516001600160e01b0319811681036104db57905f611217565b3d9150611296565b5050505060019056fea2646970667358221220a8e5144c8d2f56d779aebc9b5985d62288d15629e646fbdf845ca7f839e53d7064736f6c634300081c0033",
  "linkReferences": {},
  "deployedLinkReferences": {},
  "immutableReferences": {},
  "inputSourceName": "project/contracts/BetTicketNFT.sol",
  "buildInfoId": "solc-0_8_28-7e16223b9f871df4961cc40fa71a61ffb33aa9e4"
}