{
  "_format": "hh3-artifact-1",
  "contractName": "BettingContract",
  "sourceName": "contracts/BettingContract.sol",
  "abi": [
    {
      "inputs": [
        {
          "internalType": "address",
          "name": "router",
          "type": "address"
        },
        {
          "internalType": "uint64",
          "name": "_subscriptionId",
          "type": "uint64"
        },
        {
          "internalType": "bytes32",
          "name": "_donId",
          "type": "bytes32"
        },
        {
          "internalType": "address",
          "name": "_bettingToken",
          "type": "address"
        },
        {
          "internalType": "address",
          "name": "_betTicketNFT",
          "type": "address"
        },
        {
          "internalType": "address",
          "name": "_usdt",
          "type": "address"
        }
      ],
      "stateMutability": "nonpayable",
      "type": "constructor"
    },
    {
      "inputs": [],
      "name": "EmptyArgs",
      "type": "error"
    },
    {
      "inputs": [],
      "name": "EmptySecrets",
      "type": "error"
    },
    {
      "inputs": [],
      "name": "EmptySource",
      "type": "error"
    },
    {
      "inputs": [],
      "name": "NoInlineSecrets",
      "type": "error"
    },
    {
      "inputs": [],
      "name": "OnlyRouterCanFulfill",
      "type": "error"
    },
    {
      "anonymous": false,
      "inputs": [
        {
          "indexed": false,
          "internalType": "address",
          "name": "user",
          "type": "address"
        },
        {
          "indexed": false,
          "internalType": "uint256",
          "name": "tokenId",
          "type": "uint256"
        },
        {
          "indexed": false,
          "internalType": "uint256",
          "name": "matchId",
          "type": "uint256"
        },
        {
          "indexed": false,
          "internalType": "uint8",
          "name": "prediction",
          "type": "uint8"
        },
        {
          "indexed": false,
          "internalType": "uint256",
          "name": "amount",
          "type": "uint256"
        }
      ],
      "name": "BetPlaced",
      "type": "event"
    },
    {
      "anonymous": false,
      "inputs": [
        {
          "indexed": false,
          "internalType": "uint256",
          "name": "tokenId",
          "type": "uint256"
        },
        {
          "indexed": false,
          "internalType": "bool",
          "name": "won",
          "type": "bool"
        },
        {
          "indexed": false,
          "internalType": "uint256",
          "name": "payout",
          "type": "uint256"
        }
      ],
      "name": "BetResolved",
      "type": "event"
    },
    {
      "anonymous": false,
      "inputs": [
        {
          "indexed": false,
          "internalType": "uint256",
          "name": "matchId",
          "type": "uint256"
        },
        {
          "indexed": false,
          "internalType": "uint8",
          "name": "result",
          "type": "uint8"
        }
      ],
      "name": "MatchResultFetched",
      "type": "event"
    },
    {
      "anonymous": false,
      "inputs": [
        {
          "indexed": false,
          "internalType": "uint256[]",
          "name": "matchIds",
          "type": "uint256[]"
        }
      ],
      "name": "MatchesFetched",
      "type": "event"
    },
    {
      "anonymous": false,
      "inputs": [
        {
          "indexed": true,
          "internalType": "address",
          "name": "previousOwner",
          "type": "address"
        },
        {
          "indexed": true,
          "internalType": "address",
          "name": "newOwner",
          "type": "address"
        }
      ],
      "name": "OwnershipTransferred",
      "type": "event"
    },
    {
      "anonymous": false,
      "inputs": [
        {
          "indexed": true,
          "internalType": "bytes32",
          "name": "id",
          "type": "bytes32"
        }
      ],
      "name": "RequestFulfilled",
      "type": "event"
    },
    {
      "anonymous": false,
      "inputs": [
        {
          "indexed": true,
          "internalType": "bytes32",
          "name": "id",
          "type": "bytes32"
        }
      ],
      "name": "RequestSent",
      "type": "event"
    },
    {
      "inputs": [],
      "name": "betTicketNFT",
      "outputs": [
        {
          "internalType": "contract BetTicketNFT",
          "name": "",
          "type": "address"
        }
      ],
      "stateMutability": "view",
      "type": "function"
    },
    {
      "inputs": [],
      "name": "bettingToken",
      "outputs": [
        {
          "internalType": "contract BettingToken",
          "name": "",
          "type": "address"
        }
      ],
      "stateMutability": "view",
      "type": "function"
    },
    {
      "inputs": [
        {
          "internalType": "bytes",
          "name": "",
          "type": "bytes"
        }
      ],
      "name": "checkUpkeep",
      "outputs": [
        {
          "internalType": "bool",
          "name": "upkeepNeeded",
          "type": "bool"
        },
        {
          "internalType": "bytes",
          "name": "performData",
          "type": "bytes"
        }
      ],
      "stateMutability": "view",
      "type": "function"
    },
    {
      "inputs": [
        {
          "internalType": "uint256",
          "name": "tokenId",
          "type": "uint256"
        }
      ],
      "name": "claimReward",
      "outputs": [],
      "stateMutability": "nonpayable",
      "type": "function"
    },
    {
      "inputs": [],
      "name": "donId",
      "outputs": [
        {
          "internalType": "bytes32",
          "name": "",
          "type": "bytes32"
        }
      ],
      "stateMutability": "view",
      "type": "function"
    },
    {
      "inputs": [],
      "name": "encryptedSecretsReference",
      "outputs": [
        {
          "internalType": "bytes",
          "name": "",
          "type": "bytes"
        }
      ],
      "stateMutability": "view",
      "type": "function"
    },
    {
      "inputs": [],
      "name": "gasLimit",
      "outputs": [
        {
          "internalType": "uint32",
          "name": "",
          "type": "uint32"
        }
      ],
      "stateMutability": "view",
      "type": "function"
    },
    {
      "inputs": [],
      "name": "getMatchIdsLength",
      "outputs": [
        {
          "internalType": "uint256",
          "name": "",
          "type": "uint256"
        }
      ],
      "stateMutability": "view",
      "type": "function"
    },
    {
      "inputs": [
        {
          "internalType": "bytes32",
          "name": "requestId",
          "type": "bytes32"
        },
        {
          "internalType": "bytes",
          "name": "response",
          "type": "bytes"
        },
        {
          "internalType": "bytes",
          "name": "err",
          "type": "bytes"
        }
      ],
      "name": "handleOracleFulfillment",
      "outputs": [],
      "stateMutability": "nonpayable",
      "type": "function"
    },
    {
      "inputs": [],
      "name": "lastMatchRequestTime",
      "outputs": [
        {
          "internalType": "uint256",
          "name": "",
          "type": "uint256"
        }
      ],
      "stateMutability": "view",
      "type": "function"
    },
    {
      "inputs": [
        {
          "internalType": "uint256",
          "name": "",
          "type": "uint256"
        }
      ],
      "name": "matchIds",
      "outputs": [
        {
          "internalType": "uint256",
          "name": "",
          "type": "uint256"
        }
      ],
      "stateMutability": "view",
      "type": "function"
    },
    {
      "inputs": [
        {
          "internalType": "uint256",
          "name": "",
          "type": "uint256"
        }
      ],
      "name": "matches",
      "outputs": [
        {
          "internalType": "uint256",
          "name": "id",
          "type": "uint256"
        },
        {
          "internalType": "string",
          "name": "homeTeam",
          "type": "string"
        },
        {
          "internalType": "string",
          "name": "awayTeam",
          "type": "string"
        },
        {
          "internalType": "uint256",
          "name": "matchDate",
          "type": "uint256"
        },
        {
          "internalType": "uint8",
          "name": "result",
          "type": "uint8"
        },
        {
          "internalType": "uint256",
          "name": "homeOdds",
          "type": "uint256"
        },
        {
          "internalType": "uint256",
          "name": "drawOdds",
          "type": "uint256"
        },
        {
          "internalType": "uint256",
          "name": "awayOdds",
          "type": "uint256"
        }
      ],
      "stateMutability": "view",
      "type": "function"
    },
    {
      "inputs": [],
      "name": "matchesSourceCode",
      "outputs": [
        {
          "internalType": "string",
          "name": "",
          "type": "string"
        }
      ],
      "stateMutability": "view",
      "type": "function"
    },
    {
      "inputs": [],
      "name": "owner",
      "outputs": [
        {
          "internalType": "address",
          "name": "",
          "type": "address"
        }
      ],
      "stateMutability": "view",
      "type": "function"
    },
    {
      "inputs": [
        {
          "internalType": "bytes",
          "name": "performData",
          "type": "bytes"
        }
      ],
      "name": "performUpkeep",
      "outputs": [],
      "stateMutability": "nonpayable",
      "type": "function"
    },
    {
      "inputs": [
        {
          "internalType": "uint256",
          "name": "matchId",
          "type": "uint256"
        },
        {
          "internalType": "uint8",
          "name": "prediction",
          "type": "uint8"
        },
        {
          "internalType": "uint256",
          "name": "amount",
          "type": "uint256"
        }
      ],
      "name": "placeBet",
      "outputs": [],
      "stateMutability": "nonpayable",
      "type": "function"
    },
    {
      "inputs": [],
      "name": "renounceOwnership",
      "outputs": [],
      "stateMutability": "nonpayable",
      "type": "function"
    },
    {
      "inputs": [],
      "name": "requestInterval",
      "outputs": [
        {
          "internalType": "uint256",
          "name": "",
          "type": "uint256"
        }
      ],
      "stateMutability": "view",
      "type": "function"
    },
    {
      "inputs": [],
      "name": "requestMatches",
      "outputs": [],
      "stateMutability": "nonpayable",
      "type": "function"
    },
    {
      "inputs": [
        {
          "internalType": "bytes32",
          "name": "",
          "type": "bytes32"
        }
      ],
      "name": "requestToMatchId",
      "outputs": [
        {
          "internalType": "uint256",
          "name": "",
          "type": "uint256"
        }
      ],
      "stateMutability": "view",
      "type": "function"
    },
    {
      "inputs": [
        {
          "internalType": "bytes32",
          "name": "",
          "type": "bytes32"
        }
      ],
      "name": "requestType",
      "outputs": [
        {
          "internalType": "bool",
          "name": "",
          "type": "bool"
        }
      ],
      "stateMutability": "view",
      "type": "function"
    },
    {
      "inputs": [],
      "name": "resetLastRequestTime",
      "outputs": [],
      "stateMutability": "nonpayable",
      "type": "function"
    },
    {
      "inputs": [
        {
          "internalType": "uint256",
          "name": "matchId",
          "type": "uint256"
        }
      ],
      "name": "resolveBets",
      "outputs": [],
      "stateMutability": "view",
      "type": "function"
    },
    {
      "inputs": [],
      "name": "resultsSourceCode",
      "outputs": [
        {
          "internalType": "string",
          "name": "",
          "type": "string"
        }
      ],
      "stateMutability": "view",
      "type": "function"
    },
    {
      "inputs": [],
      "name": "secretsLocation",
      "outputs": [
        {
          "internalType": "uint8",
          "name": "",
          "type": "uint8"
        }
      ],
      "stateMutability": "view",
      "type": "function"
    },
    {
      "inputs": [
        {
          "internalType": "string",
          "name": "source",
          "type": "string"
        }
      ],
      "name": "setMatchesSource",
      "outputs": [],
      "stateMutability": "nonpayable",
      "type": "function"
    },
    {
      "inputs": [
        {
          "internalType": "uint256",
          "name": "_interval",
          "type": "uint256"
        }
      ],
      "name": "setRequestInterval",
      "outputs": [],
      "stateMutability": "nonpayable",
      "type": "function"
    },
    {
      "inputs": [
        {
          "internalType": "string",
          "name": "source",
          "type": "string"
        }
      ],
      "name": "setResultsSource",
      "outputs": [],
      "stateMutability": "nonpayable",
      "type": "function"
    },
    {
      "inputs": [
        {
          "internalType": "uint8",
          "name": "_location",
          "type": "uint8"
        },
        {
          "internalType": "bytes",
          "name": "_reference",
          "type": "bytes"
        }
      ],
      "name": "setSecretsReference",
      "outputs": [],
      "stateMutability": "nonpayable",
      "type": "function"
    },
    {
      "inputs": [],
      "name": "subscriptionId",
      "outputs": [
        {
          "internalType": "uint64",
          "name": "",
          "type": "uint64"
        }
      ],
      "stateMutability": "view",
      "type": "function"
    },
    {
      "inputs": [
        {
          "internalType": "address",
          "name": "newOwner",
          "type": "address"
        }
      ],
      "name": "transferOwnership",
      "outputs": [],
      "stateMutability": "nonpayable",
      "type": "function"
    },
    {
      "inputs": [],
      "name": "usdt",
      "outputs": [
        {
          "internalType": "contract USDT",
          "name": "",
          "type": "address"
        }
      ],
      "stateMutability": "view",
      "type": "function"
    }
  ],
  "bytecode": "0x60a03461017957601f6137c738819003918201601f19168301916001600160401b0383118484101761017d5780849260c0946040528339810103126101795761004781610191565b6020820151906001600160401b03821682036101795760408301519061006f60608501610191565b9361008860a061008160808401610191565b9201610191565b6001600160a01b039283166080525f8054336001600160a01b031982168117835560405198939590929116907f8be0079c531659141344cd1fd0a4f28419497f9722a3daafe3b4186f6b6457e09080a36005805463ffffffff1916620493e0179055600a600d5560038054600495909555600180546001600160a01b03199081166001600160a01b039485161790915560028054909116938316939093179092556001600160e01b031990931660a09490941b600160a01b600160e01b0316939093179116179055600e805460ff191660ff17905561362190816101a682396080518181816105f301526124d20152f35b5f80fd5b634e487b7160e01b5f52604160045260245ffd5b51906001600160a01b03821682036101795756fe60806040526004361015610011575f80fd5b5f3560e01c806309c1ba2e146102145780630af8a5b01461020f5780630ca761751461020a5780630e599a73146102055780632f48ab7d146102005780632fa0a115146101fb57806336ff6a70146101f65780633f6abd8f146101f157806341c512ad146101ec57806343425e88146101e757806344af6819146101e25780634585e33b146101dd5780634768d4ef146101d85780634b40a275146101d357806352d6af9e146101ce578063536f6070146101c95780636e04ff0d146101c4578063715018a6146101bf57806387cad4cd146101ba5780638c640f0c146101b55780638da5cb5b146101b05780638dbe7b9d146101ab578063996d0b54146101a6578063a197317e146101a1578063ae169a501461019c578063cc0e597c14610197578063cdc634f114610192578063d8c73d461461018d578063da866c4814610188578063e7b33f9714610183578063f2fde38b1461017e5763f68016b714610179575f80fd5b611573565b6114a5565b61146c565b6112a7565b61112b565b611105565b610f89565b610d97565b610d7c565b610d4d565b610d30565b610d09565b610c16565b610bb1565b610b5a565b610a32565b6109fc565b6109df565b6109c2565b61095a565b610870565b6107f4565b6107cc565b6107ae565b610794565b610744565b6106a8565b610680565b610660565b61059f565b6104f0565b3461023d575f36600319011261023d5760206001600160401b0360035460a01c16604051908152f35b5f80fd5b90600182811c9216801561026f575b602083101461025b57565b634e487b7160e01b5f52602260045260245ffd5b91607f1691610250565b634e487b7160e01b5f52604160045260245ffd5b604081019081106001600160401b038211176102a857604052565b610279565b90601f801991011681019081106001600160401b038211176102a857604052565b604051905f82600754916102e183610241565b80835292600181169081156103665750600114610307575b610305925003836102ad565b565b5060075f90815290917fa66cc928b5edb82af9bd49922954155ab7b0942694bea4ce44661d9a8736c6885b81831061034a575050906020610305928201016102f9565b6020919350806001915483858901015201910190918492610332565b6020925061030594915060ff191682840152151560051b8201016102f9565b604051905f826006549161039883610241565b808352926001811690811561036657506001146103bb57610305925003836102ad565b5060065f90815290917ff652222313e28459528d920b65115c16c04f3efc82aaedc97be59f3f377c0d3f5b8183106103fe575050906020610305928201016102f9565b60209193508060019154838589010152019101909184926103e6565b9060405191825f82549261042d84610241565b80845293600181169081156104965750600114610452575b50610305925003836102ad565b90505f9291925260205f20905f915b81831061047a575050906020610305928201015f610445565b6020919350806001915483858901015201910190918492610461565b90506020925061030594915060ff191682840152151560051b8201015f610445565b805180835260209291819084018484015e5f828201840152601f01601f1916010190565b9060206104ed9281815201906104b8565b90565b3461023d575f36600319011261023d5761051f61050b6102ce565b6040519182916020835260208301906104b8565b0390f35b60405190610305610100836102ad565b6001600160401b0381116102a857601f01601f191660200190565b92919261055a82610533565b9161056860405193846102ad565b82948184528183011161023d578281602093845f960137010152565b9080601f8301121561023d578160206104ed9335910161054e565b3461023d57606036600319011261023d576004356024356001600160401b03811161023d576105d2903690600401610584565b6044356001600160401b03811161023d576105f1903690600401610584565b7f00000000000000000000000000000000000000000000000000000000000000006001600160a01b031633036106515761062b9183611dd3565b7f85e1543bf2f84fe80c6badbce3648c8539ad1df4d2b3d822938ca0538be727e65f80a2005b63c6829f8360e01b5f5260045ffd5b3461023d575f36600319011261023d57602060ff600e5416604051908152f35b3461023d575f36600319011261023d576003546040516001600160a01b039091168152602090f35b3461023d57602036600319011261023d576004355f52600860205260ff600460405f20015416156106d557005b60405162461bcd60e51b815260206004820152601660248201527513585d18da081b9bdd081c995cdbdb1d9959081e595d60521b6044820152606490fd5b634e487b7160e01b5f52603260045260245ffd5b60095481101561073f5760095f5260205f2001905f90565b610713565b3461023d57602036600319011261023d5760043560095481101561023d5760209060095f527f6e1540171b6c0c960b71a7020d9f60077f6af931a8bbf590da0223dacf75c7af0154604051908152f35b3461023d575f36600319011261023d576107ac6116a9565b005b3461023d575f36600319011261023d576107c6612552565b5f600c55005b3461023d575f36600319011261023d576001546040516001600160a01b039091168152602090f35b3461023d57602036600319011261023d57600435610810612552565b600d55005b9181601f8401121561023d578235916001600160401b03831161023d576020838186019501011161023d57565b602060031982011261023d57600435906001600160401b03821161023d5761086c91600401610815565b9091565b3461023d57604061088036610842565b908092918101031261023d5760ff602082359261089c84611120565b01359116806108af57506107ac90612688565b60019150146108ba57005b6009545f600955806108d0575b506107ac6116a9565b60095f52610902907f6e1540171b6c0c960b71a7020d9f60077f6af931a8bbf590da0223dacf75c7af9081019061184a565b5f6108c7565b949060e0969361093260ff94610940939c9b9a979c895261010060208a01526101008901906104b8565b9087820360408901526104b8565b98606086015216608084015260a083015260c08201520152565b3461023d57602036600319011261023d576004355f52600860205260405f20805461051f61098a6001840161041a565b926109976002820161041a565b90600381015460ff600483015416600583015491600760068501549401549460405198899889610908565b3461023d575f36600319011261023d576020600954604051908152f35b3461023d575f36600319011261023d576020600c54604051908152f35b3461023d575f36600319011261023d576020600d54604051908152f35b6040906104ed93921515815281602082015201906104b8565b3461023d57610a4036610842565b50505f6060905f600954905b818110610ab2575b50508015610a6c575b61051f60405192839283610a19565b610a7b600c54600d549061161f565b4210610a5d5750506001604051610aac81610a9e60208201906001602083019252565b03601f1981018352826102ad565b90610a5d565b610ac8610abe82610727565b90549060031b1c90565b610af0610aea6004610ae2845f52600860205260405f2090565b015460ff1690565b60ff1690565b1580610b34575b610b045750600101610a4c565b9350505050610a9e610b2c600192604051928391602083019190602060408401935f81520152565b905f80610a54565b50610b536003610b4c835f52600860205260405f2090565b01546115ef565b4211610af7565b3461023d575f36600319011261023d57610b72612552565b5f80546001600160a01b0319811682556001600160a01b03167f8be0079c531659141344cd1fd0a4f28419497f9722a3daafe3b4186f6b6457e08280a3005b3461023d57602036600319011261023d576004355f52600a602052602060405f2054604051908152f35b602060031982011261023d57600435906001600160401b03821161023d578060238301121561023d578160246104ed9360040135910161054e565b3461023d57610c2436610bdb565b610c2c612552565b80516001600160401b0381116102a857610c5081610c4b600754610241565b611860565b602091601f8211600114610c8e57610c7e925f9183610c83575b50508160011b915f199060031b1c19161790565b600755005b015190505f80610c6a565b60075f52601f198216927fa66cc928b5edb82af9bd49922954155ab7b0942694bea4ce44661d9a8736c688915f5b858110610cf157508360019510610cd9575b505050811b01600755005b01515f1960f88460031b161c191690555f8080610cce565b91926020600181928685015181550194019201610cbc565b3461023d575f36600319011261023d575f546040516001600160a01b039091168152602090f35b3461023d575f36600319011261023d576020600454604051908152f35b3461023d57602036600319011261023d576004355f52600b602052602060ff60405f2054166040519015158152f35b3461023d575f36600319011261023d5761051f61050b610385565b3461023d57602036600319011261023d57600435600254610dc8906001600160a01b03165b6001600160a01b031690565b6040516331a9108f60e11b815260048101839052602081602481855afa8015610f1357610e07915f91610f5a575b506001600160a01b03163314611a2a565b604051630efbf52960e01b8152600481018390529060a090829060249082905afa908115610f1357610e59915f5f915f935f905f92610f18575b5090610e4f610e5492611aae565b611aed565b612795565b600354610e6e906001600160a01b0316610dbc565b60405163a9059cbb60e01b8152336004820152602481018390529290602090849060449082905f905af1928315610f13577fe1b4cc7b572a56466df9203312ded49052ff26393efd614a3f8658c98ec0fc3893610ee6575b50604080519182526001602083015281019190915280606081015b0390a1005b610f079060203d602011610f0c575b610eff81836102ad565b810190611b27565b610ec6565b503d610ef5565b611a1f565b915050610e4f9350610e549250610f47915060a03d60a011610f53575b610f3f81836102ad565b810190611a73565b91959294509091610e41565b503d610f35565b610f7c915060203d602011610f82575b610f7481836102ad565b810190611a0a565b5f610df6565b503d610f6a565b3461023d57610f9736610bdb565b610f9f612552565b80516001600160401b0381116102a857610fc381610fbe600654610241565b6118a3565b602091601f8211600114610ff557610ff0925f9183610c835750508160011b915f199060031b1c19161790565b600655005b60065f52601f198216927ff652222313e28459528d920b65115c16c04f3efc82aaedc97be59f3f377c0d3f915f5b85811061105857508360019510611040575b505050811b01600655005b01515f1960f88460031b161c191690555f8080611035565b91926020600181928685015181550194019201611023565b604051905f82600f549161108383610241565b808352926001811690811561036657506001146110a657610305925003836102ad565b50600f5f90815290917f8d1108e10bcb7c27dddfc02ed9d693a074039d026cf4ea4240b40f7d581ac8025b8183106110e9575050906020610305928201016102f9565b60209193508060019154838589010152019101909184926110d1565b3461023d575f36600319011261023d5761051f61050b611070565b60ff81160361023d57565b3461023d57604036600319011261023d5760043561114881611120565b6024356001600160401b03811161023d5761116960ff913690600401610815565b919092611174612552565b1660ff81116112625760ff19600e541617600e556001600160401b0381116102a8576111aa816111a5600f54610241565b6118db565b5f601f82116001146111e65781906111d6935f926111db5750508160011b915f199060031b1c19161790565b600f55005b013590505f80610c6a565b600f5f52601f198216927f8d1108e10bcb7c27dddfc02ed9d693a074039d026cf4ea4240b40f7d581ac802915f5b85811061124a57508360019510611231575b505050811b01600f55005b01355f19600384901b60f8161c191690555f8080611226565b90926020600181928686013581550194019101611214565b60405162461bcd60e51b815260206004820152601860248201527f496e76616c69642073656372657473206c6f636174696f6e00000000000000006044820152606490fd5b3461023d57606036600319011261023d576024356004356112c782611120565b604435916112e86112e0835f52600860205260405f2090565b541515611b3b565b61130b60ff6113046004610ae2865f52600860205260405f2090565b1615611b7e565b61131b600260ff83161115611bc3565b600354611330906001600160a01b0316610dbc565b6040516323b872dd60e01b81523360048201523060248201526044810185905290602090829060649082905f905af18015610f135761144f575b50600254611380906001600160a01b0316610dbc565b604051633a3446df60e21b81523360048201526024810184905260ff83166044820152606481018590529390602090859060849082905f905af1908115610f13577f11d02810c631c72400f6f1739955999911bdcec8c268889873bcfb0dd64b94ba945f9261141c575b5060408051338152602081019390935282019390935260ff909116606082015260808101919091528060a08101610ee1565b610ee192506114429060203d602011611448575b61143a81836102ad565b810190611c04565b916113ea565b503d611430565b6114679060203d602011610f0c57610eff81836102ad565b61136a565b3461023d575f36600319011261023d576002546040516001600160a01b039091168152602090f35b6001600160a01b0381160361023d57565b3461023d57602036600319011261023d576004356114c281611494565b6114ca612552565b6001600160a01b0381161561151f575f80546001600160a01b039283166001600160a01b03198216811783559216907f8be0079c531659141344cd1fd0a4f28419497f9722a3daafe3b4186f6b6457e09080a3005b60405162461bcd60e51b815260206004820152602660248201527f4f776e61626c653a206e6577206f776e657220697320746865207a65726f206160448201526564647265737360d01b6064820152608490fd5b3461023d575f36600319011261023d57602063ffffffff60055416604051908152f35b1561159d57565b60405162461bcd60e51b815260206004820152601660248201527513585d18da195cc81cdbdd5c98d9481b9bdd081cd95d60521b6044820152606490fd5b634e487b7160e01b5f52601160045260245ffd5b90611c2082018092116115fe57565b6115db565b90600182018092116115fe57565b90602082018092116115fe57565b919082018092116115fe57565b1561163357565b60405162461bcd60e51b81526020600482015260086024820152672a37b79039b7b7b760c11b6044820152606490fd5b6040519060e082018281106001600160401b038211176102a857604052606060c0835f81525f60208201525f604082015282808201528260808201528260a08201520152565b6116be6116b7600654610241565b1515611596565b6116d86116d0600c54600d549061161f565b42101561162c565b61177561176861175a6117386116ec611663565b6116fd6116f7610385565b82612b11565b60ff61170b600e5460ff1690565b168015806117b0575b1561177e575061173361172d611728611070565b612072565b82612118565b6122b2565b60035460a01c6001600160401b031660055463ffffffff16906004549261247b565b5f52600b60205260405f2090565b805460ff19166001179055565b61030542600c55565b6001148061179d575b156122b257611733611797611070565b82612013565b506117a9600f54610241565b1515611787565b506117bc600f54610241565b1515611714565b90620151808202918083046201518014901517156115fe57565b600381901b91906001600160fd1b038116036115fe57565b90600a820291808304600a14901517156115fe57565b906064820291808304606414901517156115fe57565b908160011b91808304600214901517156115fe57565b818102929181159184041417156115fe57565b818110611855575050565b5f815560010161184a565b90601f821161186d575050565b6103059160075f5260205f20906020601f840160051c83019310611899575b601f0160051c019061184a565b909150819061188c565b90601f82116118b0575050565b6103059160065f5260205f20906020601f840160051c8301931061189957601f0160051c019061184a565b90601f82116118e8575050565b61030591600f5f5260205f20906020601f840160051c8301931061189957601f0160051c019061184a565b9190601f811161192257505050565b610305925f5260205f20906020601f840160051c8301931061189957601f0160051c019061184a565b91909182516001600160401b0381116102a8576119728161196c8454610241565b84611913565b6020601f82116001146119a55781906119a19394955f92610c835750508160011b915f199060031b1c19161790565b9055565b601f198216906119b8845f5260205f2090565b915f5b8181106119f2575095836001959697106119da575b505050811b019055565b01515f1960f88460031b161c191690555f80806119d0565b9192602060018192868b0151815501940192016119bb565b9081602091031261023d57516104ed81611494565b6040513d5f823e3d90fd5b15611a3157565b60405162461bcd60e51b815260206004820152600d60248201526c2737ba103a34329037bbb732b960991b6044820152606490fd5b5190811515820361023d57565b908160a091031261023d578051916020820151611a8f81611120565b916040810151916104ed6080611aa760608501611a66565b9301611a66565b15611ab557565b60405162461bcd60e51b815260206004820152601060248201526f10995d081b9bdd081c995cdbdb1d995960821b6044820152606490fd5b15611af457565b60405162461bcd60e51b815260206004820152600b60248201526a2132ba103737ba103bb7b760a91b6044820152606490fd5b9081602091031261023d576104ed90611a66565b15611b4257565b60405162461bcd60e51b815260206004820152601460248201527313585d18da08191bd95cc81b9bdd08195e1a5cdd60621b6044820152606490fd5b15611b8557565b60405162461bcd60e51b815260206004820152601660248201527513585d18da08185b1c9958591e481c995cdbdb1d995960521b6044820152606490fd5b15611bca57565b60405162461bcd60e51b815260206004820152601260248201527124b73b30b634b210383932b234b1ba34b7b760711b6044820152606490fd5b9081602091031261023d575190565b60208183031261023d578051906001600160401b03821161023d570181601f8201121561023d57805190611c4682610533565b92611c5460405194856102ad565b8284526020838301011161023d57815f9260208093018386015e8301015290565b6040602082019160208152600954809352019060095f5260205f20905f5b818110611ca05750505090565b8254845260209093019260019283019201611c93565b60405190611cc56040836102ad565b60018252601f60fa1b6020830152565b80511561073f5760200190565b80516001101561073f5760400190565b80516002101561073f5760600190565b805182101561073f5760209160051b010190565b9060e060079180518455611d3160208201516001860161194b565b611d4260408201516002860161194b565b60608101516003850155611d6a60ff608083015116600486019060ff1660ff19825416179055565b60a0810151600585015560c081015160068501550151910155565b600954680100000000000000008110156102a8576001810160095560095481101561073f5760095f527f6e1540171b6c0c960b71a7020d9f60077f6af931a8bbf590da0223dacf75c7af0155565b90918051611fd05750611df8611df1825f52600b60205260405f2090565b5460ff1690565b15611f41575080602080611e1193518301019101611c13565b805115611f1257611e2a90611e24611cb6565b90612863565b905f5b8251811015611edc5780611e4360019285611d02565b5151611e50575b01611e2d565b611ed7611ed2611e69611e638488611d02565b516129f6565b92611e8a611e84611e7f8b999899959495611603565b6117c3565b4261161f565b90611e93610523565b958887526020870152604086015260608501525f608085015260a084015260c083015260e0820152611ecd835f52600860205260405f2090565b611d16565b611d85565b611e4a565b5090507fc8ebec3ee270205e821a96d947158a7e7fe9df1ac520c2c8ae231a90978c8bdb60405180611f0d81611c75565b0390a1565b507fc8ebec3ee270205e821a96d947158a7e7fe9df1ac520c2c8ae231a90978c8bdb60405180611f0d81611c75565b60ff611f89611f7a846020807f1e64e9780c0a892267b8ddd6e87d3c74446a01c70ecb6d6ac1f60ab6175e9c0b97518301019101611c04565b925f52600a60205260405f2090565b54911690611fb5826004611fa5845f52600860205260405f2090565b019060ff1660ff19825416179055565b6040805191825260ff90921660208201529081908101611f0d565b60405162461bcd60e51b8152908190611fec90600483016104dc565b0390fd5b634e487b7160e01b5f52602160045260245ffd5b6003111561200e57565b611ff0565b815115612027576001602082015260800152565b63e889636f60e01b5f5260045ffd5b90815181101561073f570160200190565b60070390600782116115fe57565b5f198101919082116115fe57565b601f198101919082116115fe57565b9060088251106120dc57905f905f5b6008811061208e57505090565b9092916001906120d06120ae610aea6120a78689612036565b5160f81c90565b6120bf6120ba86612047565b6117dd565b6001600160401b03809216901b1690565b17910192909192612081565b60405162461bcd60e51b8152602060048201526014602482015273092dcecc2d8d2c840c4f2e8cae640d8cadccee8d60631b6044820152606490fd5b9060809061218b612127612b4f565b916121856040612155815161213c83826102ad565b60068152651cdb1bdd125160d21b602082015286612b7f565b61215f5f866130e9565b61216b815191826102ad565b60078152663b32b939b4b7b760c91b602082015284612b7f565b826130e9565b600260208401525151910152565b604051906121a86040836102ad565b600c82526b31b7b232a637b1b0ba34b7b760a11b6020830152565b604051906121d26040836102ad565b60088252676c616e677561676560c01b6020830152565b6001111561200e57565b604051906122026040836102ad565b6006825265736f7572636560d01b6020830152565b604051906122266040836102ad565b60048252636172677360e01b6020830152565b604051906122486040836102ad565b600f82526e39b2b1b932ba39a637b1b0ba34b7b760891b6020830152565b604051906122756040836102ad565b60078252667365637265747360c81b6020830152565b6040519061229a6040836102ad565b600982526862797465734172677360b81b6020830152565b6122ba612b4f565b906122cc6122c6612199565b83612b7f565b6122e981516122da81612004565b6122e381612004565b83612c66565b6122f46122c66121c3565b61230e6040820151612305816121e9565b6122e3816121e9565b6123196122c66121f3565b612327606082015183612b7f565b60a08101805151612423575b5060808101908151516123a6575b60c0915001805151612354575b50515190565b916123606122c661228b565b61236982612c93565b5f5b83518051821015612393579061238d61238682600194611d02565b5185612cd7565b0161236b565b505091506123a081612cb5565b5f61234e565b6020810180516123b581612004565b6123be81612004565b156124145760c0926123f761240f926123de6123d8612239565b88612b7f565b516123e881612004565b6123f181612004565b86612c66565b612408612402612266565b86612b7f565b5184612cd7565b612341565b63a80d31f760e01b5f5260045ffd5b9261243561242f612217565b84612b7f565b61243e83612c93565b5f5b84518051821015612468579061246261245b82600194611d02565b5186612b7f565b01612440565b5050925061247582612cb5565b5f612333565b92906020926001600160401b039263ffffffff6124ba604051978896879663230e93b160e11b885216600487015260a0602487015260a48601906104b8565b6001604486015292166064840152608483015203815f7f00000000000000000000000000000000000000000000000000000000000000006001600160a01b03165af1908115610f13575f91612533575b50807f1131472297a800fee664d1d89cfa8f7676ff07189ecc53f80bbb5f4969099db85f80a290565b61254c915060203d6020116114485761143a81836102ad565b5f61250a565b5f546001600160a01b0316330361256557565b606460405162461bcd60e51b815260206004820152602060248201527f4f776e61626c653a2063616c6c6572206973206e6f7420746865206f776e65726044820152fd5b156125b057565b60405162461bcd60e51b815260206004820152601660248201527514995cdd5b1d1cc81cdbdd5c98d9481b9bdd081cd95d60521b6044820152606490fd5b6001600160401b0381116102a85760051b60200190565b6040805190919061261683826102ad565b6001815291601f1901825f5b82811061262e57505050565b806060602080938501015201612622565b90612649826125ee565b61265660405191826102ad565b8281528092612667601f19916125ee565b01905f5b82811061267757505050565b80606060208093850101520161266b565b612747610305916126a461269d600754610241565b15156125a9565b6127256117386126b2611663565b6126bd6116f76102ce565b60ff6126cb600e5460ff1690565b16801580612782575b1561275157506126e861172d611728611070565b6117336126f3612605565b60405161270b81610a9e896020830160209181520190565b61271482611cd5565b5261271e81611cd5565b5082612d70565b90612738825f52600a60205260405f2090565b555f52600b60205260405f2090565b805460ff19169055565b6001148061276f575b156126e85761276a611797611070565b6126e8565b5061277b600f54610241565b151561275a565b5061278e600f54610241565b15156126d4565b91612834916104ed935f52600860205260405f2060e060ff6127b5610523565b93835485526127c66001850161041a565b60208601526127d76002850161041a565b6040860152600384015460608601526128016127f7600486015460ff1690565b60ff166080870152565b6005840154948560a082015260076006860154958660c0840152015493849101521680155f1461283b5750505090611837565b6064900490565b9192509060010361284d575090611837565b905090611837565b5f1981146115fe5760010190565b9190916001905f5b81518110156128d95761288f6128818284612036565b516001600160f81b03191690565b6128ab61289e61288188611cd5565b6001600160f81b03191690565b6001600160f81b0319909116146128c5575b60010161286b565b916128d1600191612855565b9290506128bd565b50906128e49061263f565b925f905f905f5b8451811015612969576129016128818287612036565b61291061289e61288185611cd5565b6001600160f81b03199091161461292a575b6001016128eb565b9291836129379186612e79565b6129418388611d02565b5261294c8287611d02565b50600161296161295b85611603565b93612855565b939050612922565b505061298f9261297e91959495815191612e79565b6129888285611d02565b5282611d02565b5090565b604051906129a26040836102ad565b60018252602d60f81b6020830152565b604051906129c16040836102ad565b6004825263486f6d6560e01b6020830152565b604051906129e36040836102ad565b60048252634177617960e01b6020830152565b5f905f5b8151811015612b0457601d60f91b612a1861289e6128818486612036565b14612a25576001016129fa565b9150612a5b90612a53905b612a4b612a45612a408684612d8c565b612ef8565b94611603565b815191612e79565b611e24612993565b8051600311612ae157612a76612a7082611cd5565b51612f92565b9190936005612a8483611ce2565b51511115612ad257612ac6612a70612ac0612abb612aa186611ce2565b51612ab5612aae88611ce2565b5151612055565b90612df6565b613002565b93611cf2565b9190945b959493929190565b612ac6612a7061012c93611cf2565b5090612aeb6129b2565b91612af46129d4565b9160969161012c9160dc91612aca565b50612a53612a5b91612a30565b815115612b27575f808252604082015260600152565b6322ce3edd60e01b5f5260045ffd5b60405190612b438261028d565b5f602083606081520152565b604051612b5b8161028d565b5f612b64612b36565b808352612b7a6101006020850192848452613098565b505290565b8151612bce9291906001600160401b031660178111612bd1578151612bb991612bb390612bac6060610aea565b1760ff1690565b906132c5565b505b5190612bc5612b36565b5080519161352f565b50565b60ff8111612bfe578151612bf89190612bf090601860605b17906132c5565b5082516134af565b50612bbb565b61ffff8111612c23578151612bf89190612c1b9060196060612be9565b508251613436565b63ffffffff8111612c4a578151612bf89190612c4290601a6060612be9565b5082516133bd565b8151612bf89190612c5e90601b6060612be9565b50825161333f565b9061030591612c758151613255565b5060405191602083015260208252612c8e6040836102ad565b612cd7565b602090612ca2609f82516132c5565b5001805190600182018092116115fe5752565b602090612cc460ff82516132c5565b500180515f198101919082116115fe5752565b8151612bce9291906001600160401b031660178111612d04578151612bb991612bb390612bac6040610aea565b60ff8111612d20578151612bf89190612bf09060186040612be9565b61ffff8111612d3d578151612bf89190612c1b9060196040612be9565b63ffffffff8111612d5c578151612bf89190612c4290601a6040612be9565b8151612bf89190612c5e90601b6040612be9565b815115612d7d5760a00152565b63fe936cb760e01b5f5260045ffd5b9190612d9781610533565b90612da560405192836102ad565b808252601f19612db482610533565b013660208401375f5b818110612dcb575090925050565b6001906001600160f81b0319612de18288612036565b51165f1a612def8286612036565b5301612dbd565b600419820191908183116115fe57612e0d83610533565b92612e1b60405194856102ad565b808452612e2a601f1991610533565b0136602085013760055b828110612e415750505090565b6001600160f81b0319612e548284612036565b51169060041981018181116115fe57612e726001935f1a9187612036565b5301612e34565b91818103928184116115fe57612e8e84610533565b93612e9c60405195866102ad565b808552612eab601f1991610533565b01366020860137825b828110612ec2575050505090565b6001600160f81b0319612ed58284612036565b5116908481038181116115fe57612ef16001935f1a9188612036565b5301612eb4565b5f9190825b8151841015612f8d57602f19612f138584612036565b5160f81c0160ff81116115fe5760ff169060098211612f4857600191612f3b612f40926117f5565b61161f565b930192612efd565b60405162461bcd60e51b815260206004820152601b60248201527f496e76616c69642063686172616374657220696e206e756d62657200000000006044820152606490fd5b925050565b905f905f5b8351811015612ffb57600560fb1b6001600160f81b0319612fb88387612036565b511614612fc757600101612f97565b9091505b612fd58184612d8c565b92600182018092116115fe5780515f1981019081116115fe576104ed92612abb92612e79565b5090612fcb565b5f9081805b8251811015613090576001600160f81b03196130238285612036565b511660ff60f81b16601760f91b1461303d57600101613007565b9192505060015b1561307e57612f3b61307861307261306c85612a4b613066876104ed99612d8c565b96611603565b93612ef8565b92612ef8565b9161180b565b5061308b6104ed91612ef8565b61180b565b509091613044565b906130a1612b36565b50601f8116806130cf575b50806020830152604051908183525f8252810160200190811061023d5760405290565b602003602081116115fe5781018091116115fe575f6130ac565b906001600160401b0381166017811161311057509051612bce91612bb390612bac5f610aea565b905060ff8111613134578151612bce929061312d9060185f612be9565b50516134af565b61ffff8111613157578151612bce92906131509060195f612be9565b5051613436565b63ffffffff811161317c578151612bce929061317590601a5f612be9565b50516133bd565b8151612bce929061318f90601b5f612be9565b505161333f565b9061319f612b36565b5080516131aa612b36565b506131b88251821115613528565b825151916131c6828461161f565b906020850151821161323e575b602091855183815196820101958211613236575b505001905b6020811015613210575f19906020036101000a019081199051169082511617905290565b909161322b6132256132319285518152611611565b93611611565b91612063565b6131ec565b525f806131e7565b61325061324a83611821565b866135d4565b6131d3565b61325d612b36565b5080515160018101908181116115fe576020830151811015613296575b60c26020845192830101538051821161329257505090565b5290565b8160011b828104600214831517156115fe576132bf906132b885519186613098565b5084613196565b5061327a565b906132ce612b36565b5081515160018101918282116115fe576020840151821015613301575b6020845192830101538051821161329257505090565b8260011b838104600214841517156115fe5761332a9061332386519187613098565b5085613196565b506132eb565b601f81116115fe576101000a90565b90613348612b36565b508151518060080191826008116115fe5760208401518311613395575b6133776133726008613330565b612055565b90600885519384010191198251161790528051821161329257505090565b8260011b838104600214841517156115fe576133b79061332386519187613098565b50613365565b906133c6612b36565b508151518060040191826004116115fe576020840151831161340e575b6133f06133726004613330565b90600485519384010191198251161790528051821161329257505090565b8260011b838104600214841517156115fe576134309061332386519187613098565b506133e3565b9061343f612b36565b508151518060020191826002116115fe5760208401518311613487575b6134696133726002613330565b90600285519384010191198251161790528051821161329257505090565b8260011b838104600214841517156115fe576134a99061332386519187613098565b5061345c565b906134b8612b36565b508151518060010191826001116115fe5760208401518311613500575b6134e26133726001613330565b90600185519384010191198251161790528051821161329257505090565b8260011b838104600214841517156115fe576135229061332386519187613098565b506134d5565b1561023d57565b91613538612b36565b506135468251821115613528565b602083515192613556838561161f565b8286015181116135bd575b8551838151968201019582116135b5575b505001905b602081101561359b575f19906020036101000a019081199051169082511617905290565b909161322b6132256135b09285518152611611565b613577565b525f80613572565b6135cf6135c982611821565b876135d4565b613561565b90612bce916135e581519282613098565b5061319656fea26469706673582212202b92d598b418712f2fb12f7efbed153750570ccc8b2ed0af590527da52739b0b64736f6c634300081c0033",
  "linkReferences": {},
  "deployedLinkReferences": {},
  "immutableReferences": {
    "36": [
      {
        "length": 32,
        "start": 1523
      },
      {
        "length": 32,
        "start": 9426
      }
    ]
  },
  "inputSourceName": "project/contracts/BettingContract.sol",
  "buildInfoId": "solc-0_8_28-3823b374f673990f80f2e1242fe39cee087a9ffc"
}