{
  "_format": "hh3-artifact-1",
  "contractName": "BettingContract",
  "sourceName": "contracts/BettingContract.sol",
  "abi": [
    {
      "inputs": [
        {
          "internalType": "address",
          "name": "router",
          "type": "address"
        },
        {
          "internalType": "uint64",
          "name": "_subscriptionId",
          "type": "uint64"
        },
        {
          "internalType": "bytes32",
          "name": "_donId",
          "type": "bytes32"
        },
        {
          "internalType": "address",
          "name": "_bettingToken",
          "type": "address"
        },
        {
          "internalType": "address",
          "name": "_betTicketNFT",
          "type": "address"
        },
        {
          "internalType": "address",
          "name": "_usdt",
          "type": "address"
        }
      ],
      "stateMutability": "nonpayable",
      "type": "constructor"
    },
    {
      "inputs": [],
      "name": "EmptyArgs",
      "type": "error"
    },
    {
      "inputs": [],
      "name": "EmptySource",
      "type": "error"
    },
    {
      "inputs": [],
      "name": "NoInlineSecrets",
      "type": "error"
    },
    {
      "inputs": [],
      "name": "OnlyRouterCanFulfill",
      "type": "error"
    },
    {
      "inputs": [
        {
          "internalType": "address",
          "name": "owner",
          "type": "address"
        }
      ],
      "name": "OwnableInvalidOwner",
      "type": "error"
    },
    {
      "inputs": [
        {
          "internalType": "address",
          "name": "account",
          "type": "address"
        }
      ],
      "name": "OwnableUnauthorizedAccount",
      "type": "error"
    },
    {
      "anonymous": false,
      "inputs": [
        {
          "indexed": false,
          "internalType": "address",
          "name": "user",
          "type": "address"
        },
        {
          "indexed": false,
          "internalType": "uint256",
          "name": "tokenId",
          "type": "uint256"
        },
        {
          "indexed": false,
          "internalType": "uint256",
          "name": "matchId",
          "type": "uint256"
        },
        {
          "indexed": false,
          "internalType": "uint8",
          "name": "prediction",
          "type": "uint8"
        },
        {
          "indexed": false,
          "internalType": "uint256",
          "name": "amount",
          "type": "uint256"
        }
      ],
      "name": "BetPlaced",
      "type": "event"
    },
    {
      "anonymous": false,
      "inputs": [
        {
          "indexed": false,
          "internalType": "uint256",
          "name": "tokenId",
          "type": "uint256"
        },
        {
          "indexed": false,
          "internalType": "bool",
          "name": "won",
          "type": "bool"
        },
        {
          "indexed": false,
          "internalType": "uint256",
          "name": "payout",
          "type": "uint256"
        }
      ],
      "name": "BetResolved",
      "type": "event"
    },
    {
      "anonymous": false,
      "inputs": [
        {
          "indexed": false,
          "internalType": "uint256",
          "name": "matchId",
          "type": "uint256"
        },
        {
          "indexed": false,
          "internalType": "uint8",
          "name": "result",
          "type": "uint8"
        }
      ],
      "name": "MatchResultFetched",
      "type": "event"
    },
    {
      "anonymous": false,
      "inputs": [
        {
          "indexed": false,
          "internalType": "uint256[]",
          "name": "matchIds",
          "type": "uint256[]"
        }
      ],
      "name": "MatchesFetched",
      "type": "event"
    },
    {
      "anonymous": false,
      "inputs": [
        {
          "indexed": true,
          "internalType": "address",
          "name": "previousOwner",
          "type": "address"
        },
        {
          "indexed": true,
          "internalType": "address",
          "name": "newOwner",
          "type": "address"
        }
      ],
      "name": "OwnershipTransferred",
      "type": "event"
    },
    {
      "anonymous": false,
      "inputs": [
        {
          "indexed": true,
          "internalType": "bytes32",
          "name": "id",
          "type": "bytes32"
        }
      ],
      "name": "RequestFulfilled",
      "type": "event"
    },
    {
      "anonymous": false,
      "inputs": [
        {
          "indexed": true,
          "internalType": "bytes32",
          "name": "id",
          "type": "bytes32"
        }
      ],
      "name": "RequestSent",
      "type": "event"
    },
    {
      "inputs": [],
      "name": "betTicketNFT",
      "outputs": [
        {
          "internalType": "contract BetTicketNFT",
          "name": "",
          "type": "address"
        }
      ],
      "stateMutability": "view",
      "type": "function"
    },
    {
      "inputs": [],
      "name": "bettingToken",
      "outputs": [
        {
          "internalType": "contract BettingToken",
          "name": "",
          "type": "address"
        }
      ],
      "stateMutability": "view",
      "type": "function"
    },
    {
      "inputs": [
        {
          "internalType": "bytes",
          "name": "",
          "type": "bytes"
        }
      ],
      "name": "checkUpkeep",
      "outputs": [
        {
          "internalType": "bool",
          "name": "upkeepNeeded",
          "type": "bool"
        },
        {
          "internalType": "bytes",
          "name": "performData",
          "type": "bytes"
        }
      ],
      "stateMutability": "view",
      "type": "function"
    },
    {
      "inputs": [
        {
          "internalType": "uint256",
          "name": "tokenId",
          "type": "uint256"
        }
      ],
      "name": "claimReward",
      "outputs": [],
      "stateMutability": "nonpayable",
      "type": "function"
    },
    {
      "inputs": [],
      "name": "donId",
      "outputs": [
        {
          "internalType": "bytes32",
          "name": "",
          "type": "bytes32"
        }
      ],
      "stateMutability": "view",
      "type": "function"
    },
    {
      "inputs": [],
      "name": "gasLimit",
      "outputs": [
        {
          "internalType": "uint32",
          "name": "",
          "type": "uint32"
        }
      ],
      "stateMutability": "view",
      "type": "function"
    },
    {
      "inputs": [],
      "name": "getMatchIdsLength",
      "outputs": [
        {
          "internalType": "uint256",
          "name": "",
          "type": "uint256"
        }
      ],
      "stateMutability": "view",
      "type": "function"
    },
    {
      "inputs": [
        {
          "internalType": "bytes32",
          "name": "requestId",
          "type": "bytes32"
        },
        {
          "internalType": "bytes",
          "name": "response",
          "type": "bytes"
        },
        {
          "internalType": "bytes",
          "name": "err",
          "type": "bytes"
        }
      ],
      "name": "handleOracleFulfillment",
      "outputs": [],
      "stateMutability": "nonpayable",
      "type": "function"
    },
    {
      "inputs": [],
      "name": "lastMatchRequestTime",
      "outputs": [
        {
          "internalType": "uint256",
          "name": "",
          "type": "uint256"
        }
      ],
      "stateMutability": "view",
      "type": "function"
    },
    {
      "inputs": [
        {
          "internalType": "uint256",
          "name": "",
          "type": "uint256"
        }
      ],
      "name": "matchIds",
      "outputs": [
        {
          "internalType": "uint256",
          "name": "",
          "type": "uint256"
        }
      ],
      "stateMutability": "view",
      "type": "function"
    },
    {
      "inputs": [
        {
          "internalType": "uint256",
          "name": "",
          "type": "uint256"
        }
      ],
      "name": "matches",
      "outputs": [
        {
          "internalType": "uint256",
          "name": "id",
          "type": "uint256"
        },
        {
          "internalType": "string",
          "name": "homeTeam",
          "type": "string"
        },
        {
          "internalType": "string",
          "name": "awayTeam",
          "type": "string"
        },
        {
          "internalType": "uint256",
          "name": "matchDate",
          "type": "uint256"
        },
        {
          "internalType": "uint8",
          "name": "result",
          "type": "uint8"
        },
        {
          "internalType": "uint256",
          "name": "homeOdds",
          "type": "uint256"
        },
        {
          "internalType": "uint256",
          "name": "drawOdds",
          "type": "uint256"
        },
        {
          "internalType": "uint256",
          "name": "awayOdds",
          "type": "uint256"
        }
      ],
      "stateMutability": "view",
      "type": "function"
    },
    {
      "inputs": [],
      "name": "matchesSourceCode",
      "outputs": [
        {
          "internalType": "string",
          "name": "",
          "type": "string"
        }
      ],
      "stateMutability": "view",
      "type": "function"
    },
    {
      "inputs": [],
      "name": "owner",
      "outputs": [
        {
          "internalType": "address",
          "name": "",
          "type": "address"
        }
      ],
      "stateMutability": "view",
      "type": "function"
    },
    {
      "inputs": [
        {
          "internalType": "bytes",
          "name": "performData",
          "type": "bytes"
        }
      ],
      "name": "performUpkeep",
      "outputs": [],
      "stateMutability": "nonpayable",
      "type": "function"
    },
    {
      "inputs": [
        {
          "internalType": "uint256",
          "name": "matchId",
          "type": "uint256"
        },
        {
          "internalType": "uint8",
          "name": "prediction",
          "type": "uint8"
        },
        {
          "internalType": "uint256",
          "name": "amount",
          "type": "uint256"
        }
      ],
      "name": "placeBet",
      "outputs": [],
      "stateMutability": "nonpayable",
      "type": "function"
    },
    {
      "inputs": [],
      "name": "renounceOwnership",
      "outputs": [],
      "stateMutability": "nonpayable",
      "type": "function"
    },
    {
      "inputs": [],
      "name": "requestInterval",
      "outputs": [
        {
          "internalType": "uint256",
          "name": "",
          "type": "uint256"
        }
      ],
      "stateMutability": "view",
      "type": "function"
    },
    {
      "inputs": [],
      "name": "requestMatches",
      "outputs": [],
      "stateMutability": "nonpayable",
      "type": "function"
    },
    {
      "inputs": [
        {
          "internalType": "bytes32",
          "name": "",
          "type": "bytes32"
        }
      ],
      "name": "requestToMatchId",
      "outputs": [
        {
          "internalType": "uint256",
          "name": "",
          "type": "uint256"
        }
      ],
      "stateMutability": "view",
      "type": "function"
    },
    {
      "inputs": [
        {
          "internalType": "bytes32",
          "name": "",
          "type": "bytes32"
        }
      ],
      "name": "requestType",
      "outputs": [
        {
          "internalType": "bool",
          "name": "",
          "type": "bool"
        }
      ],
      "stateMutability": "view",
      "type": "function"
    },
    {
      "inputs": [],
      "name": "resetLastRequestTime",
      "outputs": [],
      "stateMutability": "nonpayable",
      "type": "function"
    },
    {
      "inputs": [
        {
          "internalType": "uint256",
          "name": "matchId",
          "type": "uint256"
        }
      ],
      "name": "resolveBets",
      "outputs": [],
      "stateMutability": "view",
      "type": "function"
    },
    {
      "inputs": [],
      "name": "resultsSourceCode",
      "outputs": [
        {
          "internalType": "string",
          "name": "",
          "type": "string"
        }
      ],
      "stateMutability": "view",
      "type": "function"
    },
    {
      "inputs": [
        {
          "internalType": "string",
          "name": "source",
          "type": "string"
        }
      ],
      "name": "setMatchesSource",
      "outputs": [],
      "stateMutability": "nonpayable",
      "type": "function"
    },
    {
      "inputs": [
        {
          "internalType": "uint256",
          "name": "_interval",
          "type": "uint256"
        }
      ],
      "name": "setRequestInterval",
      "outputs": [],
      "stateMutability": "nonpayable",
      "type": "function"
    },
    {
      "inputs": [
        {
          "internalType": "string",
          "name": "source",
          "type": "string"
        }
      ],
      "name": "setResultsSource",
      "outputs": [],
      "stateMutability": "nonpayable",
      "type": "function"
    },
    {
      "inputs": [],
      "name": "subscriptionId",
      "outputs": [
        {
          "internalType": "uint64",
          "name": "",
          "type": "uint64"
        }
      ],
      "stateMutability": "view",
      "type": "function"
    },
    {
      "inputs": [
        {
          "internalType": "address",
          "name": "newOwner",
          "type": "address"
        }
      ],
      "name": "transferOwnership",
      "outputs": [],
      "stateMutability": "nonpayable",
      "type": "function"
    },
    {
      "inputs": [],
      "name": "usdt",
      "outputs": [
        {
          "internalType": "contract USDT",
          "name": "",
          "type": "address"
        }
      ],
      "stateMutability": "view",
      "type": "function"
    }
  ],
  "bytecode": "0x60a03461018d57601f612ff238819003918201601f19168301916001600160401b038311848410176101915780849260c09460405283398101031261018d57610047816101a5565b6020820151906001600160401b038216820361018d5760408301519061006f606085016101a5565b9361008860a0610081608084016101a5565b92016101a5565b6001600160a01b03909216608052331561017a575f8054336001600160a01b0319821681178355604051979290916001600160a01b0316907f8be0079c531659141344cd1fd0a4f28419497f9722a3daafe3b4186f6b6457e09080a36005805463ffffffff1916620493e017905562015180600d5560038054600495909555600180546001600160a01b03199081166001600160a01b039485161790915560028054909116938316939093179092556001600160e01b031990931660a09490941b600160a01b600160e01b0316939093179116179055612e3890816101ba82396080518181816105c3015261204b0152f35b631e4fbdf760e01b5f525f60045260245ffd5b5f80fd5b634e487b7160e01b5f52604160045260245ffd5b51906001600160a01b038216820361018d5756fe60806040526004361015610011575f80fd5b5f3560e01c806309c1ba2e146101e45780630af8a5b0146101df5780630ca76175146101da5780632f48ab7d146101d55780632fa0a115146101d057806336ff6a70146101cb5780633f6abd8f146101c657806341c512ad146101c157806343425e88146101bc57806344af6819146101b75780634585e33b146101b25780634768d4ef146101ad5780634b40a275146101a857806352d6af9e146101a3578063536f60701461019e5780636e04ff0d14610199578063715018a61461019457806387cad4cd1461018f5780638c640f0c1461018a5780638da5cb5b146101855780638dbe7b9d14610180578063996d0b541461017b578063a197317e14610176578063ae169a5014610171578063cc0e597c1461016c578063da866c4814610167578063e7b33f9714610162578063f2fde38b1461015d5763f68016b714610158575f80fd5b6114ff565b611476565b61143d565b611278565b611186565b610f94565b610f79565b610f4a565b610f2d565b610f06565b610e13565b610dae565b610d57565b610c28565b610bf2565b610bd5565b610bb8565b610b50565b6109d3565b610963565b61093b565b61091d565b610903565b6108b3565b610817565b6107ef565b61056f565b6104c0565b3461020d575f36600319011261020d5760206001600160401b0360035460a01c16604051908152f35b5f80fd5b90600182811c9216801561023f575b602083101461022b57565b634e487b7160e01b5f52602260045260245ffd5b91607f1691610220565b634e487b7160e01b5f52604160045260245ffd5b604081019081106001600160401b0382111761027857604052565b610249565b90601f801991011681019081106001600160401b0382111761027857604052565b604051905f82600754916102b183610211565b808352926001811690811561033657506001146102d7575b6102d59250038361027d565b565b5060075f90815290917fa66cc928b5edb82af9bd49922954155ab7b0942694bea4ce44661d9a8736c6885b81831061031a5750509060206102d5928201016102c9565b6020919350806001915483858901015201910190918492610302565b602092506102d594915060ff191682840152151560051b8201016102c9565b604051905f826006549161036883610211565b8083529260018116908115610336575060011461038b576102d59250038361027d565b5060065f90815290917ff652222313e28459528d920b65115c16c04f3efc82aaedc97be59f3f377c0d3f5b8183106103ce5750509060206102d5928201016102c9565b60209193508060019154838589010152019101909184926103b6565b9060405191825f8254926103fd84610211565b80845293600181169081156104665750600114610422575b506102d59250038361027d565b90505f9291925260205f20905f915b81831061044a5750509060206102d5928201015f610415565b6020919350806001915483858901015201910190918492610431565b9050602092506102d594915060ff191682840152151560051b8201015f610415565b805180835260209291819084018484015e5f828201840152601f01601f1916010190565b9060206104bd928181520190610488565b90565b3461020d575f36600319011261020d576104ef6104db61029e565b604051918291602083526020830190610488565b0390f35b604051906102d56101008361027d565b6001600160401b03811161027857601f01601f191660200190565b92919261052a82610503565b91610538604051938461027d565b82948184528183011161020d578281602093845f960137010152565b9080601f8301121561020d578160206104bd9335910161051e565b3461020d57606036600319011261020d576004356024356001600160401b03811161020d576105a2903690600401610554565b6044356001600160401b03811161020d576105c1903690600401610554565b7f00000000000000000000000000000000000000000000000000000000000000006001600160a01b031633036107e05780516107c0575061061461060d835f52600b60205260405f2090565b5460ff1690565b156107345761062f8160208061063d94518301019101611a77565b610637611ad9565b906122b6565b905f5b82518110156106d957806106d36106ce61066561065f60019588611b05565b5161242a565b9261068661068061067b8b999899959495611536565b611b19565b42611566565b9061068f6104f3565b958887526020870152604086015260608501525f608085015260a084015260c083015260e08201526106c9835f52600860205260405f2090565b611b72565b611be1565b01610640565b5090507fc8ebec3ee270205e821a96d947158a7e7fe9df1ac520c2c8ae231a90978c8bdb6040518061070a81611c2f565b0390a15b7f85e1543bf2f84fe80c6badbce3648c8539ad1df4d2b3d822938ca0538be727e65f80a2005b610768816020807f1e64e9780c0a892267b8ddd6e87d3c74446a01c70ecb6d6ac1f60ab6175e9c0b94518301019101611a68565b60ff61077c845f52600a60205260405f2090565b549116906107a8826004610798845f52600860205260405f2090565b019060ff1660ff19825416179055565b6040805191825260ff929092166020820152a161070e565b60405162461bcd60e51b81529081906107dc90600483016104ac565b0390fd5b63c6829f8360e01b5f5260045ffd5b3461020d575f36600319011261020d576003546040516001600160a01b039091168152602090f35b3461020d57602036600319011261020d576004355f52600860205260ff600460405f200154161561084457005b60405162461bcd60e51b815260206004820152601660248201527513585d18da081b9bdd081c995cdbdb1d9959081e595d60521b6044820152606490fd5b634e487b7160e01b5f52603260045260245ffd5b6009548110156108ae5760095f5260205f2001905f90565b610882565b3461020d57602036600319011261020d5760043560095481101561020d5760209060095f527f6e1540171b6c0c960b71a7020d9f60077f6af931a8bbf590da0223dacf75c7af0154604051908152f35b3461020d575f36600319011261020d5761091b611605565b005b3461020d575f36600319011261020d576109356120cb565b5f600c55005b3461020d575f36600319011261020d576001546040516001600160a01b039091168152602090f35b3461020d57602036600319011261020d5760043561097f6120cb565b600d55005b90602060031983011261020d576004356001600160401b03811161020d578260238201121561020d578060040135926001600160401b03841161020d576024848301011161020d576024019190565b3461020d5760406109e336610984565b908092918101031261020d5760ff60208235926109ff8461126d565b0135911680610aeb5750610ae161091b91610a25610a1e600754610211565b15156120f1565b610abf610a9d610a336115bf565b610a44610a3e61029e565b8261252e565b610a4d81611c93565b610a98610a58612154565b604051610a7e81610a70896020830160209181520190565b03601f19810183528261027d565b610a8782611af8565b52610a9181611af8565b50826127aa565b611e2b565b60035460a01c6001600160401b031660055463ffffffff169060045492611ff4565b90610ad2825f52600a60205260405f2090565b555f52600b60205260405f2090565b805460ff19169055565b6001915014610af657005b61091b611605565b949060e09693610b2860ff94610b36939c9b9a979c895261010060208a0152610100890190610488565b908782036040890152610488565b98606086015216608084015260a083015260c08201520152565b3461020d57602036600319011261020d576004355f52600860205260405f2080546104ef610b80600184016103ea565b92610b8d600282016103ea565b90600381015460ff600483015416600583015491600760068501549401549460405198899889610afe565b3461020d575f36600319011261020d576020600954604051908152f35b3461020d575f36600319011261020d576020600c54604051908152f35b3461020d575f36600319011261020d576020600d54604051908152f35b6040906104bd9392151581528160208201520190610488565b3461020d57610c3636610984565b50505f6060905f600954905b818110610cb0575b508115610c62575b506104ef60405192839283610c0f565b158015610c98575b610c75575b5f610c52565b50506001604051610c9281610a7060208201906001602083019252565b90610c6f565b50610ca8600c54600d5490611566565b421015610c6a565b610cc6610cbc82610896565b90549060031b1c90565b610cee610ce86004610ce0845f52600860205260405f2090565b015460ff1690565b60ff1690565b1580610d31575b610d025750600101610c42565b9250509150610a70610d2a600192604051928391602083019190602060408401935f81520152565b915f610c4a565b50610d506003610d49835f52600860205260405f2090565b0154611549565b4211610cf5565b3461020d575f36600319011261020d57610d6f6120cb565b5f80546001600160a01b0319811682556001600160a01b03167f8be0079c531659141344cd1fd0a4f28419497f9722a3daafe3b4186f6b6457e08280a3005b3461020d57602036600319011261020d576004355f52600a602052602060405f2054604051908152f35b602060031982011261020d57600435906001600160401b03821161020d578060238301121561020d578160246104bd9360040135910161051e565b3461020d57610e2136610dd8565b610e296120cb565b80516001600160401b03811161027857610e4d81610e48600754610211565b6116c0565b602091601f8211600114610e8b57610e7b925f9183610e80575b50508160011b915f199060031b1c19161790565b600755005b015190505f80610e67565b60075f52601f198216927fa66cc928b5edb82af9bd49922954155ab7b0942694bea4ce44661d9a8736c688915f5b858110610eee57508360019510610ed6575b505050811b01600755005b01515f1960f88460031b161c191690555f8080610ecb565b91926020600181928685015181550194019201610eb9565b3461020d575f36600319011261020d575f546040516001600160a01b039091168152602090f35b3461020d575f36600319011261020d576020600454604051908152f35b3461020d57602036600319011261020d576004355f52600b602052602060ff60405f2054166040519015158152f35b3461020d575f36600319011261020d576104ef6104db610355565b3461020d57602036600319011261020d57600435600254610fc5906001600160a01b03165b6001600160a01b031690565b6040516331a9108f60e11b815260048101839052602081602481855afa801561111057611004915f91611157575b506001600160a01b0316331461188e565b604051630efbf52960e01b8152600481018390529060a090829060249082905afa90811561111057611056915f5f915f935f905f92611115575b509061104c61105192611912565b611951565b6121d7565b60035461106b906001600160a01b0316610fb9565b60405163a9059cbb60e01b8152336004820152602481018390529290602090849060449082905f905af1928315611110577fe1b4cc7b572a56466df9203312ded49052ff26393efd614a3f8658c98ec0fc38936110e3575b50604080519182526001602083015281019190915280606081015b0390a1005b6111049060203d602011611109575b6110fc818361027d565b81019061198b565b6110c3565b503d6110f2565b611883565b91505061104c93506110519250611144915060a03d60a011611150575b61113c818361027d565b8101906118d7565b9195929450909161103e565b503d611132565b611179915060203d60201161117f575b611171818361027d565b81019061186e565b5f610ff3565b503d611167565b3461020d5761119436610dd8565b61119c6120cb565b80516001600160401b038111610278576111c0816111bb600654610211565b611710565b602091601f82116001146111f2576111ed925f9183610e805750508160011b915f199060031b1c19161790565b600655005b60065f52601f198216927ff652222313e28459528d920b65115c16c04f3efc82aaedc97be59f3f377c0d3f915f5b8581106112555750836001951061123d575b505050811b01600655005b01515f1960f88460031b161c191690555f8080611232565b91926020600181928685015181550194019201611220565b60ff81160361020d57565b3461020d57606036600319011261020d576024356004356112988261126d565b604435916112b96112b1835f52600860205260405f2090565b54151561199f565b6112dc60ff6112d56004610ce0865f52600860205260405f2090565b16156119e2565b6112ec600260ff83161115611a27565b600354611301906001600160a01b0316610fb9565b6040516323b872dd60e01b81523360048201523060248201526044810185905290602090829060649082905f905af1801561111057611420575b50600254611351906001600160a01b0316610fb9565b604051633a3446df60e21b81523360048201526024810184905260ff83166044820152606481018590529390602090859060849082905f905af1908115611110577f11d02810c631c72400f6f1739955999911bdcec8c268889873bcfb0dd64b94ba945f926113ed575b5060408051338152602081019390935282019390935260ff909116606082015260808101919091528060a081016110de565b6110de92506114139060203d602011611419575b61140b818361027d565b810190611a68565b916113bb565b503d611401565b6114389060203d602011611109576110fc818361027d565b61133b565b3461020d575f36600319011261020d576002546040516001600160a01b039091168152602090f35b6001600160a01b0381160361020d57565b3461020d57602036600319011261020d5760043561149381611465565b61149b6120cb565b6001600160a01b031680156114ec575f80546001600160a01b03198116831782556001600160a01b0316907f8be0079c531659141344cd1fd0a4f28419497f9722a3daafe3b4186f6b6457e09080a3005b631e4fbdf760e01b5f525f60045260245ffd5b3461020d575f36600319011261020d57602063ffffffff60055416604051908152f35b634e487b7160e01b5f52601160045260245ffd5b906001820180921161154457565b611522565b90611c20820180921161154457565b906020820180921161154457565b9190820180921161154457565b1561157a57565b60405162461bcd60e51b815260206004820152601b60248201527f546f6f20736f6f6e20746f2072657175657374206d61746368657300000000006044820152606490fd5b6040519060e082018281106001600160401b0382111761027857604052606060c0835f81525f60208201525f604082015282808201528260808201528260a08201520152565b611610600654610211565b1561167b5761162f611627600c54600d5490611566565b421015611573565b611672611665611657610a9d6116436115bf565b61164e610a3e610355565b610a9881611c93565b5f52600b60205260405f2090565b805460ff19166001179055565b6102d542600c55565b60405162461bcd60e51b815260206004820152601b60248201527f4d61746368657320736f7572636520636f6465206e6f742073657400000000006044820152606490fd5b601f81116116cc575050565b60075f5260205f20906020601f840160051c83019310611706575b601f0160051c01905b8181106116fb575050565b5f81556001016116f0565b90915081906116e7565b601f811161171c575050565b60065f5260205f20906020601f840160051c83019310611756575b601f0160051c01905b81811061174b575050565b5f8155600101611740565b9091508190611737565b601f821161176d57505050565b5f5260205f20906020601f840160051c830193106117a5575b601f0160051c01905b81811061179a575050565b5f815560010161178f565b9091508190611786565b91909182516001600160401b038111610278576117d6816117d08454610211565b84611760565b6020601f82116001146118095781906118059394955f92610e805750508160011b915f199060031b1c19161790565b9055565b601f1982169061181c845f5260205f2090565b915f5b8181106118565750958360019596971061183e575b505050811b019055565b01515f1960f88460031b161c191690555f8080611834565b9192602060018192868b01518155019401920161181f565b9081602091031261020d57516104bd81611465565b6040513d5f823e3d90fd5b1561189557565b60405162461bcd60e51b815260206004820152600d60248201526c2737ba103a34329037bbb732b960991b6044820152606490fd5b5190811515820361020d57565b908160a091031261020d5780519160208201516118f38161126d565b916040810151916104bd608061190b606085016118ca565b93016118ca565b1561191957565b60405162461bcd60e51b815260206004820152601060248201526f10995d081b9bdd081c995cdbdb1d995960821b6044820152606490fd5b1561195857565b60405162461bcd60e51b815260206004820152600b60248201526a2132ba103737ba103bb7b760a91b6044820152606490fd5b9081602091031261020d576104bd906118ca565b156119a657565b60405162461bcd60e51b815260206004820152601460248201527313585d18da08191bd95cc81b9bdd08195e1a5cdd60621b6044820152606490fd5b156119e957565b60405162461bcd60e51b815260206004820152601660248201527513585d18da08185b1c9958591e481c995cdbdb1d995960521b6044820152606490fd5b15611a2e57565b60405162461bcd60e51b815260206004820152601260248201527124b73b30b634b210383932b234b1ba34b7b760711b6044820152606490fd5b9081602091031261020d575190565b60208183031261020d578051906001600160401b03821161020d570181601f8201121561020d57805190611aaa82610503565b92611ab8604051948561027d565b8284526020838301011161020d57815f9260208093018386015e8301015290565b60405190611ae860408361027d565b60018252601f60fa1b6020830152565b8051156108ae5760200190565b80518210156108ae5760209160051b010190565b906201518082029180830462015180149015171561154457565b90600a820291808304600a149015171561154457565b908160011b918083046002149015171561154457565b8181029291811591840414171561154457565b9060e060079180518455611b8d6020820151600186016117af565b611b9e6040820151600286016117af565b60608101516003850155611bc660ff608083015116600486019060ff1660ff19825416179055565b60a0810151600585015560c081015160068501550151910155565b6009546801000000000000000081101561027857600181016009556009548110156108ae5760095f527f6e1540171b6c0c960b71a7020d9f60077f6af931a8bbf590da0223dacf75c7af0155565b6040602082019160208152600954809352019060095f5260205f20905f5b818110611c5a5750505090565b8254845260209093019260019283019201611c4d565b634e487b7160e01b5f52602160045260245ffd5b60031115611c8e57565b611c70565b6080611c9d61256c565b611cfa6040611cca8151611cb1838261027d565b60068152651cdb1bdd125160d21b60208201528461259c565b611cd45f84612900565b611ce08151918261027d565b60078152663b32b939b4b7b760c91b60208201528261259c565b611d045f82612900565b600260208401525151910152565b60405190611d2160408361027d565b600c82526b31b7b232a637b1b0ba34b7b760a11b6020830152565b60405190611d4b60408361027d565b60088252676c616e677561676560c01b6020830152565b60011115611c8e57565b60405190611d7b60408361027d565b6006825265736f7572636560d01b6020830152565b60405190611d9f60408361027d565b60048252636172677360e01b6020830152565b60405190611dc160408361027d565b600f82526e39b2b1b932ba39a637b1b0ba34b7b760891b6020830152565b60405190611dee60408361027d565b60078252667365637265747360c81b6020830152565b60405190611e1360408361027d565b600982526862797465734172677360b81b6020830152565b611e3361256c565b90611e45611e3f611d12565b8361259c565b611e628151611e5381611c84565b611e5c81611c84565b83612683565b611e6d611e3f611d3c565b611e876040820151611e7e81611d62565b611e5c81611d62565b611e92611e3f611d6c565b611ea060608201518361259c565b60a08101805151611f9c575b506080810190815151611f1f575b60c0915001805151611ecd575b50515190565b91611ed9611e3f611e04565b611ee2826126b0565b5f5b83518051821015611f0c5790611f06611eff82600194611b05565b5185612711565b01611ee4565b50509150611f19816126ef565b5f611ec7565b602081018051611f2e81611c84565b611f3781611c84565b15611f8d5760c092611f70611f8892611f57611f51611db2565b8861259c565b51611f6181611c84565b611f6a81611c84565b86612683565b611f81611f7b611ddf565b8661259c565b5184612711565b611eba565b63a80d31f760e01b5f5260045ffd5b92611fae611fa8611d90565b8461259c565b611fb7836126b0565b5f5b84518051821015611fe15790611fdb611fd482600194611b05565b518661259c565b01611fb9565b50509250611fee826126ef565b5f611eac565b92906020926001600160401b039263ffffffff612033604051978896879663230e93b160e11b885216600487015260a0602487015260a4860190610488565b6001604486015292166064840152608483015203815f7f00000000000000000000000000000000000000000000000000000000000000006001600160a01b03165af1908115611110575f916120ac575b50807f1131472297a800fee664d1d89cfa8f7676ff07189ecc53f80bbb5f4969099db85f80a290565b6120c5915060203d6020116114195761140b818361027d565b5f612083565b5f546001600160a01b031633036120de57565b63118cdaa760e01b5f523360045260245ffd5b156120f857565b60405162461bcd60e51b815260206004820152601b60248201527f526573756c747320736f7572636520636f6465206e6f742073657400000000006044820152606490fd5b6001600160401b0381116102785760051b60200190565b60408051909190612165838261027d565b6001815291601f1901825f5b82811061217d57505050565b806060602080938501015201612171565b906121988261213d565b6121a5604051918261027d565b82815280926121b6601f199161213d565b01905f5b8281106121c657505050565b8060606020809385010152016121ba565b91612276916104bd935f52600860205260405f2060e060ff6121f76104f3565b9383548552612208600185016103ea565b6020860152612219600285016103ea565b604086015260038401546060860152612243612239600486015460ff1690565b60ff166080870152565b6005840154948560a082015260076006860154958660c0840152015493849101521680155f1461227d5750505090611b5f565b6064900490565b9192509060010361228f575090611b5f565b905090611b5f565b9081518110156108ae570160200190565b5f1981146115445760010190565b9190916001905f5b815181101561232c576122e26122d48284612297565b516001600160f81b03191690565b6122fe6122f16122d488611af8565b6001600160f81b03191690565b6001600160f81b031990911614612318575b6001016122be565b916123246001916122a8565b929050612310565b50906123379061218e565b925f905f905f5b84518110156123bc576123546122d48287612297565b6123636122f16122d485611af8565b6001600160f81b03199091161461237d575b60010161233e565b92918361238a9186612830565b6123948388611b05565b5261239f8287611b05565b5060016123b46123ae85611536565b936122a8565b939050612375565b50506123e2926123d191959495815191612830565b6123db8285611b05565b5282611b05565b5090565b604051906123f560408361027d565b6004825263486f6d6560e01b6020830152565b6040519061241760408361027d565b60048252634177617960e01b6020830152565b5f905f5b815181101561252357601d60f91b6001600160f81b031961244f8385612297565b51161461245e5760010161242e565b6124699250906127c6565b5f9190825b81518410156124fe57602f196124848584612297565b5160f81c0160ff81116115445760ff1690600982116124b9576001916124ac6124b192611b33565b611566565b93019261246e565b60405162461bcd60e51b815260206004820152601b60248201527f496e76616c69642063686172616374657220696e206e756d62657200000000006044820152606490fd5b9192505061250a6123e6565b91612513612408565b9192919060969061012c9060dc90565b5090612469916127c6565b815115612544575f808252604082015260600152565b6322ce3edd60e01b5f5260045ffd5b604051906125608261025d565b5f602083606081520152565b6040516125788161025d565b5f612581612553565b80835261259761010060208501928484526128af565b505290565b81516125eb9291906001600160401b0316601781116125ee5781516125d6916125d0906125c96060610ce8565b1760ff1690565b90612adc565b505b51906125e2612553565b50805191612d46565b50565b60ff811161261b578151612615919061260d90601860605b1790612adc565b508251612cc6565b506125d8565b61ffff811161264057815161261591906126389060196060612606565b508251612c4d565b63ffffffff8111612667578151612615919061265f90601a6060612606565b508251612bd4565b8151612615919061267b90601b6060612606565b508251612b56565b906102d5916126928151612a6c565b50604051916020830152602082526126ab60408361027d565b612711565b6020906126bf609f8251612adc565b5001805190600182018092116115445752565b601f1981019190821161154457565b5f1981019190821161154457565b6020906126fe60ff8251612adc565b500180515f198101919082116115445752565b81516125eb9291906001600160401b03166017811161273e5781516125d6916125d0906125c96040610ce8565b60ff811161275a578151612615919061260d9060186040612606565b61ffff811161277757815161261591906126389060196040612606565b63ffffffff8111612796578151612615919061265f90601a6040612606565b8151612615919061267b90601b6040612606565b8151156127b75760a00152565b63fe936cb760e01b5f5260045ffd5b91906127d181610503565b906127df604051928361027d565b808252601f196127ee82610503565b013660208401375f5b818110612805575090925050565b6001906001600160f81b031961281b8288612297565b51165f1a6128298286612297565b53016127f7565b91818103928184116115445761284584610503565b93612853604051958661027d565b808552612862601f1991610503565b01366020860137825b828110612879575050505090565b6001600160f81b031961288c8284612297565b511690848103818111611544576128a86001935f1a9188612297565b530161286b565b906128b8612553565b50601f8116806128e6575b50806020830152604051908183525f8252810160200190811061020d5760405290565b60200360208111611544578101809111611544575f6128c3565b906001600160401b03811660178111612927575090516125eb916125d0906125c95f610ce8565b905060ff811161294b5781516125eb92906129449060185f612606565b5051612cc6565b61ffff811161296e5781516125eb92906129679060195f612606565b5051612c4d565b63ffffffff81116129935781516125eb929061298c90601a5f612606565b5051612bd4565b81516125eb92906129a690601b5f612606565b5051612b56565b906129b6612553565b5080516129c1612553565b506129cf8251821115612d3f565b825151916129dd8284611566565b9060208501518211612a55575b602091855183815196820101958211612a4d575b505001905b6020811015612a27575f19906020036101000a019081199051169082511617905290565b9091612a42612a3c612a489285518152611558565b93611558565b916126d2565b612a03565b525f806129fe565b612a67612a6183611b49565b86612deb565b6129ea565b612a74612553565b508051516001810190818111611544576020830151811015612aad575b60c260208451928301015380518211612aa957505090565b5290565b8160011b8281046002148315171561154457612ad690612acf855191866128af565b50846129ad565b50612a91565b90612ae5612553565b508151516001810191828211611544576020840151821015612b18575b60208451928301015380518211612aa957505090565b8260011b8381046002148415171561154457612b4190612b3a865191876128af565b50856129ad565b50612b02565b601f8111611544576101000a90565b90612b5f612553565b508151518060080191826008116115445760208401518311612bac575b612b8e612b896008612b47565b6126e1565b906008855193840101911982511617905280518211612aa957505090565b8260011b8381046002148415171561154457612bce90612b3a865191876128af565b50612b7c565b90612bdd612553565b508151518060040191826004116115445760208401518311612c25575b612c07612b896004612b47565b906004855193840101911982511617905280518211612aa957505090565b8260011b8381046002148415171561154457612c4790612b3a865191876128af565b50612bfa565b90612c56612553565b508151518060020191826002116115445760208401518311612c9e575b612c80612b896002612b47565b906002855193840101911982511617905280518211612aa957505090565b8260011b8381046002148415171561154457612cc090612b3a865191876128af565b50612c73565b90612ccf612553565b508151518060010191826001116115445760208401518311612d17575b612cf9612b896001612b47565b906001855193840101911982511617905280518211612aa957505090565b8260011b8381046002148415171561154457612d3990612b3a865191876128af565b50612cec565b1561020d57565b91612d4f612553565b50612d5d8251821115612d3f565b602083515192612d6d8385611566565b828601518111612dd4575b855183815196820101958211612dcc575b505001905b6020811015612db2575f19906020036101000a019081199051169082511617905290565b9091612a42612a3c612dc79285518152611558565b612d8e565b525f80612d89565b612de6612de082611b49565b87612deb565b612d78565b906125eb91612dfc815192826128af565b506129ad56fea26469706673582212202873d9866a80f498171a24d441304ab1a79de56dc710444076af518ecd6cdd5964736f6c634300081c0033",
  "linkReferences": {},
  "deployedLinkReferences": {},
  "immutableReferences": {
    "36": [
      {
        "length": 32,
        "start": 1475
      },
      {
        "length": 32,
        "start": 8267
      }
    ]
  },
  "inputSourceName": "project/contracts/BettingContract.sol",
  "buildInfoId": "solc-0_8_28-c7fd37a8f5d26293ddb67e8cc0f2e2dd85fce9cf"
}