{
  "_format": "hh3-artifact-1",
  "contractName": "BettingContract",
  "sourceName": "contracts/BettingContract.sol",
  "abi": [
    {
      "inputs": [
        {
          "internalType": "address",
          "name": "router",
          "type": "address"
        },
        {
          "internalType": "uint64",
          "name": "_subscriptionId",
          "type": "uint64"
        },
        {
          "internalType": "bytes32",
          "name": "_donId",
          "type": "bytes32"
        },
        {
          "internalType": "address",
          "name": "_bettingToken",
          "type": "address"
        },
        {
          "internalType": "address",
          "name": "_betTicketNFT",
          "type": "address"
        },
        {
          "internalType": "address",
          "name": "_usdt",
          "type": "address"
        }
      ],
      "stateMutability": "nonpayable",
      "type": "constructor"
    },
    {
      "inputs": [],
      "name": "EmptyArgs",
      "type": "error"
    },
    {
      "inputs": [],
      "name": "EmptySecrets",
      "type": "error"
    },
    {
      "inputs": [],
      "name": "EmptySource",
      "type": "error"
    },
    {
      "inputs": [],
      "name": "NoInlineSecrets",
      "type": "error"
    },
    {
      "inputs": [],
      "name": "OnlyRouterCanFulfill",
      "type": "error"
    },
    {
      "anonymous": false,
      "inputs": [
        {
          "indexed": false,
          "internalType": "address",
          "name": "user",
          "type": "address"
        },
        {
          "indexed": false,
          "internalType": "uint256",
          "name": "tokenId",
          "type": "uint256"
        },
        {
          "indexed": false,
          "internalType": "uint256",
          "name": "matchId",
          "type": "uint256"
        },
        {
          "indexed": false,
          "internalType": "uint8",
          "name": "prediction",
          "type": "uint8"
        },
        {
          "indexed": false,
          "internalType": "uint256",
          "name": "amount",
          "type": "uint256"
        }
      ],
      "name": "BetPlaced",
      "type": "event"
    },
    {
      "anonymous": false,
      "inputs": [
        {
          "indexed": false,
          "internalType": "uint256",
          "name": "tokenId",
          "type": "uint256"
        },
        {
          "indexed": false,
          "internalType": "bool",
          "name": "won",
          "type": "bool"
        },
        {
          "indexed": false,
          "internalType": "uint256",
          "name": "payout",
          "type": "uint256"
        }
      ],
      "name": "BetResolved",
      "type": "event"
    },
    {
      "anonymous": false,
      "inputs": [
        {
          "indexed": false,
          "internalType": "uint256",
          "name": "matchId",
          "type": "uint256"
        },
        {
          "indexed": false,
          "internalType": "uint8",
          "name": "result",
          "type": "uint8"
        }
      ],
      "name": "MatchResultFetched",
      "type": "event"
    },
    {
      "anonymous": false,
      "inputs": [
        {
          "indexed": false,
          "internalType": "uint256[]",
          "name": "matchIds",
          "type": "uint256[]"
        }
      ],
      "name": "MatchesFetched",
      "type": "event"
    },
    {
      "anonymous": false,
      "inputs": [
        {
          "indexed": true,
          "internalType": "address",
          "name": "previousOwner",
          "type": "address"
        },
        {
          "indexed": true,
          "internalType": "address",
          "name": "newOwner",
          "type": "address"
        }
      ],
      "name": "OwnershipTransferred",
      "type": "event"
    },
    {
      "anonymous": false,
      "inputs": [
        {
          "indexed": true,
          "internalType": "bytes32",
          "name": "requestId",
          "type": "bytes32"
        },
        {
          "indexed": false,
          "internalType": "string",
          "name": "reason",
          "type": "string"
        }
      ],
      "name": "RequestFailed",
      "type": "event"
    },
    {
      "anonymous": false,
      "inputs": [
        {
          "indexed": true,
          "internalType": "bytes32",
          "name": "id",
          "type": "bytes32"
        }
      ],
      "name": "RequestFulfilled",
      "type": "event"
    },
    {
      "anonymous": false,
      "inputs": [
        {
          "indexed": true,
          "internalType": "bytes32",
          "name": "id",
          "type": "bytes32"
        }
      ],
      "name": "RequestSent",
      "type": "event"
    },
    {
      "inputs": [],
      "name": "betTicketNFT",
      "outputs": [
        {
          "internalType": "contract BetTicketNFT",
          "name": "",
          "type": "address"
        }
      ],
      "stateMutability": "view",
      "type": "function"
    },
    {
      "inputs": [],
      "name": "bettingToken",
      "outputs": [
        {
          "internalType": "contract BettingToken",
          "name": "",
          "type": "address"
        }
      ],
      "stateMutability": "view",
      "type": "function"
    },
    {
      "inputs": [
        {
          "internalType": "bytes",
          "name": "",
          "type": "bytes"
        }
      ],
      "name": "checkUpkeep",
      "outputs": [
        {
          "internalType": "bool",
          "name": "upkeepNeeded",
          "type": "bool"
        },
        {
          "internalType": "bytes",
          "name": "performData",
          "type": "bytes"
        }
      ],
      "stateMutability": "view",
      "type": "function"
    },
    {
      "inputs": [
        {
          "internalType": "uint256",
          "name": "tokenId",
          "type": "uint256"
        }
      ],
      "name": "claimReward",
      "outputs": [],
      "stateMutability": "nonpayable",
      "type": "function"
    },
    {
      "inputs": [
        {
          "internalType": "bytes",
          "name": "data",
          "type": "bytes"
        }
      ],
      "name": "decodeString",
      "outputs": [
        {
          "internalType": "string",
          "name": "",
          "type": "string"
        }
      ],
      "stateMutability": "pure",
      "type": "function"
    },
    {
      "inputs": [
        {
          "internalType": "bytes",
          "name": "data",
          "type": "bytes"
        }
      ],
      "name": "decodeUint256",
      "outputs": [
        {
          "internalType": "uint256",
          "name": "",
          "type": "uint256"
        }
      ],
      "stateMutability": "pure",
      "type": "function"
    },
    {
      "inputs": [],
      "name": "donId",
      "outputs": [
        {
          "internalType": "bytes32",
          "name": "",
          "type": "bytes32"
        }
      ],
      "stateMutability": "view",
      "type": "function"
    },
    {
      "inputs": [],
      "name": "encryptedSecretsReference",
      "outputs": [
        {
          "internalType": "bytes",
          "name": "",
          "type": "bytes"
        }
      ],
      "stateMutability": "view",
      "type": "function"
    },
    {
      "inputs": [],
      "name": "gasLimit",
      "outputs": [
        {
          "internalType": "uint32",
          "name": "",
          "type": "uint32"
        }
      ],
      "stateMutability": "view",
      "type": "function"
    },
    {
      "inputs": [],
      "name": "getMatchIdsLength",
      "outputs": [
        {
          "internalType": "uint256",
          "name": "",
          "type": "uint256"
        }
      ],
      "stateMutability": "view",
      "type": "function"
    },
    {
      "inputs": [
        {
          "internalType": "bytes32",
          "name": "requestId",
          "type": "bytes32"
        },
        {
          "internalType": "bytes",
          "name": "response",
          "type": "bytes"
        },
        {
          "internalType": "bytes",
          "name": "err",
          "type": "bytes"
        }
      ],
      "name": "handleOracleFulfillment",
      "outputs": [],
      "stateMutability": "nonpayable",
      "type": "function"
    },
    {
      "inputs": [],
      "name": "lastMatchRequestTime",
      "outputs": [
        {
          "internalType": "uint256",
          "name": "",
          "type": "uint256"
        }
      ],
      "stateMutability": "view",
      "type": "function"
    },
    {
      "inputs": [
        {
          "internalType": "uint256",
          "name": "",
          "type": "uint256"
        }
      ],
      "name": "matchIds",
      "outputs": [
        {
          "internalType": "uint256",
          "name": "",
          "type": "uint256"
        }
      ],
      "stateMutability": "view",
      "type": "function"
    },
    {
      "inputs": [
        {
          "internalType": "uint256",
          "name": "",
          "type": "uint256"
        }
      ],
      "name": "matches",
      "outputs": [
        {
          "internalType": "uint256",
          "name": "id",
          "type": "uint256"
        },
        {
          "internalType": "string",
          "name": "homeTeam",
          "type": "string"
        },
        {
          "internalType": "string",
          "name": "awayTeam",
          "type": "string"
        },
        {
          "internalType": "uint256",
          "name": "matchDate",
          "type": "uint256"
        },
        {
          "internalType": "uint8",
          "name": "result",
          "type": "uint8"
        },
        {
          "internalType": "uint256",
          "name": "homeOdds",
          "type": "uint256"
        },
        {
          "internalType": "uint256",
          "name": "drawOdds",
          "type": "uint256"
        },
        {
          "internalType": "uint256",
          "name": "awayOdds",
          "type": "uint256"
        }
      ],
      "stateMutability": "view",
      "type": "function"
    },
    {
      "inputs": [],
      "name": "matchesSourceCode",
      "outputs": [
        {
          "internalType": "string",
          "name": "",
          "type": "string"
        }
      ],
      "stateMutability": "view",
      "type": "function"
    },
    {
      "inputs": [],
      "name": "owner",
      "outputs": [
        {
          "internalType": "address",
          "name": "",
          "type": "address"
        }
      ],
      "stateMutability": "view",
      "type": "function"
    },
    {
      "inputs": [
        {
          "internalType": "string",
          "name": "matchStr",
          "type": "string"
        }
      ],
      "name": "parseMatchSafe",
      "outputs": [
        {
          "internalType": "uint256",
          "name": "id",
          "type": "uint256"
        },
        {
          "internalType": "string",
          "name": "homeTeam",
          "type": "string"
        },
        {
          "internalType": "string",
          "name": "awayTeam",
          "type": "string"
        },
        {
          "internalType": "uint256",
          "name": "homeOdds",
          "type": "uint256"
        },
        {
          "internalType": "uint256",
          "name": "drawOdds",
          "type": "uint256"
        },
        {
          "internalType": "uint256",
          "name": "awayOdds",
          "type": "uint256"
        }
      ],
      "stateMutability": "pure",
      "type": "function"
    },
    {
      "inputs": [
        {
          "internalType": "bytes",
          "name": "performData",
          "type": "bytes"
        }
      ],
      "name": "performUpkeep",
      "outputs": [],
      "stateMutability": "nonpayable",
      "type": "function"
    },
    {
      "inputs": [
        {
          "internalType": "uint256",
          "name": "matchId",
          "type": "uint256"
        },
        {
          "internalType": "uint8",
          "name": "prediction",
          "type": "uint8"
        },
        {
          "internalType": "uint256",
          "name": "amount",
          "type": "uint256"
        }
      ],
      "name": "placeBet",
      "outputs": [],
      "stateMutability": "nonpayable",
      "type": "function"
    },
    {
      "inputs": [],
      "name": "renounceOwnership",
      "outputs": [],
      "stateMutability": "nonpayable",
      "type": "function"
    },
    {
      "inputs": [],
      "name": "requestInterval",
      "outputs": [
        {
          "internalType": "uint256",
          "name": "",
          "type": "uint256"
        }
      ],
      "stateMutability": "view",
      "type": "function"
    },
    {
      "inputs": [],
      "name": "requestMatches",
      "outputs": [],
      "stateMutability": "nonpayable",
      "type": "function"
    },
    {
      "inputs": [
        {
          "internalType": "bytes32",
          "name": "",
          "type": "bytes32"
        }
      ],
      "name": "requestToMatchId",
      "outputs": [
        {
          "internalType": "uint256",
          "name": "",
          "type": "uint256"
        }
      ],
      "stateMutability": "view",
      "type": "function"
    },
    {
      "inputs": [
        {
          "internalType": "bytes32",
          "name": "",
          "type": "bytes32"
        }
      ],
      "name": "requestType",
      "outputs": [
        {
          "internalType": "bool",
          "name": "",
          "type": "bool"
        }
      ],
      "stateMutability": "view",
      "type": "function"
    },
    {
      "inputs": [],
      "name": "resetLastRequestTime",
      "outputs": [],
      "stateMutability": "nonpayable",
      "type": "function"
    },
    {
      "inputs": [],
      "name": "resultsSourceCode",
      "outputs": [
        {
          "internalType": "string",
          "name": "",
          "type": "string"
        }
      ],
      "stateMutability": "view",
      "type": "function"
    },
    {
      "inputs": [],
      "name": "secretsLocation",
      "outputs": [
        {
          "internalType": "uint8",
          "name": "",
          "type": "uint8"
        }
      ],
      "stateMutability": "view",
      "type": "function"
    },
    {
      "inputs": [
        {
          "internalType": "string",
          "name": "source",
          "type": "string"
        }
      ],
      "name": "setMatchesSource",
      "outputs": [],
      "stateMutability": "nonpayable",
      "type": "function"
    },
    {
      "inputs": [
        {
          "internalType": "uint256",
          "name": "_interval",
          "type": "uint256"
        }
      ],
      "name": "setRequestInterval",
      "outputs": [],
      "stateMutability": "nonpayable",
      "type": "function"
    },
    {
      "inputs": [
        {
          "internalType": "string",
          "name": "source",
          "type": "string"
        }
      ],
      "name": "setResultsSource",
      "outputs": [],
      "stateMutability": "nonpayable",
      "type": "function"
    },
    {
      "inputs": [
        {
          "internalType": "uint8",
          "name": "_location",
          "type": "uint8"
        },
        {
          "internalType": "bytes",
          "name": "_reference",
          "type": "bytes"
        }
      ],
      "name": "setSecretsReference",
      "outputs": [],
      "stateMutability": "nonpayable",
      "type": "function"
    },
    {
      "inputs": [],
      "name": "subscriptionId",
      "outputs": [
        {
          "internalType": "uint64",
          "name": "",
          "type": "uint64"
        }
      ],
      "stateMutability": "view",
      "type": "function"
    },
    {
      "inputs": [
        {
          "internalType": "address",
          "name": "newOwner",
          "type": "address"
        }
      ],
      "name": "transferOwnership",
      "outputs": [],
      "stateMutability": "nonpayable",
      "type": "function"
    },
    {
      "inputs": [],
      "name": "usdt",
      "outputs": [
        {
          "internalType": "contract USDT",
          "name": "",
          "type": "address"
        }
      ],
      "stateMutability": "view",
      "type": "function"
    }
  ],
  "bytecode": "0x60a03461017957601f613b1938819003918201601f19168301916001600160401b0383118484101761017d5780849260c0946040528339810103126101795761004781610191565b6020820151906001600160401b03821682036101795760408301519061006f60608501610191565b9361008860a061008160808401610191565b9201610191565b6001600160a01b039283166080525f8054336001600160a01b031982168117835560405198939590929116907f8be0079c531659141344cd1fd0a4f28419497f9722a3daafe3b4186f6b6457e09080a36005805463ffffffff1916620493e0179055600a600d5560038054600495909555600180546001600160a01b03199081166001600160a01b039485161790915560028054909116938316939093179092556001600160e01b031990931660a09490941b600160a01b600160e01b0316939093179116179055600e805460ff191660ff17905561397390816101a68239608051818181610613015261297f0152f35b5f80fd5b634e487b7160e01b5f52604160045260245ffd5b51906001600160a01b03821682036101795756fe60806040526004361015610011575f80fd5b5f3560e01c806309c1ba2e146102345780630af8a5b01461022f5780630ca761751461022a5780630e599a73146102255780632f48ab7d1461022057806336ff6a701461021b5780633f6abd8f1461021657806341c512ad1461021157806343425e881461020c57806344af6819146102075780634585e33b146102025780634768d4ef146101fd5780634b40a275146101f857806352d6af9e146101f3578063536f6070146101ee5780636d78dc9c146101e95780636e04ff0d146101e4578063715018a6146101df57806387cad4cd146101da5780638c640f0c146101d55780638da5cb5b146101d05780638dbe7b9d146101cb57806395ce3e93146101c6578063996d0b54146101c1578063a197317e146101bc578063ae169a50146101b7578063b3a80ec7146101b2578063cc0e597c146101ad578063cdc634f1146101a8578063d8c73d46146101a3578063da866c481461019e578063e7b33f9714610199578063f2fde38b146101945763f68016b71461018f575f80fd5b611731565b611663565b61162a565b611465565b6112e9565b6112c3565b611147565b610ff3565b610dc2565b610da7565b610d78565b610d55565b610d38565b610d11565b610c1e565b610bb9565b610b62565b610a3a565b6109f8565b6109b1565b610994565b610977565b61090f565b610825565b6107a9565b610781565b610763565b610749565b6106f9565b6106a0565b610680565b6105bf565b610510565b3461025d575f36600319011261025d5760206001600160401b0360035460a01c16604051908152f35b5f80fd5b90600182811c9216801561028f575b602083101461027b57565b634e487b7160e01b5f52602260045260245ffd5b91607f1691610270565b634e487b7160e01b5f52604160045260245ffd5b604081019081106001600160401b038211176102c857604052565b610299565b90601f801991011681019081106001600160401b038211176102c857604052565b604051905f826007549161030183610261565b80835292600181169081156103865750600114610327575b610325925003836102cd565b565b5060075f90815290917fa66cc928b5edb82af9bd49922954155ab7b0942694bea4ce44661d9a8736c6885b81831061036a57505090602061032592820101610319565b6020919350806001915483858901015201910190918492610352565b6020925061032594915060ff191682840152151560051b820101610319565b604051905f82600654916103b883610261565b808352926001811690811561038657506001146103db57610325925003836102cd565b5060065f90815290917ff652222313e28459528d920b65115c16c04f3efc82aaedc97be59f3f377c0d3f5b81831061041e57505090602061032592820101610319565b6020919350806001915483858901015201910190918492610406565b9060405191825f82549261044d84610261565b80845293600181169081156104b65750600114610472575b50610325925003836102cd565b90505f9291925260205f20905f915b81831061049a575050906020610325928201015f610465565b6020919350806001915483858901015201910190918492610481565b90506020925061032594915060ff191682840152151560051b8201015f610465565b805180835260209291819084018484015e5f828201840152601f01601f1916010190565b90602061050d9281815201906104d8565b90565b3461025d575f36600319011261025d5761053f61052b6102ee565b6040519182916020835260208301906104d8565b0390f35b60405190610325610100836102cd565b6001600160401b0381116102c857601f01601f191660200190565b92919261057a82610553565b9161058860405193846102cd565b82948184528183011161025d578281602093845f960137010152565b9080601f8301121561025d5781602061050d9335910161056e565b3461025d57606036600319011261025d576004356024356001600160401b03811161025d576105f29036906004016105a4565b6044356001600160401b03811161025d576106119036906004016105a4565b7f00000000000000000000000000000000000000000000000000000000000000006001600160a01b031633036106715761064b918361209b565b7f85e1543bf2f84fe80c6badbce3648c8539ad1df4d2b3d822938ca0538be727e65f80a2005b63c6829f8360e01b5f5260045ffd5b3461025d575f36600319011261025d57602060ff600e5416604051908152f35b3461025d575f36600319011261025d576003546040516001600160a01b039091168152602090f35b634e487b7160e01b5f52603260045260245ffd5b6009548110156106f45760095f5260205f2001905f90565b6106c8565b3461025d57602036600319011261025d5760043560095481101561025d5760209060095f527f6e1540171b6c0c960b71a7020d9f60077f6af931a8bbf590da0223dacf75c7af0154604051908152f35b3461025d575f36600319011261025d57610761611867565b005b3461025d575f36600319011261025d5761077b6129ff565b5f600c55005b3461025d575f36600319011261025d576001546040516001600160a01b039091168152602090f35b3461025d57602036600319011261025d576004356107c56129ff565b600d55005b9181601f8401121561025d578235916001600160401b03831161025d576020838186019501011161025d57565b602060031982011261025d57600435906001600160401b03821161025d57610821916004016107ca565b9091565b3461025d576040610835366107f7565b908092918101031261025d5760ff6020823592610851846112de565b0135911680610864575061076190612b1e565b600191501461086f57005b6009545f60095580610885575b50610761611867565b60095f526108b7907f6e1540171b6c0c960b71a7020d9f60077f6af931a8bbf590da0223dacf75c7af90810190611a08565b5f61087c565b949060e096936108e760ff946108f5939c9b9a979c895261010060208a01526101008901906104d8565b9087820360408901526104d8565b98606086015216608084015260a083015260c08201520152565b3461025d57602036600319011261025d576004355f52600860205260405f20805461053f61093f6001840161043a565b9261094c6002820161043a565b90600381015460ff6004830154166005830154916007600685015494015494604051988998896108bd565b3461025d575f36600319011261025d576020600954604051908152f35b3461025d575f36600319011261025d576020600c54604051908152f35b3461025d575f36600319011261025d576020600d54604051908152f35b602060031982011261025d57600435906001600160401b03821161025d5761050d916004016105a4565b3461025d576020610a19610a0b366109ce565b828082518301019101611a1e565b604051908152f35b60409061050d93921515815281602082015201906104d8565b3461025d57610a48366107f7565b50505f6060905f600954905b818110610aba575b50508015610a74575b61053f60405192839283610a21565b610a83600c54600d54906117dd565b4210610a655750506001604051610ab481610aa660208201906001602083019252565b03601f1981018352826102cd565b90610a65565b610ad0610ac6826106dc565b90549060031b1c90565b610af8610af26004610aea845f52600860205260405f2090565b015460ff1690565b60ff1690565b1580610b3c575b610b0c5750600101610a54565b9350505050610aa6610b34600192604051928391602083019190602060408401935f81520152565b905f80610a5c565b50610b5b6003610b54835f52600860205260405f2090565b01546117ad565b4211610aff565b3461025d575f36600319011261025d57610b7a6129ff565b5f80546001600160a01b0319811682556001600160a01b03167f8be0079c531659141344cd1fd0a4f28419497f9722a3daafe3b4186f6b6457e08280a3005b3461025d57602036600319011261025d576004355f52600a602052602060405f2054604051908152f35b602060031982011261025d57600435906001600160401b03821161025d578060238301121561025d5781602461050d9360040135910161056e565b3461025d57610c2c36610be3565b610c346129ff565b80516001600160401b0381116102c857610c5881610c53600754610261565b611a2d565b602091601f8211600114610c9657610c86925f9183610c8b575b50508160011b915f199060031b1c19161790565b600755005b015190505f80610c72565b60075f52601f198216927fa66cc928b5edb82af9bd49922954155ab7b0942694bea4ce44661d9a8736c688915f5b858110610cf957508360019510610ce1575b505050811b01600755005b01515f1960f88460031b161c191690555f8080610cd6565b91926020600181928685015181550194019201610cc4565b3461025d575f36600319011261025d575f546040516001600160a01b039091168152602090f35b3461025d575f36600319011261025d576020600454604051908152f35b3461025d5761053f61052b610d69366109ce565b60208082518301019101611c1d565b3461025d57602036600319011261025d576004355f52600b602052602060ff60405f2054166040519015158152f35b3461025d575f36600319011261025d5761053f61052b6103a5565b3461025d57602036600319011261025d57600435600254610df3906001600160a01b03165b6001600160a01b031690565b6040516331a9108f60e11b815260048101839052602081602481855afa8015610f3e57610e32915f91610f85575b506001600160a01b03163314611c62565b604051630efbf52960e01b8152600481018390529060a090829060249082905afa908115610f3e57610e84915f5f915f935f905f92610f43575b5090610e7a610e7f92611ce6565b611d25565b612c2b565b600354610e99906001600160a01b0316610de7565b60405163a9059cbb60e01b8152336004820152602481018390529290602090849060449082905f905af1928315610f3e577fe1b4cc7b572a56466df9203312ded49052ff26393efd614a3f8658c98ec0fc3893610f11575b50604080519182526001602083015281019190915280606081015b0390a1005b610f329060203d602011610f37575b610f2a81836102cd565b810190611d5f565b610ef1565b503d610f20565b611c57565b915050610e7a9350610e7f9250610f72915060a03d60a011610f7e575b610f6a81836102cd565b810190611cab565b91959294509091610e6c565b503d610f60565b610fa7915060203d602011610fad575b610f9f81836102cd565b810190611c42565b5f610e21565b503d610f95565b92610fd660a09598979693610fe493865260c0602087015260c08601906104d8565b9084820360408601526104d8565b95606083015260808201520152565b3461025d5761100136610be3565b5f5f5b825181101561113957601d60f91b61103d61103061102284876124e3565b516001600160f81b03191690565b6001600160f81b03191690565b1461104a57600101611004565b611086915061107890925b61107061106a61106586846130de565b61324a565b946117c1565b8151916131cb565b611080612ceb565b90612d4e565b906003825110155f146111155761053f6110a86110a284611eee565b516132e4565b909360056110b582611efb565b51511115611106576110f76110a26110f16110ec6110d285611efb565b516110e66110df87611efb565b51516124f4565b90613148565b613354565b92611f0b565b92905b60405196879687610fb4565b6110f76110a261012c92611f0b565b905061111f612d0a565b9061053f61112b612d2c565b609661012c9060dc926110fa565b509061107861108691611055565b3461025d5761115536610be3565b61115d6129ff565b80516001600160401b0381116102c8576111818161117c600654610261565b611a70565b602091601f82116001146111b3576111ae925f9183610c8b5750508160011b915f199060031b1c19161790565b600655005b60065f52601f198216927ff652222313e28459528d920b65115c16c04f3efc82aaedc97be59f3f377c0d3f915f5b858110611216575083600195106111fe575b505050811b01600655005b01515f1960f88460031b161c191690555f80806111f3565b919260206001819286850151815501940192016111e1565b604051905f82600f549161124183610261565b8083529260018116908115610386575060011461126457610325925003836102cd565b50600f5f90815290917f8d1108e10bcb7c27dddfc02ed9d693a074039d026cf4ea4240b40f7d581ac8025b8183106112a757505090602061032592820101610319565b602091935080600191548385890101520191019091849261128f565b3461025d575f36600319011261025d5761053f61052b61122e565b60ff81160361025d57565b3461025d57604036600319011261025d57600435611306816112de565b6024356001600160401b03811161025d5761132760ff9136906004016107ca565b9190926113326129ff565b1660ff81116114205760ff19600e541617600e556001600160401b0381116102c85761136881611363600f54610261565b611aa8565b5f601f82116001146113a4578190611394935f926113995750508160011b915f199060031b1c19161790565b600f55005b013590505f80610c72565b600f5f52601f198216927f8d1108e10bcb7c27dddfc02ed9d693a074039d026cf4ea4240b40f7d581ac802915f5b858110611408575083600195106113ef575b505050811b01600f55005b01355f19600384901b60f8161c191690555f80806113e4565b909260206001819286860135815501940191016113d2565b60405162461bcd60e51b815260206004820152601860248201527f496e76616c69642073656372657473206c6f636174696f6e00000000000000006044820152606490fd5b3461025d57606036600319011261025d57602435600435611485826112de565b604435916114a661149e835f52600860205260405f2090565b541515611d73565b6114c960ff6114c26004610aea865f52600860205260405f2090565b1615611db6565b6114d9600260ff83161115611dfb565b6003546114ee906001600160a01b0316610de7565b6040516323b872dd60e01b81523360048201523060248201526044810185905290602090829060649082905f905af18015610f3e5761160d575b5060025461153e906001600160a01b0316610de7565b604051633a3446df60e21b81523360048201526024810184905260ff83166044820152606481018590529390602090859060849082905f905af1908115610f3e577f11d02810c631c72400f6f1739955999911bdcec8c268889873bcfb0dd64b94ba945f926115da575b5060408051338152602081019390935282019390935260ff909116606082015260808101919091528060a08101610f0c565b610f0c92506116009060203d602011611606575b6115f881836102cd565b810190611a1e565b916115a8565b503d6115ee565b6116259060203d602011610f3757610f2a81836102cd565b611528565b3461025d575f36600319011261025d576002546040516001600160a01b039091168152602090f35b6001600160a01b0381160361025d57565b3461025d57602036600319011261025d5760043561168081611652565b6116886129ff565b6001600160a01b038116156116dd575f80546001600160a01b039283166001600160a01b03198216811783559216907f8be0079c531659141344cd1fd0a4f28419497f9722a3daafe3b4186f6b6457e09080a3005b60405162461bcd60e51b815260206004820152602660248201527f4f776e61626c653a206e6577206f776e657220697320746865207a65726f206160448201526564647265737360d01b6064820152608490fd5b3461025d575f36600319011261025d57602063ffffffff60055416604051908152f35b1561175b57565b60405162461bcd60e51b815260206004820152601660248201527513585d18da195cc81cdbdd5c98d9481b9bdd081cd95d60521b6044820152606490fd5b634e487b7160e01b5f52601160045260245ffd5b90611c2082018092116117bc57565b611799565b90600182018092116117bc57565b90602082018092116117bc57565b919082018092116117bc57565b156117f157565b60405162461bcd60e51b81526020600482015260086024820152672a37b79039b7b7b760c11b6044820152606490fd5b6040519060e082018281106001600160401b038211176102c857604052606060c0835f81525f60208201525f604082015282808201528260808201528260a08201520152565b61187c611875600654610261565b1515611754565b61189661188e600c54600d54906117dd565b4210156117ea565b6119336119266119186118f66118aa611821565b6118bb6118b56103a5565b82612e63565b60ff6118c9600e5460ff1690565b1680158061196e575b1561193c57506118f16118eb6118e661122e565b61251f565b826125c5565b61275f565b60035460a01c6001600160401b031660055463ffffffff169060045492612928565b5f52600b60205260405f2090565b805460ff19166001179055565b61032542600c55565b6001148061195b575b1561275f576118f161195561122e565b826124c0565b50611967600f54610261565b1515611945565b5061197a600f54610261565b15156118d2565b90620151808202918083046201518014901517156117bc57565b600381901b91906001600160fd1b038116036117bc57565b90600a820291808304600a14901517156117bc57565b906064820291808304606414901517156117bc57565b908160011b91808304600214901517156117bc57565b818102929181159184041417156117bc57565b818110611a13575050565b5f8155600101611a08565b9081602091031261025d575190565b90601f8211611a3a575050565b6103259160075f5260205f20906020601f840160051c83019310611a66575b601f0160051c0190611a08565b9091508190611a59565b90601f8211611a7d575050565b6103259160065f5260205f20906020601f840160051c83019310611a6657601f0160051c0190611a08565b90601f8211611ab5575050565b61032591600f5f5260205f20906020601f840160051c83019310611a6657601f0160051c0190611a08565b9190601f8111611aef57505050565b610325925f5260205f20906020601f840160051c83019310611a6657601f0160051c0190611a08565b91909182516001600160401b0381116102c857611b3f81611b398454610261565b84611ae0565b6020601f8211600114611b72578190611b6e9394955f92610c8b5750508160011b915f199060031b1c19161790565b9055565b601f19821690611b85845f5260205f2090565b915f5b818110611bbf57509583600195969710611ba7575b505050811b019055565b01515f1960f88460031b161c191690555f8080611b9d565b9192602060018192868b015181550194019201611b88565b81601f8201121561025d57805190611bee82610553565b92611bfc60405194856102cd565b8284526020838301011161025d57815f9260208093018386015e8301015290565b9060208282031261025d5781516001600160401b03811161025d5761050d9201611bd7565b9081602091031261025d575161050d81611652565b6040513d5f823e3d90fd5b15611c6957565b60405162461bcd60e51b815260206004820152600d60248201526c2737ba103a34329037bbb732b960991b6044820152606490fd5b5190811515820361025d57565b908160a091031261025d578051916020820151611cc7816112de565b9160408101519161050d6080611cdf60608501611c9e565b9301611c9e565b15611ced57565b60405162461bcd60e51b815260206004820152601060248201526f10995d081b9bdd081c995cdbdb1d995960821b6044820152606490fd5b15611d2c57565b60405162461bcd60e51b815260206004820152600b60248201526a2132ba103737ba103bb7b760a91b6044820152606490fd5b9081602091031261025d5761050d90611c9e565b15611d7a57565b60405162461bcd60e51b815260206004820152601460248201527313585d18da08191bd95cc81b9bdd08195e1a5cdd60621b6044820152606490fd5b15611dbd57565b60405162461bcd60e51b815260206004820152601660248201527513585d18da08185b1c9958591e481c995cdbdb1d995960521b6044820152606490fd5b15611e0257565b60405162461bcd60e51b815260206004820152601260248201527124b73b30b634b210383932b234b1ba34b7b760711b6044820152606490fd5b60405190611e4b6040836102cd565b600a8252694e4f5f4d41544348455360b01b6020830152565b6001600160401b0381116102c85760051b60200190565b60405190611e8a6020836102cd565b5f808352366020840137565b60206040818301928281528451809452019201905f5b818110611eb95750505090565b8251845260209384019390920191600101611eac565b60405190611ede6040836102cd565b60018252601f60fa1b6020830152565b8051156106f45760200190565b8051600110156106f45760400190565b8051600210156106f45760600190565b80518210156106f45760209160051b010190565b60c08183031261025d5780519260208201516001600160401b03811161025d5783611f5b918401611bd7565b926040830151906001600160401b03821161025d57611f7b918401611bd7565b9160608101519160a0608083015192015190565b9060e060079180518455611faa602082015160018601611b18565b611fbb604082015160028601611b18565b60608101516003850155611fe360ff608083015116600486019060ff1660ff19825416179055565b60a0810151600585015560c081015160068501550151910155565b600954680100000000000000008110156102c857600181016009556009548110156106f45760095f527f6e1540171b6c0c960b71a7020d9f60077f6af931a8bbf590da0223dacf75c7af0155565b5f1981146117bc5760010190565b6040602082019160208152600954809352019060095f5260205f20905f5b8181106120855750505090565b8254845260209093019260019283019201612078565b91805161246a57506120bf6120b8835f52600b60205260405f2090565b5460ff1690565b15612395575f6120e391604051809381926395ce3e9360e01b8352600483016104fc565b0381305afa5f9181612371575b5061215c57507f31382cf5ac23d51290b15fd9186508d184cea0cdf3d4f969c0289e39b82c34e3604051806121578160609060208152601960208201527f4661696c656420746f206465636f646520726573706f6e73650000000000000060408201520190565b0390a2565b905080518015908115612354575b5061231b5761217b90611080611ecf565b5f905f5b81518110156122e5576121928183611f1b565b51516121a3575b6001905b0161217f565b6121cc5f6121b18385611f1b565b516040518093819263b3a80ec760e01b8352600483016104fc565b0381305afa905f915f915f5f90835f935f956122b4575b506121f65750505050505060019061219d565b851515806122aa575b806122a0575b612215575b505050505050612199565b9361228f93612294969361228a938b9761224261223c61223760019d9f6117c1565b611981565b426117dd565b9061224b610543565b958887526020870152604086015260608501525f608085015260a084015260c083015260e0820152612285835f52600860205260405f2090565b611f8f565b611ffe565b61204c565b92905f8080808061220a565b5080511515612205565b50845115156121ff565b945095505050506122d791503d805f833e6122cf81836102cd565b810190611f2f565b94959394939092905f6121e3565b5050507fc8ebec3ee270205e821a96d947158a7e7fe9df1ac520c2c8ae231a90978c8bdb604051806123168161205a565b0390a1565b507fc8ebec3ee270205e821a96d947158a7e7fe9df1ac520c2c8ae231a90978c8bdb612316612348611e7b565b60405191829182611e96565b90506020820120612363611e3c565b60208151910120145f61216a565b61238e9192503d805f833e61238681836102cd565b810190611c1d565b905f6120f0565b9060206123b69260405180948192631b5e372760e21b8352600483016104fc565b0381305afa5f9281612449575b506123cc575050565b60ff6124027f1e64e9780c0a892267b8ddd6e87d3c74446a01c70ecb6d6ac1f60ab6175e9c0b93925f52600a60205260405f2090565b5491169061242e82600461241e845f52600860205260405f2090565b019060ff1660ff19825416179055565b6040805191825260ff90921660208201529081908101612316565b61246391935060203d602011611606576115f881836102cd565b915f6123c3565b7f31382cf5ac23d51290b15fd9186508d184cea0cdf3d4f969c0289e39b82c34e3915061215790604051918291826104fc565b634e487b7160e01b5f52602160045260245ffd5b600311156124bb57565b61249d565b8151156124d4576001602082015260800152565b63e889636f60e01b5f5260045ffd5b9081518110156106f4570160200190565b5f198101919082116117bc57565b60070390600782116117bc57565b601f198101919082116117bc57565b90600882511061258957905f905f5b6008811061253b57505090565b90929160019061257d61255b610af261255486896124e3565b5160f81c90565b61256c61256786612502565b61199b565b6001600160401b03809216901b1690565b1791019290919261252e565b60405162461bcd60e51b8152602060048201526014602482015273092dcecc2d8d2c840c4f2e8cae640d8cadccee8d60631b6044820152606490fd5b906080906126386125d4612ea1565b91612632604061260281516125e983826102cd565b60068152651cdb1bdd125160d21b602082015286612ed1565b61260c5f8661343b565b612618815191826102cd565b60078152663b32b939b4b7b760c91b602082015284612ed1565b8261343b565b600260208401525151910152565b604051906126556040836102cd565b600c82526b31b7b232a637b1b0ba34b7b760a11b6020830152565b6040519061267f6040836102cd565b60088252676c616e677561676560c01b6020830152565b600111156124bb57565b604051906126af6040836102cd565b6006825265736f7572636560d01b6020830152565b604051906126d36040836102cd565b60048252636172677360e01b6020830152565b604051906126f56040836102cd565b600f82526e39b2b1b932ba39a637b1b0ba34b7b760891b6020830152565b604051906127226040836102cd565b60078252667365637265747360c81b6020830152565b604051906127476040836102cd565b600982526862797465734172677360b81b6020830152565b612767612ea1565b90612779612773612646565b83612ed1565b6127968151612787816124b1565b612790816124b1565b83612fb8565b6127a1612773612670565b6127bb60408201516127b281612696565b61279081612696565b6127c66127736126a0565b6127d4606082015183612ed1565b60a081018051516128d0575b506080810190815151612853575b60c0915001805151612801575b50515190565b9161280d612773612738565b61281682612fe5565b5f5b83518051821015612840579061283a61283382600194611f1b565b5185613029565b01612818565b5050915061284d81613007565b5f6127fb565b602081018051612862816124b1565b61286b816124b1565b156128c15760c0926128a46128bc9261288b6128856126e6565b88612ed1565b51612895816124b1565b61289e816124b1565b86612fb8565b6128b56128af612713565b86612ed1565b5184613029565b6127ee565b63a80d31f760e01b5f5260045ffd5b926128e26128dc6126c4565b84612ed1565b6128eb83612fe5565b5f5b84518051821015612915579061290f61290882600194611f1b565b5186612ed1565b016128ed565b5050925061292282613007565b5f6127e0565b92906020926001600160401b039263ffffffff612967604051978896879663230e93b160e11b885216600487015260a0602487015260a48601906104d8565b6001604486015292166064840152608483015203815f7f00000000000000000000000000000000000000000000000000000000000000006001600160a01b03165af1908115610f3e575f916129e0575b50807f1131472297a800fee664d1d89cfa8f7676ff07189ecc53f80bbb5f4969099db85f80a290565b6129f9915060203d602011611606576115f881836102cd565b5f6129b7565b5f546001600160a01b03163303612a1257565b606460405162461bcd60e51b815260206004820152602060248201527f4f776e61626c653a2063616c6c6572206973206e6f7420746865206f776e65726044820152fd5b15612a5d57565b60405162461bcd60e51b815260206004820152601660248201527514995cdd5b1d1cc81cdbdd5c98d9481b9bdd081cd95d60521b6044820152606490fd5b60408051909190612aac83826102cd565b6001815291601f1901825f5b828110612ac457505050565b806060602080938501015201612ab8565b90612adf82611e64565b612aec60405191826102cd565b8281528092612afd601f1991611e64565b01905f5b828110612b0d57505050565b806060602080938501015201612b01565b612bdd61032591612b3a612b33600754610261565b1515612a56565b612bbb6118f6612b48611821565b612b536118b56102ee565b60ff612b61600e5460ff1690565b16801580612c18575b15612be75750612b7e6118eb6118e661122e565b6118f1612b89612a9b565b604051612ba181610aa6896020830160209181520190565b612baa82611eee565b52612bb481611eee565b50826130c2565b90612bce825f52600a60205260405f2090565b555f52600b60205260405f2090565b805460ff19169055565b60011480612c05575b15612b7e57612c0061195561122e565b612b7e565b50612c11600f54610261565b1515612bf0565b50612c24600f54610261565b1515612b6a565b91612cca9161050d935f52600860205260405f2060e060ff612c4b610543565b9383548552612c5c6001850161043a565b6020860152612c6d6002850161043a565b604086015260038401546060860152612c97612c8d600486015460ff1690565b60ff166080870152565b6005840154948560a082015260076006860154958660c0840152015493849101521680155f14612cd157505050906119f5565b6064900490565b91925090600103612ce35750906119f5565b9050906119f5565b60405190612cfa6040836102cd565b60018252602d60f81b6020830152565b60405190612d196040836102cd565b6004825263486f6d6560e01b6020830152565b60405190612d3b6040836102cd565b60048252634177617960e01b6020830152565b9190916001905f5b8151811015612da957612d6c61102282846124e3565b612d7b61103061102288611eee565b6001600160f81b031990911614612d95575b600101612d56565b91612da160019161204c565b929050612d8d565b5090612db490612ad5565b925f905f905f5b8451811015612e3957612dd161102282876124e3565b612de061103061102285611eee565b6001600160f81b031990911614612dfa575b600101612dbb565b929183612e0791866131cb565b612e118388611f1b565b52612e1c8287611f1b565b506001612e31612e2b856117c1565b9361204c565b939050612df2565b5050612e5f92612e4e919594958151916131cb565b612e588285611f1b565b5282611f1b565b5090565b815115612e79575f808252604082015260600152565b6322ce3edd60e01b5f5260045ffd5b60405190612e95826102ad565b5f602083606081520152565b604051612ead816102ad565b5f612eb6612e88565b808352612ecc61010060208501928484526133ea565b505290565b8151612f209291906001600160401b031660178111612f23578151612f0b91612f0590612efe6060610af2565b1760ff1690565b90613617565b505b5190612f17612e88565b50805191613881565b50565b60ff8111612f50578151612f4a9190612f4290601860605b1790613617565b508251613801565b50612f0d565b61ffff8111612f75578151612f4a9190612f6d9060196060612f3b565b508251613788565b63ffffffff8111612f9c578151612f4a9190612f9490601a6060612f3b565b50825161370f565b8151612f4a9190612fb090601b6060612f3b565b508251613691565b9061032591612fc781516135a7565b5060405191602083015260208252612fe06040836102cd565b613029565b602090612ff4609f8251613617565b5001805190600182018092116117bc5752565b60209061301660ff8251613617565b500180515f198101919082116117bc5752565b8151612f209291906001600160401b031660178111613056578151612f0b91612f0590612efe6040610af2565b60ff8111613072578151612f4a9190612f429060186040612f3b565b61ffff811161308f578151612f4a9190612f6d9060196040612f3b565b63ffffffff81116130ae578151612f4a9190612f9490601a6040612f3b565b8151612f4a9190612fb090601b6040612f3b565b8151156130cf5760a00152565b63fe936cb760e01b5f5260045ffd5b91906130e981610553565b906130f760405192836102cd565b808252601f1961310682610553565b013660208401375f5b81811061311d575090925050565b6001906001600160f81b031961313382886124e3565b51165f1a61314182866124e3565b530161310f565b600419820191908183116117bc5761315f83610553565b9261316d60405194856102cd565b80845261317c601f1991610553565b0136602085013760055b8281106131935750505090565b6001600160f81b03196131a682846124e3565b51169060041981018181116117bc576131c46001935f1a91876124e3565b5301613186565b91818103928184116117bc576131e084610553565b936131ee60405195866102cd565b8085526131fd601f1991610553565b01366020860137825b828110613214575050505090565b6001600160f81b031961322782846124e3565b5116908481038181116117bc576132436001935f1a91886124e3565b5301613206565b5f9190825b81518410156132df57602f1961326585846124e3565b5160f81c0160ff81116117bc5760ff16906009821161329a5760019161328d613292926119b3565b6117dd565b93019261324f565b60405162461bcd60e51b815260206004820152601b60248201527f496e76616c69642063686172616374657220696e206e756d62657200000000006044820152606490fd5b925050565b905f905f5b835181101561334d57600560fb1b6001600160f81b031961330a83876124e3565b511614613319576001016132e9565b9091505b61332781846130de565b92600182018092116117bc5780515f1981019081116117bc5761050d926110ec926131cb565b509061331d565b5f9081805b82518110156133e2576001600160f81b031961337582856124e3565b511660ff60f81b16601760f91b1461338f57600101613359565b9192505060015b156133d05761328d6133ca6133c46133be856110706133b88761050d996130de565b966117c1565b9361324a565b9261324a565b916119c9565b506133dd61050d9161324a565b6119c9565b509091613396565b906133f3612e88565b50601f811680613421575b50806020830152604051908183525f8252810160200190811061025d5760405290565b602003602081116117bc5781018091116117bc575f6133fe565b906001600160401b0381166017811161346257509051612f2091612f0590612efe5f610af2565b905060ff8111613486578151612f20929061347f9060185f612f3b565b5051613801565b61ffff81116134a9578151612f2092906134a29060195f612f3b565b5051613788565b63ffffffff81116134ce578151612f2092906134c790601a5f612f3b565b505161370f565b8151612f2092906134e190601b5f612f3b565b5051613691565b906134f1612e88565b5080516134fc612e88565b5061350a825182111561387a565b8251519161351882846117dd565b9060208501518211613590575b602091855183815196820101958211613588575b505001905b6020811015613562575f19906020036101000a019081199051169082511617905290565b909161357d61357761358392855181526117cf565b936117cf565b91612510565b61353e565b525f80613539565b6135a261359c836119df565b86613926565b613525565b6135af612e88565b5080515160018101908181116117bc5760208301518110156135e8575b60c2602084519283010153805182116135e457505090565b5290565b8160011b828104600214831517156117bc576136119061360a855191866133ea565b50846134e8565b506135cc565b90613620612e88565b5081515160018101918282116117bc576020840151821015613653575b602084519283010153805182116135e457505090565b8260011b838104600214841517156117bc5761367c90613675865191876133ea565b50856134e8565b5061363d565b601f81116117bc576101000a90565b9061369a612e88565b508151518060080191826008116117bc57602084015183116136e7575b6136c96136c46008613682565b6124f4565b9060088551938401019119825116179052805182116135e457505090565b8260011b838104600214841517156117bc5761370990613675865191876133ea565b506136b7565b90613718612e88565b508151518060040191826004116117bc5760208401518311613760575b6137426136c46004613682565b9060048551938401019119825116179052805182116135e457505090565b8260011b838104600214841517156117bc5761378290613675865191876133ea565b50613735565b90613791612e88565b508151518060020191826002116117bc57602084015183116137d9575b6137bb6136c46002613682565b9060028551938401019119825116179052805182116135e457505090565b8260011b838104600214841517156117bc576137fb90613675865191876133ea565b506137ae565b9061380a612e88565b508151518060010191826001116117bc5760208401518311613852575b6138346136c46001613682565b9060018551938401019119825116179052805182116135e457505090565b8260011b838104600214841517156117bc5761387490613675865191876133ea565b50613827565b1561025d57565b9161388a612e88565b50613898825182111561387a565b6020835151926138a883856117dd565b82860151811161390f575b855183815196820101958211613907575b505001905b60208110156138ed575f19906020036101000a019081199051169082511617905290565b909161357d61357761390292855181526117cf565b6138c9565b525f806138c4565b61392161391b826119df565b87613926565b6138b3565b90612f2091613937815192826133ea565b506134e856fea26469706673582212209303c62dbb960985819d8014896704f95bae9cc881b0bc12bca74893f13c769d64736f6c634300081c0033",
  "linkReferences": {},
  "deployedLinkReferences": {},
  "immutableReferences": {
    "36": [
      {
        "length": 32,
        "start": 1555
      },
      {
        "length": 32,
        "start": 10623
      }
    ]
  },
  "inputSourceName": "project/contracts/BettingContract.sol",
  "buildInfoId": "solc-0_8_28-bde5bd46132659322ec07cb5be73210ad96aef02"
}