{
  "_format": "hh3-artifact-1",
  "contractName": "BettingContract",
  "sourceName": "contracts/BettingContract.sol",
  "abi": [
    {
      "inputs": [
        {
          "internalType": "address",
          "name": "router",
          "type": "address"
        },
        {
          "internalType": "uint64",
          "name": "_subscriptionId",
          "type": "uint64"
        },
        {
          "internalType": "bytes32",
          "name": "_donId",
          "type": "bytes32"
        },
        {
          "internalType": "address",
          "name": "_bettingToken",
          "type": "address"
        },
        {
          "internalType": "address",
          "name": "_betTicketNFT",
          "type": "address"
        },
        {
          "internalType": "address",
          "name": "_usdt",
          "type": "address"
        }
      ],
      "stateMutability": "nonpayable",
      "type": "constructor"
    },
    {
      "inputs": [],
      "name": "EmptyArgs",
      "type": "error"
    },
    {
      "inputs": [],
      "name": "EmptySecrets",
      "type": "error"
    },
    {
      "inputs": [],
      "name": "EmptySource",
      "type": "error"
    },
    {
      "inputs": [],
      "name": "NoInlineSecrets",
      "type": "error"
    },
    {
      "inputs": [],
      "name": "OnlyRouterCanFulfill",
      "type": "error"
    },
    {
      "anonymous": false,
      "inputs": [
        {
          "indexed": false,
          "internalType": "address",
          "name": "user",
          "type": "address"
        },
        {
          "indexed": false,
          "internalType": "uint256",
          "name": "tokenId",
          "type": "uint256"
        },
        {
          "indexed": false,
          "internalType": "uint256",
          "name": "matchId",
          "type": "uint256"
        },
        {
          "indexed": false,
          "internalType": "uint8",
          "name": "prediction",
          "type": "uint8"
        },
        {
          "indexed": false,
          "internalType": "uint256",
          "name": "amount",
          "type": "uint256"
        }
      ],
      "name": "BetPlaced",
      "type": "event"
    },
    {
      "anonymous": false,
      "inputs": [
        {
          "indexed": false,
          "internalType": "uint256",
          "name": "tokenId",
          "type": "uint256"
        },
        {
          "indexed": false,
          "internalType": "bool",
          "name": "won",
          "type": "bool"
        },
        {
          "indexed": false,
          "internalType": "uint256",
          "name": "payout",
          "type": "uint256"
        }
      ],
      "name": "BetResolved",
      "type": "event"
    },
    {
      "anonymous": false,
      "inputs": [
        {
          "indexed": false,
          "internalType": "string",
          "name": "response",
          "type": "string"
        }
      ],
      "name": "ChainlinkResponseReceived",
      "type": "event"
    },
    {
      "anonymous": false,
      "inputs": [
        {
          "indexed": false,
          "internalType": "uint256",
          "name": "matchId",
          "type": "uint256"
        },
        {
          "indexed": false,
          "internalType": "uint8",
          "name": "result",
          "type": "uint8"
        }
      ],
      "name": "MatchResultFetched",
      "type": "event"
    },
    {
      "anonymous": false,
      "inputs": [
        {
          "indexed": false,
          "internalType": "uint256[]",
          "name": "matchIds",
          "type": "uint256[]"
        }
      ],
      "name": "MatchesFetched",
      "type": "event"
    },
    {
      "anonymous": false,
      "inputs": [
        {
          "indexed": true,
          "internalType": "address",
          "name": "previousOwner",
          "type": "address"
        },
        {
          "indexed": true,
          "internalType": "address",
          "name": "newOwner",
          "type": "address"
        }
      ],
      "name": "OwnershipTransferred",
      "type": "event"
    },
    {
      "anonymous": false,
      "inputs": [
        {
          "indexed": true,
          "internalType": "bytes32",
          "name": "id",
          "type": "bytes32"
        }
      ],
      "name": "RequestFulfilled",
      "type": "event"
    },
    {
      "anonymous": false,
      "inputs": [
        {
          "indexed": true,
          "internalType": "bytes32",
          "name": "id",
          "type": "bytes32"
        }
      ],
      "name": "RequestSent",
      "type": "event"
    },
    {
      "inputs": [
        {
          "internalType": "uint256",
          "name": "id",
          "type": "uint256"
        },
        {
          "internalType": "string",
          "name": "homeTeam",
          "type": "string"
        },
        {
          "internalType": "string",
          "name": "awayTeam",
          "type": "string"
        },
        {
          "internalType": "uint256",
          "name": "matchDate",
          "type": "uint256"
        },
        {
          "internalType": "uint256",
          "name": "homeOdd",
          "type": "uint256"
        },
        {
          "internalType": "uint256",
          "name": "drawOdd",
          "type": "uint256"
        },
        {
          "internalType": "uint256",
          "name": "awayOdd",
          "type": "uint256"
        }
      ],
      "name": "addMatch",
      "outputs": [],
      "stateMutability": "nonpayable",
      "type": "function"
    },
    {
      "inputs": [],
      "name": "betTicketNFT",
      "outputs": [
        {
          "internalType": "contract BetTicketNFT",
          "name": "",
          "type": "address"
        }
      ],
      "stateMutability": "view",
      "type": "function"
    },
    {
      "inputs": [],
      "name": "bettingToken",
      "outputs": [
        {
          "internalType": "contract BettingToken",
          "name": "",
          "type": "address"
        }
      ],
      "stateMutability": "view",
      "type": "function"
    },
    {
      "inputs": [
        {
          "internalType": "uint256",
          "name": "tokenId",
          "type": "uint256"
        }
      ],
      "name": "claimReward",
      "outputs": [],
      "stateMutability": "nonpayable",
      "type": "function"
    },
    {
      "inputs": [],
      "name": "clearMatches",
      "outputs": [],
      "stateMutability": "nonpayable",
      "type": "function"
    },
    {
      "inputs": [],
      "name": "donId",
      "outputs": [
        {
          "internalType": "bytes32",
          "name": "",
          "type": "bytes32"
        }
      ],
      "stateMutability": "view",
      "type": "function"
    },
    {
      "inputs": [],
      "name": "encryptedSecretsReference",
      "outputs": [
        {
          "internalType": "bytes",
          "name": "",
          "type": "bytes"
        }
      ],
      "stateMutability": "view",
      "type": "function"
    },
    {
      "inputs": [],
      "name": "finalizeMatches",
      "outputs": [],
      "stateMutability": "nonpayable",
      "type": "function"
    },
    {
      "inputs": [],
      "name": "gasLimit",
      "outputs": [
        {
          "internalType": "uint32",
          "name": "",
          "type": "uint32"
        }
      ],
      "stateMutability": "view",
      "type": "function"
    },
    {
      "inputs": [],
      "name": "getMatchIdsLength",
      "outputs": [
        {
          "internalType": "uint256",
          "name": "",
          "type": "uint256"
        }
      ],
      "stateMutability": "view",
      "type": "function"
    },
    {
      "inputs": [
        {
          "internalType": "bytes32",
          "name": "requestId",
          "type": "bytes32"
        },
        {
          "internalType": "bytes",
          "name": "response",
          "type": "bytes"
        },
        {
          "internalType": "bytes",
          "name": "err",
          "type": "bytes"
        }
      ],
      "name": "handleOracleFulfillment",
      "outputs": [],
      "stateMutability": "nonpayable",
      "type": "function"
    },
    {
      "inputs": [
        {
          "internalType": "bytes32",
          "name": "",
          "type": "bytes32"
        }
      ],
      "name": "isMatchesRequest",
      "outputs": [
        {
          "internalType": "bool",
          "name": "",
          "type": "bool"
        }
      ],
      "stateMutability": "view",
      "type": "function"
    },
    {
      "inputs": [],
      "name": "lastChainlinkResponse",
      "outputs": [
        {
          "internalType": "string",
          "name": "",
          "type": "string"
        }
      ],
      "stateMutability": "view",
      "type": "function"
    },
    {
      "inputs": [],
      "name": "lastMatchRequestTime",
      "outputs": [
        {
          "internalType": "uint256",
          "name": "",
          "type": "uint256"
        }
      ],
      "stateMutability": "view",
      "type": "function"
    },
    {
      "inputs": [
        {
          "internalType": "uint256",
          "name": "",
          "type": "uint256"
        }
      ],
      "name": "matchIds",
      "outputs": [
        {
          "internalType": "uint256",
          "name": "",
          "type": "uint256"
        }
      ],
      "stateMutability": "view",
      "type": "function"
    },
    {
      "inputs": [
        {
          "internalType": "uint256",
          "name": "",
          "type": "uint256"
        }
      ],
      "name": "matches",
      "outputs": [
        {
          "internalType": "uint256",
          "name": "id",
          "type": "uint256"
        },
        {
          "internalType": "string",
          "name": "homeTeam",
          "type": "string"
        },
        {
          "internalType": "string",
          "name": "awayTeam",
          "type": "string"
        },
        {
          "internalType": "uint256",
          "name": "matchDate",
          "type": "uint256"
        },
        {
          "internalType": "uint8",
          "name": "result",
          "type": "uint8"
        },
        {
          "internalType": "uint256",
          "name": "homeOdds",
          "type": "uint256"
        },
        {
          "internalType": "uint256",
          "name": "drawOdds",
          "type": "uint256"
        },
        {
          "internalType": "uint256",
          "name": "awayOdds",
          "type": "uint256"
        }
      ],
      "stateMutability": "view",
      "type": "function"
    },
    {
      "inputs": [],
      "name": "matchesSourceCode",
      "outputs": [
        {
          "internalType": "string",
          "name": "",
          "type": "string"
        }
      ],
      "stateMutability": "view",
      "type": "function"
    },
    {
      "inputs": [],
      "name": "owner",
      "outputs": [
        {
          "internalType": "address",
          "name": "",
          "type": "address"
        }
      ],
      "stateMutability": "view",
      "type": "function"
    },
    {
      "inputs": [
        {
          "internalType": "uint256",
          "name": "matchId",
          "type": "uint256"
        },
        {
          "internalType": "uint8",
          "name": "prediction",
          "type": "uint8"
        },
        {
          "internalType": "uint256",
          "name": "amount",
          "type": "uint256"
        }
      ],
      "name": "placeBet",
      "outputs": [],
      "stateMutability": "nonpayable",
      "type": "function"
    },
    {
      "inputs": [],
      "name": "renounceOwnership",
      "outputs": [],
      "stateMutability": "nonpayable",
      "type": "function"
    },
    {
      "inputs": [],
      "name": "requestInterval",
      "outputs": [
        {
          "internalType": "uint256",
          "name": "",
          "type": "uint256"
        }
      ],
      "stateMutability": "view",
      "type": "function"
    },
    {
      "inputs": [
        {
          "internalType": "uint256",
          "name": "matchId",
          "type": "uint256"
        }
      ],
      "name": "requestMatchResult",
      "outputs": [],
      "stateMutability": "nonpayable",
      "type": "function"
    },
    {
      "inputs": [],
      "name": "requestMatches",
      "outputs": [],
      "stateMutability": "nonpayable",
      "type": "function"
    },
    {
      "inputs": [
        {
          "internalType": "bytes32",
          "name": "",
          "type": "bytes32"
        }
      ],
      "name": "requestToMatchId",
      "outputs": [
        {
          "internalType": "uint256",
          "name": "",
          "type": "uint256"
        }
      ],
      "stateMutability": "view",
      "type": "function"
    },
    {
      "inputs": [],
      "name": "resetLastRequestTime",
      "outputs": [],
      "stateMutability": "nonpayable",
      "type": "function"
    },
    {
      "inputs": [],
      "name": "resultsSourceCode",
      "outputs": [
        {
          "internalType": "string",
          "name": "",
          "type": "string"
        }
      ],
      "stateMutability": "view",
      "type": "function"
    },
    {
      "inputs": [],
      "name": "secretsLocation",
      "outputs": [
        {
          "internalType": "uint8",
          "name": "",
          "type": "uint8"
        }
      ],
      "stateMutability": "view",
      "type": "function"
    },
    {
      "inputs": [
        {
          "internalType": "string",
          "name": "source",
          "type": "string"
        }
      ],
      "name": "setMatchesSource",
      "outputs": [],
      "stateMutability": "nonpayable",
      "type": "function"
    },
    {
      "inputs": [
        {
          "internalType": "uint256",
          "name": "_interval",
          "type": "uint256"
        }
      ],
      "name": "setRequestInterval",
      "outputs": [],
      "stateMutability": "nonpayable",
      "type": "function"
    },
    {
      "inputs": [
        {
          "internalType": "string",
          "name": "source",
          "type": "string"
        }
      ],
      "name": "setResultsSource",
      "outputs": [],
      "stateMutability": "nonpayable",
      "type": "function"
    },
    {
      "inputs": [
        {
          "internalType": "uint8",
          "name": "_location",
          "type": "uint8"
        },
        {
          "internalType": "bytes",
          "name": "_reference",
          "type": "bytes"
        }
      ],
      "name": "setSecretsReference",
      "outputs": [],
      "stateMutability": "nonpayable",
      "type": "function"
    },
    {
      "inputs": [],
      "name": "subscriptionId",
      "outputs": [
        {
          "internalType": "uint64",
          "name": "",
          "type": "uint64"
        }
      ],
      "stateMutability": "view",
      "type": "function"
    },
    {
      "inputs": [
        {
          "internalType": "address",
          "name": "newOwner",
          "type": "address"
        }
      ],
      "name": "transferOwnership",
      "outputs": [],
      "stateMutability": "nonpayable",
      "type": "function"
    },
    {
      "inputs": [],
      "name": "usdt",
      "outputs": [
        {
          "internalType": "contract USDT",
          "name": "",
          "type": "address"
        }
      ],
      "stateMutability": "view",
      "type": "function"
    }
  ],
  "bytecode": "0x60a03461017957601f612f5c38819003918201601f19168301916001600160401b0383118484101761017d5780849260c0946040528339810103126101795761004781610191565b6020820151906001600160401b03821682036101795760408301519061006f60608501610191565b9361008860a061008160808401610191565b9201610191565b6001600160a01b039283166080525f8054336001600160a01b031982168117835560405198939590929116907f8be0079c531659141344cd1fd0a4f28419497f9722a3daafe3b4186f6b6457e09080a36005805463ffffffff1916620493e0179055600a600d5560038054600495909555600180546001600160a01b03199081166001600160a01b039485161790915560028054909116938316939093179092556001600160e01b031990931660a09490941b600160a01b600160e01b0316939093179116179055600e805460ff191660ff179055612db690816101a682396080518181816106cb01526123d90152f35b5f80fd5b634e487b7160e01b5f52604160045260245ffd5b51906001600160a01b03821682036101795756fe60806040526004361015610011575f80fd5b5f3560e01c806309c1ba2e146102345780630af8a5b01461022f5780630ca761751461022a5780630e599a731461022557806326b2acc3146102205780632eae6e351461021b5780632f48ab7d1461021657806336ff6a70146102115780633f6abd8f1461020c5780634075d2a11461020757806341c512ad1461020257806343425e88146101fd57806344af6819146101f85780634768d4ef146101f35780634acd1eb9146101ee5780634b40a275146101e957806352d6af9e146101e4578063536f6070146101df578063715018a6146101da57806380f9683e146101d557806387cad4cd146101d05780638c640f0c146101cb5780638da5cb5b146101c65780638dbe7b9d146101c1578063a197317e146101bc578063ae169a50146101b7578063c6ee5ebf146101b2578063cc0e597c146101ad578063cdc634f1146101a8578063d8c73d46146101a3578063da866c481461019e578063e7b33f9714610199578063f2fde38b146101945763f68016b71461018f575f80fd5b611720565b611652565b611619565b61144c565b61131d565b6112f7565b61117b565b611123565b610f31565b610f02565b610ee5565b610ebe565b610dcb565b610d66565b610cde565b610c87565b610c6a565b610c4d565b610c30565b610b8b565b610b23565b610ab0565b610a88565b610a6a565b610a3b565b610978565b61093b565b6108ff565b61088a565b610758565b610738565b610676565b61052c565b3461025d575f36600319011261025d5760206001600160401b0360035460a01c16604051908152f35b5f80fd5b90600182811c9216801561028f575b602083101461027b57565b634e487b7160e01b5f52602260045260245ffd5b91607f1691610270565b634e487b7160e01b5f52604160045260245ffd5b61010081019081106001600160401b038211176102c957604052565b610299565b604081019081106001600160401b038211176102c957604052565b90601f801991011681019081106001600160401b038211176102c957604052565b604051905f826007549161031d83610261565b80835292600181169081156103a25750600114610343575b610341925003836102e9565b565b5060075f90815290917fa66cc928b5edb82af9bd49922954155ab7b0942694bea4ce44661d9a8736c6885b81831061038657505090602061034192820101610335565b602091935080600191548385890101520191019091849261036e565b6020925061034194915060ff191682840152151560051b820101610335565b604051905f82600654916103d483610261565b80835292600181169081156103a257506001146103f757610341925003836102e9565b5060065f90815290917ff652222313e28459528d920b65115c16c04f3efc82aaedc97be59f3f377c0d3f5b81831061043a57505090602061034192820101610335565b6020919350806001915483858901015201910190918492610422565b9060405191825f82549261046984610261565b80845293600181169081156104d2575060011461048e575b50610341925003836102e9565b90505f9291925260205f20905f915b8183106104b6575050906020610341928201015f610481565b602091935080600191548385890101520191019091849261049d565b90506020925061034194915060ff191682840152151560051b8201015f610481565b805180835260209291819084018484015e5f828201840152601f01601f1916010190565b9060206105299281815201906104f4565b90565b3461025d575f36600319011261025d576040515f60075461054c81610261565b80845290600181169081156105e25750600114610584575b61058083610574818503826102e9565b60405191829182610518565b0390f35b60075f9081527fa66cc928b5edb82af9bd49922954155ab7b0942694bea4ce44661d9a8736c688939250905b8082106105c857509091508101602001610574610564565b9192600181602092548385880101520191019092916105b0565b60ff191660208086019190915291151560051b840190910191506105749050610564565b60405190610341610100836102e9565b9291926001600160401b0382116102c9576040519161063f601f8201601f1916602001846102e9565b82948184528183011161025d578281602093845f960137010152565b9080601f8301121561025d5781602061052993359101610616565b3461025d57606036600319011261025d576004356024356001600160401b03811161025d576106a990369060040161065b565b6044356001600160401b03811161025d576106c890369060040161065b565b507f00000000000000000000000000000000000000000000000000000000000000006001600160a01b03163303610729576107039082611df0565b7f85e1543bf2f84fe80c6badbce3648c8539ad1df4d2b3d822938ca0538be727e65f80a2005b63c6829f8360e01b5f5260045ffd5b3461025d575f36600319011261025d57602060ff600e5416604051908152f35b3461025d57602036600319011261025d5760043561082961081b6107f961077d611743565b61078e61078861030a565b82612593565b60ff61079c600e5460ff1690565b16158061084a575b61082c575b6107f46107b4611789565b6040516107da816107cc8a6020830160209181520190565b03601f1981018352826102e9565b6107e3826117c3565b526107ed816117c3565b5082612084565b6121b9565b60035460a01c6001600160401b031660055463ffffffff169060045492612382565b5f52600a60205260405f2090565b55005b61084561083f61083a611262565b611f2d565b82612003565b6107a9565b50610856600f54610261565b15156107a4565b9181601f8401121561025d578235916001600160401b03831161025d576020838186019501011161025d57565b3461025d5760e036600319011261025d576004356024356001600160401b03811161025d576108bd90369060040161085d565b9190604435926001600160401b03841161025d576108e26108fd94369060040161085d565b606435916084359360a435956108f760c43590565b976117e9565b005b3461025d575f36600319011261025d576003546040516001600160a01b039091168152602090f35b634e487b7160e01b5f52603260045260245ffd5b3461025d57602036600319011261025d5760043560095481101561025d5760209060095f525f516020612d615f395f51905f520154604051908152f35b3461025d575f36600319011261025d576109ed6109e06109d26107f961099c611743565b6109a76107886103c1565b60ff6109b5600e5460ff1690565b16801580610a28575b156109f657506107f461083f61083a611262565b5f52600b60205260405f2090565b805460ff19166001179055565b6108fd42600c55565b60011480610a15575b156121b9576107f4610a0f611262565b826124b0565b50610a21600f54610261565b15156109ff565b50610a34600f54610261565b15156109be565b3461025d57602036600319011261025d576004355f52600b602052602060ff60405f2054166040519015158152f35b3461025d575f36600319011261025d57610a82612459565b5f600c55005b3461025d575f36600319011261025d576001546040516001600160a01b039091168152602090f35b3461025d57602036600319011261025d57600435610acc612459565b600d55005b949060e09693610afb60ff94610b09939c9b9a979c895261010060208a01526101008901906104f4565b9087820360408901526104f4565b98606086015216608084015260a083015260c08201520152565b3461025d57602036600319011261025d576004355f52600860205260405f208054610580610b5360018401610456565b92610b6060028201610456565b90600381015460ff600483015416600583015491600760068501549401549460405198899889610ad1565b3461025d575f36600319011261025d576040515f601054610bab81610261565b80845290600181169081156105e25750600114610bd25761058083610574818503826102e9565b60105f9081527f1b6847dc741a1b0cd08d278845f9d819d87b734759afb55fe2de5cb82a9ae672939250905b808210610c1657509091508101602001610574610564565b919260018160209254838588010152019101909291610bfe565b3461025d575f36600319011261025d576020600954604051908152f35b3461025d575f36600319011261025d576020600c54604051908152f35b3461025d575f36600319011261025d576020600d54604051908152f35b3461025d575f36600319011261025d57610c9f612459565b5f80546001600160a01b0319811682556001600160a01b03167f8be0079c531659141344cd1fd0a4f28419497f9722a3daafe3b4186f6b6457e08280a3005b3461025d575f36600319011261025d57610cf6612459565b6040516020810160208252600954809152604082019060095f525f516020612d615f395f51905f52905f5b818110610d50577fc8ebec3ee270205e821a96d947158a7e7fe9df1ac520c2c8ae231a90978c8bdb85850386a1005b8254845260209093019260019283019201610d21565b3461025d57602036600319011261025d576004355f52600a602052602060405f2054604051908152f35b602060031982011261025d57600435906001600160401b03821161025d578060238301121561025d5781602461052993600401359101610616565b3461025d57610dd936610d90565b610de1612459565b80516001600160401b0381116102c957610e0581610e00600754610261565b6118d1565b602091601f8211600114610e4357610e33925f9183610e38575b50508160011b915f199060031b1c19161790565b600755005b015190505f80610e1f565b60075f52601f198216927fa66cc928b5edb82af9bd49922954155ab7b0942694bea4ce44661d9a8736c688915f5b858110610ea657508360019510610e8e575b505050811b01600755005b01515f1960f88460031b161c191690555f8080610e83565b91926020600181928685015181550194019201610e71565b3461025d575f36600319011261025d575f546040516001600160a01b039091168152602090f35b3461025d575f36600319011261025d576020600454604051908152f35b3461025d575f36600319011261025d57610580610f1d6103c1565b6040519182916020835260208301906104f4565b3461025d57602036600319011261025d57600435600254610f62906001600160a01b03165b6001600160a01b031690565b6040516331a9108f60e11b815260048101839052602081602481855afa80156110ad57610fa1915f916110f4575b506001600160a01b03163314611bad565b604051630efbf52960e01b8152600481018390529060a090829060249082905afa9081156110ad57610ff3915f5f915f935f905f926110b2575b5090610fe9610fee92611c31565b611c70565b6124d3565b600354611008906001600160a01b0316610f56565b60405163a9059cbb60e01b8152336004820152602481018390529290602090849060449082905f905af19283156110ad577fe1b4cc7b572a56466df9203312ded49052ff26393efd614a3f8658c98ec0fc3893611080575b50604080519182526001602083015281019190915280606081015b0390a1005b6110a19060203d6020116110a6575b61109981836102e9565b810190611caa565b611060565b503d61108f565b611ba2565b915050610fe99350610fee92506110e1915060a03d60a0116110ed575b6110d981836102e9565b810190611bf6565b91959294509091610fdb565b503d6110cf565b611116915060203d60201161111c575b61110e81836102e9565b810190611b8d565b5f610f90565b503d611104565b3461025d575f36600319011261025d5761113b612459565b6009545f6009558061114957005b5f516020612d615f395f51905f52015f516020612d615f395f51905f525b81811061117057005b5f8155600101611167565b3461025d5761118936610d90565b611191612459565b80516001600160401b0381116102c9576111b5816111b0600654610261565b611914565b602091601f82116001146111e7576111e2925f9183610e385750508160011b915f199060031b1c19161790565b600655005b60065f52601f198216927ff652222313e28459528d920b65115c16c04f3efc82aaedc97be59f3f377c0d3f915f5b85811061124a57508360019510611232575b505050811b01600655005b01515f1960f88460031b161c191690555f8080611227565b91926020600181928685015181550194019201611215565b604051905f82600f549161127583610261565b80835292600181169081156103a2575060011461129857610341925003836102e9565b50600f5f90815290917f8d1108e10bcb7c27dddfc02ed9d693a074039d026cf4ea4240b40f7d581ac8025b8183106112db57505090602061034192820101610335565b60209193508060019154838589010152019101909184926112c3565b3461025d575f36600319011261025d57610580610f1d611262565b60ff81160361025d57565b3461025d57604036600319011261025d5760043561133a81611312565b6024356001600160401b03811161025d5761135b60ff91369060040161085d565b919092611366612459565b1660ff19600e541617600e556001600160401b0381116102c9576113948161138f600f54610261565b61194c565b5f601f82116001146113d05781906113c0935f926113c55750508160011b915f199060031b1c19161790565b600f55005b013590505f80610e1f565b600f5f52601f198216927f8d1108e10bcb7c27dddfc02ed9d693a074039d026cf4ea4240b40f7d581ac802915f5b8581106114345750836001951061141b575b505050811b01600f55005b01355f19600384901b60f8161c191690555f8080611410565b909260206001819286860135815501940191016113fe565b3461025d57606036600319011261025d5760243560043561146c82611312565b6044359161148d611485835f52600860205260405f2090565b541515611d18565b6114b860ff6114b160046114a9865f52600860205260405f2090565b015460ff1690565b1615611d5b565b6114c8600260ff83161115611da0565b6003546114dd906001600160a01b0316610f56565b6040516323b872dd60e01b81523360048201523060248201526044810185905290602090829060649082905f905af180156110ad576115fc575b5060025461152d906001600160a01b0316610f56565b604051633a3446df60e21b81523360048201526024810184905260ff83166044820152606481018590529390602090859060849082905f905af19081156110ad577f11d02810c631c72400f6f1739955999911bdcec8c268889873bcfb0dd64b94ba945f926115c9575b5060408051338152602081019390935282019390935260ff909116606082015260808101919091528060a0810161107b565b61107b92506115ef9060203d6020116115f5575b6115e781836102e9565b810190611de1565b91611597565b503d6115dd565b6116149060203d6020116110a65761109981836102e9565b611517565b3461025d575f36600319011261025d576002546040516001600160a01b039091168152602090f35b6001600160a01b0381160361025d57565b3461025d57602036600319011261025d5760043561166f81611641565b611677612459565b6001600160a01b038116156116cc575f80546001600160a01b039283166001600160a01b03198216811783559216907f8be0079c531659141344cd1fd0a4f28419497f9722a3daafe3b4186f6b6457e09080a3005b60405162461bcd60e51b815260206004820152602660248201527f4f776e61626c653a206e6577206f776e657220697320746865207a65726f206160448201526564647265737360d01b6064820152608490fd5b3461025d575f36600319011261025d57602063ffffffff60055416604051908152f35b6040519060e082018281106001600160401b038211176102c957604052606060c0835f81525f60208201525f604082015282808201528260808201528260a08201520152565b6040805190919061179a83826102e9565b6001815291601f1901825f5b8281106117b257505050565b8060606020809385010152016117a6565b8051156117d05760200190565b610927565b80518210156117d05760209160051b010190565b96926103419894600796611886611834611893946118256118a6978e9d9961180f612459565b6040519e8f61181d816102ad565b523691610616565b9460208d019586523691610616565b60408b0190815260608b0192835261187c60808c01945f865260a08d0198895260c08d01998a5260e08d019a8b528d5f52600860205260405f209c518d555160018d01611a93565b5160028b01611a93565b5160038901555160ff1690565b600487019060ff1660ff19825416179055565b51600585015551600684015551910155611b52565b8181106118c6575050565b5f81556001016118bb565b90601f82116118de575050565b6103419160075f5260205f20906020601f840160051c8301931061190a575b601f0160051c01906118bb565b90915081906118fd565b90601f8211611921575050565b6103419160065f5260205f20906020601f840160051c8301931061190a57601f0160051c01906118bb565b90601f8211611959575050565b61034191600f5f5260205f20906020601f840160051c8301931061190a57601f0160051c01906118bb565b9190601f811161199357505050565b610341925f5260205f20906020601f840160051c8301931061190a57601f0160051c01906118bb565b9081516001600160401b0381116102c9576119e3816119dc601054610261565b6010611984565b602092601f8211600114611a1757611a12929382915f92610e385750508160011b915f199060031b1c19161790565b601055565b60105f52601f198216937f1b6847dc741a1b0cd08d278845f9d819d87b734759afb55fe2de5cb82a9ae672915f5b868110611a7b5750836001959610611a63575b505050811b01601055565b01515f1960f88460031b161c191690555f8080611a58565b91926020600181928685015181550194019201611a45565b91909182516001600160401b0381116102c957611aba81611ab48454610261565b84611984565b6020601f8211600114611aed578190611ae99394955f92610e385750508160011b915f199060031b1c19161790565b9055565b601f19821690611b00845f5260205f2090565b915f5b818110611b3a57509583600195969710611b22575b505050811b019055565b01515f1960f88460031b161c191690555f8080611b18565b9192602060018192868b015181550194019201611b03565b600954680100000000000000008110156102c957600181016009556009548110156117d05760095f525f516020612d615f395f51905f520155565b9081602091031261025d575161052981611641565b6040513d5f823e3d90fd5b15611bb457565b60405162461bcd60e51b815260206004820152600d60248201526c2737ba103a34329037bbb732b960991b6044820152606490fd5b5190811515820361025d57565b908160a091031261025d578051916020820151611c1281611312565b916040810151916105296080611c2a60608501611be9565b9301611be9565b15611c3857565b60405162461bcd60e51b815260206004820152601060248201526f10995d081b9bdd081c995cdbdb1d995960821b6044820152606490fd5b15611c7757565b60405162461bcd60e51b815260206004820152600b60248201526a2132ba103737ba103bb7b760a91b6044820152606490fd5b9081602091031261025d5761052990611be9565b634e487b7160e01b5f52601160045260245ffd5b600381901b91906001600160fd1b03811603611cea57565b611cbe565b908160011b9180830460021490151715611cea57565b81810292918115918404141715611cea57565b15611d1f57565b60405162461bcd60e51b815260206004820152601460248201527313585d18da08191bd95cc81b9bdd08195e1a5cdd60621b6044820152606490fd5b15611d6257565b60405162461bcd60e51b815260206004820152601660248201527513585d18da08185b1c9958591e481c995cdbdb1d995960521b6044820152606490fd5b15611da757565b60405162461bcd60e51b815260206004820152601260248201527124b73b30b634b210383932b234b1ba34b7b760711b6044820152606490fd5b9081602091031261025d575190565b5f818152600b602052604090205460ff16611eb257611e17815f52600a60205260405f2090565b549081611e2357505050565b7f1e64e9780c0a892267b8ddd6e87d3c74446a01c70ecb6d6ac1f60ab6175e9c0b611eaf92611e65611e5f866020805f99518301019101611de1565b60ff1690565b90611e8e826004611e7e845f52600860205260405f2090565b019060ff1660ff19825416179055565b6040805191825260ff929092166020820152a15f52600a60205260405f2090565b55565b611ef8907f5c0e8d00ec66d6db4deedf631eb9a678f52951894706544650fb549a5ea0b50a611ee784610574610341966119bc565b0390a15f52600b60205260405f2090565b805460ff19169055565b6007039060078211611cea57565b601f19810191908211611cea57565b5f19810191908211611cea57565b6008815110611fa4575f905f905b60088210611f4857505090565b909181518310156117d057600190611f9b611f79611e5f611f7360208888010160ff60f81b90511690565b60f81c90565b611f8a611f8587611f02565b611cd2565b6001600160401b03809216901b1690565b17920190611f3b565b60405162461bcd60e51b8152602060048201526014602482015273092dcecc2d8d2c840c4f2e8cae640d8cadccee8d60631b6044820152606490fd5b634e487b7160e01b5f52602160045260245ffd5b60031115611ffe57565b611fe0565b906080906120766120126125d1565b916120706040612040815161202783826102e9565b60068152651cdb1bdd125160d21b602082015286612601565b61204a5f8661285e565b612056815191826102e9565b60078152663b32b939b4b7b760c91b602082015284612601565b8261285e565b600260208401525151910152565b8151156120915760a00152565b63fe936cb760e01b5f5260045ffd5b604051906120af6040836102e9565b600c82526b31b7b232a637b1b0ba34b7b760a11b6020830152565b604051906120d96040836102e9565b60088252676c616e677561676560c01b6020830152565b60011115611ffe57565b604051906121096040836102e9565b6006825265736f7572636560d01b6020830152565b6040519061212d6040836102e9565b60048252636172677360e01b6020830152565b6040519061214f6040836102e9565b600f82526e39b2b1b932ba39a637b1b0ba34b7b760891b6020830152565b6040519061217c6040836102e9565b60078252667365637265747360c81b6020830152565b604051906121a16040836102e9565b600982526862797465734172677360b81b6020830152565b6121c16125d1565b906121d36121cd6120a0565b83612601565b6121f081516121e181611ff4565b6121ea81611ff4565b836126e8565b6121fb6121cd6120ca565b612215604082015161220c816120f0565b6121ea816120f0565b6122206121cd6120fa565b61222e606082015183612601565b60a0810180515161232a575b5060808101908151516122ad575b60c091500180515161225b575b50515190565b916122676121cd612192565b61227082612730565b5f5b8351805182101561229a579061229461228d826001946117d5565b5185612774565b01612272565b505091506122a781612752565b5f612255565b6020810180516122bc81611ff4565b6122c581611ff4565b1561231b5760c0926122fe612316926122e56122df612140565b88612601565b516122ef81611ff4565b6122f881611ff4565b866126e8565b61230f61230961216d565b86612601565b5184612774565b612248565b63a80d31f760e01b5f5260045ffd5b9261233c61233661211e565b84612601565b61234583612730565b5f5b8451805182101561236f5790612369612362826001946117d5565b5186612601565b01612347565b5050925061237c82612752565b5f61223a565b92906020926001600160401b039263ffffffff6123c1604051978896879663230e93b160e11b885216600487015260a0602487015260a48601906104f4565b6001604486015292166064840152608483015203815f7f00000000000000000000000000000000000000000000000000000000000000006001600160a01b03165af19081156110ad575f9161243a575b50807f1131472297a800fee664d1d89cfa8f7676ff07189ecc53f80bbb5f4969099db85f80a290565b612453915060203d6020116115f5576115e781836102e9565b5f612411565b5f546001600160a01b0316330361246c57565b606460405162461bcd60e51b815260206004820152602060248201527f4f776e61626c653a2063616c6c6572206973206e6f7420746865206f776e65726044820152fd5b8151156124c4576001602082015260800152565b63e889636f60e01b5f5260045ffd5b9161257291610529935f52600860205260405f2060e060ff6124f3610606565b938354855261250460018501610456565b602086015261251560028501610456565b60408601526003840154606086015261253f612535600486015460ff1690565b60ff166080870152565b6005840154948560a082015260076006860154958660c0840152015493849101521680155f146125795750505090611d05565b6064900490565b9192509060010361258b575090611d05565b905090611d05565b8151156125a9575f808252604082015260600152565b6322ce3edd60e01b5f5260045ffd5b604051906125c5826102ce565b5f602083606081520152565b6040516125dd816102ce565b5f6125e66125b8565b8083526125fc610100602085019284845261280d565b505290565b81516126509291906001600160401b03166017811161265357815161263b916126359061262e6060611e5f565b1760ff1690565b90612a3a565b505b51906126476125b8565b50805191612ca4565b50565b60ff811161268057815161267a919061267290601860605b1790612a3a565b508251612c24565b5061263d565b61ffff81116126a557815161267a919061269d906019606061266b565b508251612bab565b63ffffffff81116126cc57815161267a91906126c490601a606061266b565b508251612b32565b815161267a91906126e090601b606061266b565b508251612ab4565b90610341916126f781516129ca565b50604051916020830152602082526127106040836102e9565b612774565b9060208201809211611cea57565b91908201809211611cea57565b60209061273f609f8251612a3a565b500180519060018201809211611cea5752565b60209061276160ff8251612a3a565b500180515f19810191908211611cea5752565b81516126509291906001600160401b0316601781116127a157815161263b916126359061262e6040611e5f565b60ff81116127bd57815161267a9190612672906018604061266b565b61ffff81116127da57815161267a919061269d906019604061266b565b63ffffffff81116127f957815161267a91906126c490601a604061266b565b815161267a91906126e090601b604061266b565b906128166125b8565b50601f811680612844575b50806020830152604051908183525f8252810160200190811061025d5760405290565b60200360208111611cea578101809111611cea575f612821565b906001600160401b0381166017811161288557509051612650916126359061262e5f611e5f565b905060ff81116128a957815161265092906128a29060185f61266b565b5051612c24565b61ffff81116128cc57815161265092906128c59060195f61266b565b5051612bab565b63ffffffff81116128f157815161265092906128ea90601a5f61266b565b5051612b32565b8151612650929061290490601b5f61266b565b5051612ab4565b906129146125b8565b50805161291f6125b8565b5061292d8251821115612c9d565b8251519161293b8284612723565b90602085015182116129b3575b6020918551838151968201019582116129ab575b505001905b6020811015612985575f19906020036101000a019081199051169082511617905290565b90916129a061299a6129a69285518152612715565b93612715565b91611f10565b612961565b525f8061295c565b6129c56129bf83611cef565b86612d49565b612948565b6129d26125b8565b508051516001810190818111611cea576020830151811015612a0b575b60c260208451928301015380518211612a0757505090565b5290565b8160011b82810460021483151715611cea57612a3490612a2d8551918661280d565b508461290b565b506129ef565b90612a436125b8565b508151516001810191828211611cea576020840151821015612a76575b60208451928301015380518211612a0757505090565b8260011b83810460021484151715611cea57612a9f90612a988651918761280d565b508561290b565b50612a60565b601f8111611cea576101000a90565b90612abd6125b8565b50815151806008019182600811611cea5760208401518311612b0a575b612aec612ae76008612aa5565b611f1f565b906008855193840101911982511617905280518211612a0757505090565b8260011b83810460021484151715611cea57612b2c90612a988651918761280d565b50612ada565b90612b3b6125b8565b50815151806004019182600411611cea5760208401518311612b83575b612b65612ae76004612aa5565b906004855193840101911982511617905280518211612a0757505090565b8260011b83810460021484151715611cea57612ba590612a988651918761280d565b50612b58565b90612bb46125b8565b50815151806002019182600211611cea5760208401518311612bfc575b612bde612ae76002612aa5565b906002855193840101911982511617905280518211612a0757505090565b8260011b83810460021484151715611cea57612c1e90612a988651918761280d565b50612bd1565b90612c2d6125b8565b50815151806001019182600111611cea5760208401518311612c75575b612c57612ae76001612aa5565b906001855193840101911982511617905280518211612a0757505090565b8260011b83810460021484151715611cea57612c9790612a988651918761280d565b50612c4a565b1561025d57565b91612cad6125b8565b50612cbb8251821115612c9d565b602083515192612ccb8385612723565b828601518111612d32575b855183815196820101958211612d2a575b505001905b6020811015612d10575f19906020036101000a019081199051169082511617905290565b90916129a061299a612d259285518152612715565b612cec565b525f80612ce7565b612d44612d3e82611cef565b87612d49565b612cd6565b9061265091612d5a8151928261280d565b5061290b56fe6e1540171b6c0c960b71a7020d9f60077f6af931a8bbf590da0223dacf75c7afa2646970667358221220d080762bae7a0fb8bd6698e2dc7e4bd31c8046447e5ba9610b5e8dda0e40324764736f6c634300081c0033",
  "linkReferences": {},
  "deployedLinkReferences": {},
  "immutableReferences": {
    "17": [
      {
        "length": 32,
        "start": 1739
      },
      {
        "length": 32,
        "start": 9177
      }
    ]
  },
  "inputSourceName": "project/contracts/BettingContract.sol",
  "buildInfoId": "solc-0_8_28-7e16223b9f871df4961cc40fa71a61ffb33aa9e4"
}