{
  "_format": "hh3-artifact-1",
  "contractName": "BettingContract",
  "sourceName": "contracts/BettingContract.sol",
  "abi": [
    {
      "inputs": [
        {
          "internalType": "address",
          "name": "router",
          "type": "address"
        },
        {
          "internalType": "uint64",
          "name": "_subscriptionId",
          "type": "uint64"
        },
        {
          "internalType": "bytes32",
          "name": "_donId",
          "type": "bytes32"
        },
        {
          "internalType": "address",
          "name": "_bettingToken",
          "type": "address"
        },
        {
          "internalType": "address",
          "name": "_betTicketNFT",
          "type": "address"
        },
        {
          "internalType": "address",
          "name": "_usdt",
          "type": "address"
        }
      ],
      "stateMutability": "nonpayable",
      "type": "constructor"
    },
    {
      "inputs": [],
      "name": "EmptyArgs",
      "type": "error"
    },
    {
      "inputs": [],
      "name": "EmptySecrets",
      "type": "error"
    },
    {
      "inputs": [],
      "name": "EmptySource",
      "type": "error"
    },
    {
      "inputs": [],
      "name": "NoInlineSecrets",
      "type": "error"
    },
    {
      "inputs": [],
      "name": "OnlyRouterCanFulfill",
      "type": "error"
    },
    {
      "anonymous": false,
      "inputs": [
        {
          "indexed": false,
          "internalType": "address",
          "name": "user",
          "type": "address"
        },
        {
          "indexed": false,
          "internalType": "uint256",
          "name": "tokenId",
          "type": "uint256"
        },
        {
          "indexed": false,
          "internalType": "uint256",
          "name": "matchId",
          "type": "uint256"
        },
        {
          "indexed": false,
          "internalType": "uint8",
          "name": "prediction",
          "type": "uint8"
        },
        {
          "indexed": false,
          "internalType": "uint256",
          "name": "amount",
          "type": "uint256"
        }
      ],
      "name": "BetPlaced",
      "type": "event"
    },
    {
      "anonymous": false,
      "inputs": [
        {
          "indexed": false,
          "internalType": "uint256",
          "name": "tokenId",
          "type": "uint256"
        },
        {
          "indexed": false,
          "internalType": "bool",
          "name": "won",
          "type": "bool"
        },
        {
          "indexed": false,
          "internalType": "uint256",
          "name": "payout",
          "type": "uint256"
        }
      ],
      "name": "BetResolved",
      "type": "event"
    },
    {
      "anonymous": false,
      "inputs": [
        {
          "indexed": false,
          "internalType": "string",
          "name": "response",
          "type": "string"
        }
      ],
      "name": "ChainlinkResponseReceived",
      "type": "event"
    },
    {
      "anonymous": false,
      "inputs": [
        {
          "indexed": false,
          "internalType": "uint256",
          "name": "matchId",
          "type": "uint256"
        },
        {
          "indexed": false,
          "internalType": "uint8",
          "name": "result",
          "type": "uint8"
        }
      ],
      "name": "MatchResultFetched",
      "type": "event"
    },
    {
      "anonymous": false,
      "inputs": [
        {
          "indexed": false,
          "internalType": "uint256[]",
          "name": "matchIds",
          "type": "uint256[]"
        }
      ],
      "name": "MatchesFetched",
      "type": "event"
    },
    {
      "anonymous": false,
      "inputs": [
        {
          "indexed": true,
          "internalType": "address",
          "name": "previousOwner",
          "type": "address"
        },
        {
          "indexed": true,
          "internalType": "address",
          "name": "newOwner",
          "type": "address"
        }
      ],
      "name": "OwnershipTransferred",
      "type": "event"
    },
    {
      "anonymous": false,
      "inputs": [
        {
          "indexed": false,
          "internalType": "string",
          "name": "reason",
          "type": "string"
        },
        {
          "indexed": false,
          "internalType": "string",
          "name": "data",
          "type": "string"
        }
      ],
      "name": "ParseError",
      "type": "event"
    },
    {
      "anonymous": false,
      "inputs": [
        {
          "indexed": true,
          "internalType": "bytes32",
          "name": "id",
          "type": "bytes32"
        }
      ],
      "name": "RequestFulfilled",
      "type": "event"
    },
    {
      "anonymous": false,
      "inputs": [
        {
          "indexed": true,
          "internalType": "bytes32",
          "name": "id",
          "type": "bytes32"
        }
      ],
      "name": "RequestSent",
      "type": "event"
    },
    {
      "inputs": [],
      "name": "betTicketNFT",
      "outputs": [
        {
          "internalType": "contract BetTicketNFT",
          "name": "",
          "type": "address"
        }
      ],
      "stateMutability": "view",
      "type": "function"
    },
    {
      "inputs": [],
      "name": "bettingToken",
      "outputs": [
        {
          "internalType": "contract BettingToken",
          "name": "",
          "type": "address"
        }
      ],
      "stateMutability": "view",
      "type": "function"
    },
    {
      "inputs": [
        {
          "internalType": "uint256",
          "name": "tokenId",
          "type": "uint256"
        }
      ],
      "name": "claimReward",
      "outputs": [],
      "stateMutability": "nonpayable",
      "type": "function"
    },
    {
      "inputs": [],
      "name": "donId",
      "outputs": [
        {
          "internalType": "bytes32",
          "name": "",
          "type": "bytes32"
        }
      ],
      "stateMutability": "view",
      "type": "function"
    },
    {
      "inputs": [],
      "name": "encryptedSecretsReference",
      "outputs": [
        {
          "internalType": "bytes",
          "name": "",
          "type": "bytes"
        }
      ],
      "stateMutability": "view",
      "type": "function"
    },
    {
      "inputs": [],
      "name": "gasLimit",
      "outputs": [
        {
          "internalType": "uint32",
          "name": "",
          "type": "uint32"
        }
      ],
      "stateMutability": "view",
      "type": "function"
    },
    {
      "inputs": [],
      "name": "getMatchIdsLength",
      "outputs": [
        {
          "internalType": "uint256",
          "name": "",
          "type": "uint256"
        }
      ],
      "stateMutability": "view",
      "type": "function"
    },
    {
      "inputs": [
        {
          "internalType": "bytes32",
          "name": "requestId",
          "type": "bytes32"
        },
        {
          "internalType": "bytes",
          "name": "response",
          "type": "bytes"
        },
        {
          "internalType": "bytes",
          "name": "err",
          "type": "bytes"
        }
      ],
      "name": "handleOracleFulfillment",
      "outputs": [],
      "stateMutability": "nonpayable",
      "type": "function"
    },
    {
      "inputs": [
        {
          "internalType": "bytes32",
          "name": "",
          "type": "bytes32"
        }
      ],
      "name": "isMatchesRequest",
      "outputs": [
        {
          "internalType": "bool",
          "name": "",
          "type": "bool"
        }
      ],
      "stateMutability": "view",
      "type": "function"
    },
    {
      "inputs": [],
      "name": "lastChainlinkResponse",
      "outputs": [
        {
          "internalType": "string",
          "name": "",
          "type": "string"
        }
      ],
      "stateMutability": "view",
      "type": "function"
    },
    {
      "inputs": [],
      "name": "lastMatchRequestTime",
      "outputs": [
        {
          "internalType": "uint256",
          "name": "",
          "type": "uint256"
        }
      ],
      "stateMutability": "view",
      "type": "function"
    },
    {
      "inputs": [
        {
          "internalType": "uint256",
          "name": "",
          "type": "uint256"
        }
      ],
      "name": "matchIds",
      "outputs": [
        {
          "internalType": "uint256",
          "name": "",
          "type": "uint256"
        }
      ],
      "stateMutability": "view",
      "type": "function"
    },
    {
      "inputs": [
        {
          "internalType": "uint256",
          "name": "",
          "type": "uint256"
        }
      ],
      "name": "matches",
      "outputs": [
        {
          "internalType": "uint256",
          "name": "id",
          "type": "uint256"
        },
        {
          "internalType": "string",
          "name": "homeTeam",
          "type": "string"
        },
        {
          "internalType": "string",
          "name": "awayTeam",
          "type": "string"
        },
        {
          "internalType": "uint256",
          "name": "matchDate",
          "type": "uint256"
        },
        {
          "internalType": "uint8",
          "name": "result",
          "type": "uint8"
        },
        {
          "internalType": "uint256",
          "name": "homeOdds",
          "type": "uint256"
        },
        {
          "internalType": "uint256",
          "name": "drawOdds",
          "type": "uint256"
        },
        {
          "internalType": "uint256",
          "name": "awayOdds",
          "type": "uint256"
        }
      ],
      "stateMutability": "view",
      "type": "function"
    },
    {
      "inputs": [],
      "name": "matchesSourceCode",
      "outputs": [
        {
          "internalType": "string",
          "name": "",
          "type": "string"
        }
      ],
      "stateMutability": "view",
      "type": "function"
    },
    {
      "inputs": [],
      "name": "owner",
      "outputs": [
        {
          "internalType": "address",
          "name": "",
          "type": "address"
        }
      ],
      "stateMutability": "view",
      "type": "function"
    },
    {
      "inputs": [
        {
          "internalType": "uint256",
          "name": "matchId",
          "type": "uint256"
        },
        {
          "internalType": "uint8",
          "name": "prediction",
          "type": "uint8"
        },
        {
          "internalType": "uint256",
          "name": "amount",
          "type": "uint256"
        }
      ],
      "name": "placeBet",
      "outputs": [],
      "stateMutability": "nonpayable",
      "type": "function"
    },
    {
      "inputs": [],
      "name": "renounceOwnership",
      "outputs": [],
      "stateMutability": "nonpayable",
      "type": "function"
    },
    {
      "inputs": [],
      "name": "requestInterval",
      "outputs": [
        {
          "internalType": "uint256",
          "name": "",
          "type": "uint256"
        }
      ],
      "stateMutability": "view",
      "type": "function"
    },
    {
      "inputs": [
        {
          "internalType": "uint256",
          "name": "matchId",
          "type": "uint256"
        }
      ],
      "name": "requestMatchResult",
      "outputs": [],
      "stateMutability": "nonpayable",
      "type": "function"
    },
    {
      "inputs": [],
      "name": "requestMatches",
      "outputs": [],
      "stateMutability": "nonpayable",
      "type": "function"
    },
    {
      "inputs": [
        {
          "internalType": "bytes32",
          "name": "",
          "type": "bytes32"
        }
      ],
      "name": "requestToMatchId",
      "outputs": [
        {
          "internalType": "uint256",
          "name": "",
          "type": "uint256"
        }
      ],
      "stateMutability": "view",
      "type": "function"
    },
    {
      "inputs": [],
      "name": "resetLastRequestTime",
      "outputs": [],
      "stateMutability": "nonpayable",
      "type": "function"
    },
    {
      "inputs": [],
      "name": "resultsSourceCode",
      "outputs": [
        {
          "internalType": "string",
          "name": "",
          "type": "string"
        }
      ],
      "stateMutability": "view",
      "type": "function"
    },
    {
      "inputs": [],
      "name": "secretsLocation",
      "outputs": [
        {
          "internalType": "uint8",
          "name": "",
          "type": "uint8"
        }
      ],
      "stateMutability": "view",
      "type": "function"
    },
    {
      "inputs": [
        {
          "internalType": "string",
          "name": "source",
          "type": "string"
        }
      ],
      "name": "setMatchesSource",
      "outputs": [],
      "stateMutability": "nonpayable",
      "type": "function"
    },
    {
      "inputs": [
        {
          "internalType": "uint256",
          "name": "_interval",
          "type": "uint256"
        }
      ],
      "name": "setRequestInterval",
      "outputs": [],
      "stateMutability": "nonpayable",
      "type": "function"
    },
    {
      "inputs": [
        {
          "internalType": "string",
          "name": "source",
          "type": "string"
        }
      ],
      "name": "setResultsSource",
      "outputs": [],
      "stateMutability": "nonpayable",
      "type": "function"
    },
    {
      "inputs": [
        {
          "internalType": "uint8",
          "name": "_location",
          "type": "uint8"
        },
        {
          "internalType": "bytes",
          "name": "_reference",
          "type": "bytes"
        }
      ],
      "name": "setSecretsReference",
      "outputs": [],
      "stateMutability": "nonpayable",
      "type": "function"
    },
    {
      "inputs": [],
      "name": "subscriptionId",
      "outputs": [
        {
          "internalType": "uint64",
          "name": "",
          "type": "uint64"
        }
      ],
      "stateMutability": "view",
      "type": "function"
    },
    {
      "inputs": [
        {
          "internalType": "address",
          "name": "newOwner",
          "type": "address"
        }
      ],
      "name": "transferOwnership",
      "outputs": [],
      "stateMutability": "nonpayable",
      "type": "function"
    },
    {
      "inputs": [],
      "name": "usdt",
      "outputs": [
        {
          "internalType": "contract USDT",
          "name": "",
          "type": "address"
        }
      ],
      "stateMutability": "view",
      "type": "function"
    }
  ],
  "bytecode": "0x60a03461017957601f6137f138819003918201601f19168301916001600160401b0383118484101761017d5780849260c0946040528339810103126101795761004781610191565b6020820151906001600160401b03821682036101795760408301519061006f60608501610191565b9361008860a061008160808401610191565b9201610191565b6001600160a01b039283166080525f8054336001600160a01b031982168117835560405198939590929116907f8be0079c531659141344cd1fd0a4f28419497f9722a3daafe3b4186f6b6457e09080a36005805463ffffffff1916620493e0179055600a600d5560038054600495909555600180546001600160a01b03199081166001600160a01b039485161790915560028054909116938316939093179092556001600160e01b031990931660a09490941b600160a01b600160e01b0316939093179116179055600e805460ff191660ff17905561364b90816101a6823960805181818161068c015261231b0152f35b5f80fd5b634e487b7160e01b5f52604160045260245ffd5b51906001600160a01b03821682036101795756fe60806040526004361015610011575f80fd5b5f3560e01c806309c1ba2e146102045780630af8a5b0146101ff5780630ca76175146101fa5780630e599a73146101f557806326b2acc3146101f05780632f48ab7d146101eb57806336ff6a70146101e65780633f6abd8f146101e15780634075d2a1146101dc57806341c512ad146101d757806343425e88146101d257806344af6819146101cd5780634768d4ef146101c85780634acd1eb9146101c35780634b40a275146101be57806352d6af9e146101b9578063536f6070146101b4578063715018a6146101af57806387cad4cd146101aa5780638c640f0c146101a55780638da5cb5b146101a05780638dbe7b9d1461019b578063a197317e14610196578063ae169a5014610191578063cc0e597c1461018c578063cdc634f114610187578063d8c73d4614610182578063da866c481461017d578063e7b33f9714610178578063f2fde38b146101735763f68016b71461016e575f80fd5b611690565b6115c2565b611589565b6113bc565b611355565b61132f565b6111b3565b610fc1565b610f92565b610f75565b610f4e565b610e5b565b610df6565b610d9f565b610d82565b610d65565b610d48565b610ca3565b610c3b565b610bc8565b610ba0565b610b82565b610b53565b610a8e565b610a3e565b610a02565b61091a565b6108fa565b610636565b6104e0565b3461022d575f36600319011261022d5760206001600160401b0360035460a01c16604051908152f35b5f80fd5b90600182811c9216801561025f575b602083101461024b57565b634e487b7160e01b5f52602260045260245ffd5b91607f1691610240565b634e487b7160e01b5f52604160045260245ffd5b604081019081106001600160401b0382111761029857604052565b610269565b90601f801991011681019081106001600160401b0382111761029857604052565b604051905f82600754916102d183610231565b808352926001811690811561035657506001146102f7575b6102f59250038361029d565b565b5060075f90815290917fa66cc928b5edb82af9bd49922954155ab7b0942694bea4ce44661d9a8736c6885b81831061033a5750509060206102f5928201016102e9565b6020919350806001915483858901015201910190918492610322565b602092506102f594915060ff191682840152151560051b8201016102e9565b604051905f826006549161038883610231565b808352926001811690811561035657506001146103ab576102f59250038361029d565b5060065f90815290917ff652222313e28459528d920b65115c16c04f3efc82aaedc97be59f3f377c0d3f5b8183106103ee5750509060206102f5928201016102e9565b60209193508060019154838589010152019101909184926103d6565b9060405191825f82549261041d84610231565b80845293600181169081156104865750600114610442575b506102f59250038361029d565b90505f9291925260205f20905f915b81831061046a5750509060206102f5928201015f610435565b6020919350806001915483858901015201910190918492610451565b9050602092506102f594915060ff191682840152151560051b8201015f610435565b805180835260209291819084018484015e5f828201840152601f01601f1916010190565b9060206104dd9281815201906104a8565b90565b3461022d575f36600319011261022d576040515f60075461050081610231565b80845290600181169081156105965750600114610538575b610534836105288185038261029d565b604051918291826104cc565b0390f35b60075f9081527fa66cc928b5edb82af9bd49922954155ab7b0942694bea4ce44661d9a8736c688939250905b80821061057c57509091508101602001610528610518565b919260018160209254838588010152019101909291610564565b60ff191660208086019190915291151560051b840190910191506105289050610518565b604051906102f56101008361029d565b6001600160401b03811161029857601f01601f191660200190565b9291926105f1826105ca565b916105ff604051938461029d565b82948184528183011161022d578281602093845f960137010152565b9080601f8301121561022d578160206104dd933591016105e5565b3461022d57606036600319011261022d576004356024356001600160401b03811161022d5761066990369060040161061b565b906044356001600160401b03811161022d5761068990369060040161061b565b507f00000000000000000000000000000000000000000000000000000000000000006001600160a01b031633036108eb578151916001600160401b038311610298576106df836106da601054610231565b61177f565b602092601f811160011461086c578061070e9293945f91610861575b508160011b915f199060031b1c19161790565b6010555b7f5c0e8d00ec66d6db4deedf631eb9a678f52951894706544650fb549a5ea0b50a6040518061074184826104cc565b0390a1610760610759835f52600b60205260405f2090565b5460ff1690565b156107b35761076e906125b6565b61078d610783825f52600b60205260405f2090565b805460ff19169055565b7f85e1543bf2f84fe80c6badbce3648c8539ad1df4d2b3d822938ca0538be727e65f80a2005b6107c5825f52600a60205260405f2090565b54806107d3575b505061078d565b61081061080a836020807f1e64e9780c0a892267b8ddd6e87d3c74446a01c70ecb6d6ac1f60ab6175e9c0b96518301019101611c52565b60ff1690565b90610839826004610829845f52600860205260405f2090565b019060ff1660ff19825416179055565b6040805191825260ff929092166020820152a15f818152600a60205260408120555f806107cc565b90508301515f6106fb565b60105f52601f198116937f1b6847dc741a1b0cd08d278845f9d819d87b734759afb55fe2de5cb82a9ae672905f5b8681106108d35750826001949596106108bb575b5050811b01601055610712565b8401515f1960f88460031b161c191690555f806108ae565b9091602060018192858801518155019301910161089a565b63c6829f8360e01b5f5260045ffd5b3461022d575f36600319011261022d57602060ff600e5416604051908152f35b3461022d57602036600319011261022d576004356109ce6109c061099e61093f6116b3565b61095061094a6102be565b82612722565b60ff61095e600e5460ff1690565b1615806109ef575b6109d1575b6109996109766116f9565b61097f87611f12565b61098882611733565b5261099281611733565b5082611fc6565b6120fb565b60035460a01c6001600160401b031660055463ffffffff1690600454926122c4565b5f52600a60205260405f2090565b55005b6109ea6109e46109df61129a565b611d59565b82611e22565b61096b565b506109fb600f54610231565b1515610966565b3461022d575f36600319011261022d576003546040516001600160a01b039091168152602090f35b634e487b7160e01b5f52603260045260245ffd5b3461022d57602036600319011261022d5760043560095481101561022d5760209060095f527f6e1540171b6c0c960b71a7020d9f60077f6af931a8bbf590da0223dacf75c7af0154604051908152f35b3461022d575f36600319011261022d57610b03610af6610ae861099e610ab26116b3565b610abd61094a610375565b60ff610acb600e5460ff1690565b16801580610b40575b15610b0e57506109996109e46109df61129a565b5f52600b60205260405f2090565b805460ff19166001179055565b610b0c42600c55565b005b60011480610b2d575b156120fb57610999610b2761129a565b8261239b565b50610b39600f54610231565b1515610b17565b50610b4c600f54610231565b1515610ad4565b3461022d57602036600319011261022d576004355f52600b602052602060ff60405f2054166040519015158152f35b3461022d575f36600319011261022d57610b9a6123be565b5f600c55005b3461022d575f36600319011261022d576001546040516001600160a01b039091168152602090f35b3461022d57602036600319011261022d57600435610be46123be565b600d55005b949060e09693610c1360ff94610c21939c9b9a979c895261010060208a01526101008901906104a8565b9087820360408901526104a8565b98606086015216608084015260a083015260c08201520152565b3461022d57602036600319011261022d576004355f52600860205260405f208054610534610c6b6001840161040a565b92610c786002820161040a565b90600381015460ff600483015416600583015491600760068501549401549460405198899889610be9565b3461022d575f36600319011261022d576040515f601054610cc381610231565b80845290600181169081156105965750600114610cea57610534836105288185038261029d565b60105f9081527f1b6847dc741a1b0cd08d278845f9d819d87b734759afb55fe2de5cb82a9ae672939250905b808210610d2e57509091508101602001610528610518565b919260018160209254838588010152019101909291610d16565b3461022d575f36600319011261022d576020600954604051908152f35b3461022d575f36600319011261022d576020600c54604051908152f35b3461022d575f36600319011261022d576020600d54604051908152f35b3461022d575f36600319011261022d57610db76123be565b5f80546001600160a01b0319811682556001600160a01b03167f8be0079c531659141344cd1fd0a4f28419497f9722a3daafe3b4186f6b6457e08280a3005b3461022d57602036600319011261022d576004355f52600a602052602060405f2054604051908152f35b602060031982011261022d57600435906001600160401b03821161022d578060238301121561022d578160246104dd936004013591016105e5565b3461022d57610e6936610e20565b610e716123be565b80516001600160401b03811161029857610e9581610e90600754610231565b6117c2565b602091601f8211600114610ed357610ec3925f9183610ec8575b50508160011b915f199060031b1c19161790565b600755005b015190505f80610eaf565b60075f52601f198216927fa66cc928b5edb82af9bd49922954155ab7b0942694bea4ce44661d9a8736c688915f5b858110610f3657508360019510610f1e575b505050811b01600755005b01515f1960f88460031b161c191690555f8080610f13565b91926020600181928685015181550194019201610f01565b3461022d575f36600319011261022d575f546040516001600160a01b039091168152602090f35b3461022d575f36600319011261022d576020600454604051908152f35b3461022d575f36600319011261022d57610534610fad610375565b6040519182916020835260208301906104a8565b3461022d57602036600319011261022d57600435600254610ff2906001600160a01b03165b6001600160a01b031690565b6040516331a9108f60e11b815260048101839052602081602481855afa801561113d57611031915f91611184575b506001600160a01b03163314611981565b604051630efbf52960e01b8152600481018390529060a090829060249082905afa90811561113d57611083915f5f915f935f905f92611142575b509061107961107e92611a05565b611a44565b612415565b600354611098906001600160a01b0316610fe6565b60405163a9059cbb60e01b8152336004820152602481018390529290602090849060449082905f905af192831561113d577fe1b4cc7b572a56466df9203312ded49052ff26393efd614a3f8658c98ec0fc3893611110575b50604080519182526001602083015281019190915280606081015b0390a1005b6111319060203d602011611136575b611129818361029d565b810190611a7e565b6110f0565b503d61111f565b611976565b915050611079935061107e9250611171915060a03d60a01161117d575b611169818361029d565b8101906119ca565b9195929450909161106b565b503d61115f565b6111a6915060203d6020116111ac575b61119e818361029d565b810190611961565b5f611020565b503d611194565b3461022d576111c136610e20565b6111c96123be565b80516001600160401b038111610298576111ed816111e8600654610231565b6117fa565b602091601f821160011461121f5761121a925f9183610ec85750508160011b915f199060031b1c19161790565b600655005b60065f52601f198216927ff652222313e28459528d920b65115c16c04f3efc82aaedc97be59f3f377c0d3f915f5b8581106112825750836001951061126a575b505050811b01600655005b01515f1960f88460031b161c191690555f808061125f565b9192602060018192868501518155019401920161124d565b604051905f82600f54916112ad83610231565b808352926001811690811561035657506001146112d0576102f59250038361029d565b50600f5f90815290917f8d1108e10bcb7c27dddfc02ed9d693a074039d026cf4ea4240b40f7d581ac8025b8183106113135750509060206102f5928201016102e9565b60209193508060019154838589010152019101909184926112fb565b3461022d575f36600319011261022d57610534610fad61129a565b60ff81160361022d57565b3461022d57604036600319011261022d576004356113728161134a565b602435906001600160401b03821161022d573660238301121561022d578160040135906001600160401b03821161022d57366024838501011161022d576024610b0c930190611a92565b3461022d57606036600319011261022d576024356004356113dc8261134a565b604435916113fd6113f5835f52600860205260405f2090565b541515611b89565b61142860ff6114216004611419865f52600860205260405f2090565b015460ff1690565b1615611bcc565b611438600260ff83161115611c11565b60035461144d906001600160a01b0316610fe6565b6040516323b872dd60e01b81523360048201523060248201526044810185905290602090829060649082905f905af1801561113d5761156c575b5060025461149d906001600160a01b0316610fe6565b604051633a3446df60e21b81523360048201526024810184905260ff83166044820152606481018590529390602090859060849082905f905af190811561113d577f11d02810c631c72400f6f1739955999911bdcec8c268889873bcfb0dd64b94ba945f92611539575b5060408051338152602081019390935282019390935260ff909116606082015260808101919091528060a0810161110b565b61110b925061155f9060203d602011611565575b611557818361029d565b810190611c52565b91611507565b503d61154d565b6115849060203d60201161113657611129818361029d565b611487565b3461022d575f36600319011261022d576002546040516001600160a01b039091168152602090f35b6001600160a01b0381160361022d57565b3461022d57602036600319011261022d576004356115df816115b1565b6115e76123be565b6001600160a01b0381161561163c575f80546001600160a01b039283166001600160a01b03198216811783559216907f8be0079c531659141344cd1fd0a4f28419497f9722a3daafe3b4186f6b6457e09080a3005b60405162461bcd60e51b815260206004820152602660248201527f4f776e61626c653a206e6577206f776e657220697320746865207a65726f206160448201526564647265737360d01b6064820152608490fd5b3461022d575f36600319011261022d57602063ffffffff60055416604051908152f35b6040519060e082018281106001600160401b0382111761029857604052606060c0835f81525f60208201525f604082015282808201528260808201528260a08201520152565b6040805190919061170a838261029d565b6001815291601f1901825f5b82811061172257505050565b806060602080938501015201611716565b8051156117405760200190565b610a2a565b8051600110156117405760400190565b80518210156117405760209160051b010190565b818110611774575050565b5f8155600101611769565b90601f821161178c575050565b6102f59160105f5260205f20906020601f840160051c830193106117b8575b601f0160051c0190611769565b90915081906117ab565b90601f82116117cf575050565b6102f59160075f5260205f20906020601f840160051c830193106117b857601f0160051c0190611769565b90601f8211611807575050565b6102f59160065f5260205f20906020601f840160051c830193106117b857601f0160051c0190611769565b90601f821161183f575050565b6102f591600f5f5260205f20906020601f840160051c830193106117b857601f0160051c0190611769565b9190601f811161187957505050565b6102f5925f5260205f20906020601f840160051c830193106117b857601f0160051c0190611769565b91909182516001600160401b038111610298576118c9816118c38454610231565b8461186a565b6020601f82116001146118fc5781906118f89394955f92610ec85750508160011b915f199060031b1c19161790565b9055565b601f1982169061190f845f5260205f2090565b915f5b81811061194957509583600195969710611931575b505050811b019055565b01515f1960f88460031b161c191690555f8080611927565b9192602060018192868b015181550194019201611912565b9081602091031261022d57516104dd816115b1565b6040513d5f823e3d90fd5b1561198857565b60405162461bcd60e51b815260206004820152600d60248201526c2737ba103a34329037bbb732b960991b6044820152606490fd5b5190811515820361022d57565b908160a091031261022d5780519160208201516119e68161134a565b916040810151916104dd60806119fe606085016119bd565b93016119bd565b15611a0c57565b60405162461bcd60e51b815260206004820152601060248201526f10995d081b9bdd081c995cdbdb1d995960821b6044820152606490fd5b15611a4b57565b60405162461bcd60e51b815260206004820152600b60248201526a2132ba103737ba103bb7b760a91b6044820152606490fd5b9081602091031261022d576104dd906119bd565b60ff9093929193611aa16123be565b1660ff19600e541617600e556001600160401b03811161029857611acf81611aca600f54610231565b611832565b5f601f8211600114611b0c578190611afc93945f92611b015750508160011b915f199060031b1c19161790565b600f55565b013590505f80610eaf565b600f5f52601f198216937f8d1108e10bcb7c27dddfc02ed9d693a074039d026cf4ea4240b40f7d581ac802915f5b868110611b715750836001959610611b58575b505050811b01600f55565b01355f19600384901b60f8161c191690555f8080611b4d565b90926020600181928686013581550194019101611b3a565b15611b9057565b60405162461bcd60e51b815260206004820152601460248201527313585d18da08191bd95cc81b9bdd08195e1a5cdd60621b6044820152606490fd5b15611bd357565b60405162461bcd60e51b815260206004820152601660248201527513585d18da08185b1c9958591e481c995cdbdb1d995960521b6044820152606490fd5b15611c1857565b60405162461bcd60e51b815260206004820152601260248201527124b73b30b634b210383932b234b1ba34b7b760711b6044820152606490fd5b9081602091031261022d575190565b908151811015611740570160200190565b634e487b7160e01b5f52601160045260245ffd5b6007039060078211611c9457565b611c72565b5f19810191908211611c9457565b601f19810191908211611c9457565b600119810191908211611c9457565b91908203918211611c9457565b600381901b91906001600160fd1b03811603611c9457565b90600a820291808304600a1490151715611c9457565b9062015180820291808304620151801490151715611c9457565b908160011b9180830460021490151715611c9457565b90606482029180830460641490151715611c9457565b81810292918115918404141715611c9457565b906008825110611dc357905f905f5b60088110611d7557505090565b909291600190611db7611d9561080a611d8e8689611c61565b5160f81c90565b611da6611da186611c86565b611cd2565b6001600160401b03809216901b1690565b17910192909192611d68565b60405162461bcd60e51b8152602060048201526014602482015273092dcecc2d8d2c840c4f2e8cae640d8cadccee8d60631b6044820152606490fd5b634e487b7160e01b5f52602160045260245ffd5b60031115611e1d57565b611dff565b90608090611e95611e31612760565b91611e8f6040611e5f8151611e46838261029d565b60068152651cdb1bdd125160d21b602082015286612790565b611e695f86612d5d565b611e758151918261029d565b60078152663b32b939b4b7b760c91b602082015284612790565b82612d5d565b600260208401525151910152565b5f198114611c945760010190565b8115611ebb570490565b634e487b7160e01b5f52601260045260245ffd5b90611ed9826105ca565b611ee6604051918261029d565b8281528092611ef7601f19916105ca565b0190602036910137565b60ff166030019060ff8211611c9457565b8015611fa65780815f925b611f8b575080611f2c83611ecf565b92905b611f3857505090565b611f4190611c99565b90611f77611f67611f6261080a600a850494611f5c86611cea565b90611cc5565b611f01565b60f81b6001600160f81b03191690565b5f1a611f838385611c61565b539081611f2f565b91611f98611fa091611ea3565b92600a900490565b80611f1d565b50604051611fb560408261029d565b60018152600360fc1b602082015290565b815115611fd35760a00152565b63fe936cb760e01b5f5260045ffd5b60405190611ff160408361029d565b600c82526b31b7b232a637b1b0ba34b7b760a11b6020830152565b6040519061201b60408361029d565b60088252676c616e677561676560c01b6020830152565b60011115611e1d57565b6040519061204b60408361029d565b6006825265736f7572636560d01b6020830152565b6040519061206f60408361029d565b60048252636172677360e01b6020830152565b6040519061209160408361029d565b600f82526e39b2b1b932ba39a637b1b0ba34b7b760891b6020830152565b604051906120be60408361029d565b60078252667365637265747360c81b6020830152565b604051906120e360408361029d565b600982526862797465734172677360b81b6020830152565b612103612760565b9061211561210f611fe2565b83612790565b612132815161212381611e13565b61212c81611e13565b83612877565b61213d61210f61200c565b612157604082015161214e81612032565b61212c81612032565b61216261210f61203c565b612170606082015183612790565b60a0810180515161226c575b5060808101908151516121ef575b60c091500180515161219d575b50515190565b916121a961210f6120d4565b6121b2826128a4565b5f5b835180518210156121dc57906121d66121cf82600194611755565b51856128e8565b016121b4565b505091506121e9816128c6565b5f612197565b6020810180516121fe81611e13565b61220781611e13565b1561225d5760c09261224061225892612227612221612082565b88612790565b5161223181611e13565b61223a81611e13565b86612877565b61225161224b6120af565b86612790565b51846128e8565b61218a565b63a80d31f760e01b5f5260045ffd5b9261227e612278612060565b84612790565b612287836128a4565b5f5b845180518210156122b157906122ab6122a482600194611755565b5186612790565b01612289565b505092506122be826128c6565b5f61217c565b92906020926001600160401b039263ffffffff612303604051978896879663230e93b160e11b885216600487015260a0602487015260a48601906104a8565b6001604486015292166064840152608483015203815f7f00000000000000000000000000000000000000000000000000000000000000006001600160a01b03165af190811561113d575f9161237c575b50807f1131472297a800fee664d1d89cfa8f7676ff07189ecc53f80bbb5f4969099db85f80a290565b612395915060203d60201161156557611557818361029d565b5f612353565b8151156123af576001602082015260800152565b63e889636f60e01b5f5260045ffd5b5f546001600160a01b031633036123d157565b606460405162461bcd60e51b815260206004820152602060248201527f4f776e61626c653a2063616c6c6572206973206e6f7420746865206f776e65726044820152fd5b916124b4916104dd935f52600860205260405f2060e060ff6124356105ba565b93835485526124466001850161040a565b60208601526124576002850161040a565b604086015260038401546060860152612481612477600486015460ff1690565b60ff166080870152565b6005840154948560a082015260076006860154958660c0840152015493849101521680155f146124bb5750505090611d46565b6064900490565b919250906001036124cd575090611d46565b905090611d46565b6009545f600955806124e45750565b60095f526102f5907f6e1540171b6c0c960b71a7020d9f60077f6af931a8bbf590da0223dacf75c7af90810190611769565b9060806104dd9260408152600e60408201526d456d70747920726573706f6e736560901b606082015281602082015201906104a8565b9060018201809211611c9457565b9060208201809211611c9457565b91908201809211611c9457565b6040602082019160208152600954809352019060095f5260205f20905f5b8181106125a05750505090565b8254845260209093019260019283019201612593565b6125be6124d5565b805115612704575f905f5f5b82518082116126cc57811480156126a9575b6125ef575b6125ea90611ea3565b6125ca565b9080821161260d575b506125ea6126058261254c565b9190506125e1565b9061262061261b8383611cc5565b611ecf565b945f5b61262d8484611cc5565b81101561266e578061265b61264d61264760019488612568565b88611c61565b516001600160f81b03191690565b5f1a612667828a611c61565b5301612623565b509461268e91925061268861268286611d00565b42612568565b90612b04565b612699575b5f6125f8565b916126a390611ea3565b91612693565b50601f60fa1b6001600160f81b03196126c561264d8487611c61565b16146125dc565b50505050507fc8ebec3ee270205e821a96d947158a7e7fe9df1ac520c2c8ae231a90978c8bdb604051806126ff81612575565b0390a1565b6126ff5f5160206135f65f395f51905f529160405191829182612516565b815115612738575f808252604082015260600152565b6322ce3edd60e01b5f5260045ffd5b604051906127548261027d565b5f602083606081520152565b60405161276c8161027d565b5f612775612747565b80835261278b6101006020850192848452612d0c565b505290565b81516127df9291906001600160401b0316601781116127e25781516127ca916127c4906127bd606061080a565b1760ff1690565b90612f39565b505b51906127d6612747565b50805191613378565b50565b60ff811161280f578151612809919061280190601860605b1790612f39565b5082516132f8565b506127cc565b61ffff8111612834578151612809919061282c90601960606127fa565b50825161327f565b63ffffffff811161285b578151612809919061285390601a60606127fa565b508251613206565b8151612809919061286f90601b60606127fa565b508251613188565b906102f5916128868151612ec9565b506040519160208301526020825261289f60408361029d565b6128e8565b6020906128b3609f8251612f39565b500180519060018201809211611c945752565b6020906128d560ff8251612f39565b500180515f19810191908211611c945752565b81516127df9291906001600160401b0316601781116129155781516127ca916127c4906127bd604061080a565b60ff8111612931578151612809919061280190601860406127fa565b61ffff811161294e578151612809919061282c90601960406127fa565b63ffffffff811161296d578151612809919061285390601a60406127fa565b8151612809919061286f90601b60406127fa565b9060806104dd9260408152600e60408201526d139bc818dbdb1bdb88199bdd5b9960921b606082015281602082015201906104a8565b9060806104dd9260408152601060408201526f125b9d985b1a59081b585d18da08125160821b606082015281602082015201906104a8565b60405160609190612a00838261029d565b6002815291601f1901366020840137565b9060806104dd9260408152600e60408201526d125b9d985b1a5908199bdc9b585d60921b606082015281602082015201906104a8565b9060e060079180518455612a626020820151600186016118a2565b612a736040820151600286016118a2565b60608101516003850155612a9b60ff608083015116600486019060ff1660ff19825416179055565b60a0810151600585015560c081015160068501550151910155565b6009546801000000000000000081101561029857600181016009556009548110156117405760095f527f6e1540171b6c0c960b71a7020d9f60077f6af931a8bbf590da0223dacf75c7af0155565b915f915f5b8451811015612d0357601d60f91b612b34612b2761264d8489611c61565b6001600160f81b03191690565b14612b4157600101612b09565b9192505b8115612ce257612b558285612fb7565b918215612cc057612b659061254c565b92612b6e6129ef565b925f92855b8751811080612cb6575b15612bcc57602d60f81b612b97612b2761264d848c611c61565b14612bab575b612ba690611ea3565b612b73565b93612bc48186612bbe612ba6948a611755565b52611ea3565b949050612b9d565b509195949093919260011901612c8d579181612c3a612bfd612c8395612bf5612c889996611733565b519086613076565b919094612c32612c15612c2c612c1b612c1588611733565b5161254c565b612c2488611745565b519085613124565b95611745565b815191613076565b9390612c446105ba565b958887526020870152604086015260608501525f608085015260a084015260c083015260e0820152612c7e835f52600860205260405f2090565b612a47565b612ab6565b600190565b50505050612caf5f5160206135f65f395f51905f529160405191829182612a11565b0390a15f90565b5060028510612b7d565b50505090612caf5f5160206135f65f395f51905f5291604051918291826129b7565b505090612caf5f5160206135f65f395f51905f529160405191829182612981565b50919091612b45565b90612d15612747565b50601f811680612d43575b50806020830152604051908183525f8252810160200190811061022d5760405290565b60200360208111611c94578101809111611c94575f612d20565b906001600160401b03811660178111612d84575090516127df916127c4906127bd5f61080a565b905060ff8111612da85781516127df9290612da19060185f6127fa565b50516132f8565b61ffff8111612dcb5781516127df9290612dc49060195f6127fa565b505161327f565b63ffffffff8111612df05781516127df9290612de990601a5f6127fa565b5051613206565b81516127df9290612e0390601b5f6127fa565b5051613188565b90612e13612747565b508051612e1e612747565b50612e2c8251821115613371565b82515191612e3a8284612568565b9060208501518211612eb2575b602091855183815196820101958211612eaa575b505001905b6020811015612e84575f19906020036101000a019081199051169082511617905290565b9091612e9f612e99612ea5928551815261255a565b9361255a565b91611ca7565b612e60565b525f80612e5b565b612ec4612ebe83611d1a565b8661341d565b612e47565b612ed1612747565b508051516001810190818111611c94576020830151811015612f0a575b60c260208451928301015380518211612f0657505090565b5290565b8160011b82810460021483151715611c9457612f3390612f2c85519186612d0c565b5084612e0a565b50612eee565b90612f42612747565b508151516001810191828211611c94576020840151821015612f75575b60208451928301015380518211612f0657505090565b8260011b83810460021484151715611c9457612f9e90612f9786519187612d0c565b5085612e0a565b50612f5f565b60ff602f199116019060ff8211611c9457565b5f915f5b818110612fc85750505090565b600360fc1b6001600160f81b0319612fe08386611c61565b511610158061302f575b612ff7575b600101612fbb565b9261300190611cea565b60ff61301f6130108686611c61565b8260f81b90511660f81c612fa4565b168101809111611c945792612fef565b5061303a8184611c61565b516001600160f81b031916603960f81b1015612fea565b6040519061306060408361029d565b60078252662ab735b737bbb760c91b6020830152565b9291905f92815b8381106130fa575b5083156130e75761309961261b8386611cc5565b925f5b6130a68487611cc5565b8110156130d957806130c661264d6130c060019488612568565b8a611c61565b5f1a6130d28288611c61565b530161309c565b509150926104dd9294613442565b93505050506130f4613051565b9060c890565b600560fb1b61310f612b2761264d848a611c61565b1461311c5760010161307d565b93505f613085565b91905f905b82811061314a575b508015613141576104dd92613442565b50505061012c90565b600560fb1b6001600160f81b03196131628387611c61565b51161461317157600101613129565b90505f613131565b601f8111611c94576101000a90565b90613191612747565b50815151806008019182600811611c9457602084015183116131de575b6131c06131bb6008613179565b611c99565b906008855193840101911982511617905280518211612f0657505090565b8260011b83810460021484151715611c945761320090612f9786519187612d0c565b506131ae565b9061320f612747565b50815151806004019182600411611c945760208401518311613257575b6132396131bb6004613179565b906004855193840101911982511617905280518211612f0657505090565b8260011b83810460021484151715611c945761327990612f9786519187612d0c565b5061322c565b90613288612747565b50815151806002019182600211611c9457602084015183116132d0575b6132b26131bb6002613179565b906002855193840101911982511617905280518211612f0657505090565b8260011b83810460021484151715611c94576132f290612f9786519187612d0c565b506132a5565b90613301612747565b50815151806001019182600111611c945760208401518311613349575b61332b6131bb6001613179565b906001855193840101911982511617905280518211612f0657505090565b8260011b83810460021484151715611c945761336b90612f9786519187612d0c565b5061331e565b1561022d57565b91613381612747565b5061338f8251821115613371565b60208351519261339f8385612568565b828601518111613406575b8551838151968201019582116133fe575b505001905b60208110156133e4575f19906020036101000a019081199051169082511617905290565b9091612e9f612e996133f9928551815261255a565b6133c0565b525f806133bb565b61341861341282611d1a565b8761341d565b6133aa565b906127df9161342e81519282612d0c565b50612e0a565b604d8111611c9457600a0a90565b91905f91815b8181106135c8575b505081156135c0575f915f935f906134685f9461254c565b915b8383106134d75750505050908160016104dd9493145f1461349e57509061349361349991611cea565b91611d30565b612568565b600281116134b1575b5061349990611d30565b61349991926134ca6134c56134d093611cb6565b613434565b90611eb1565b91906134a7565b601760f91b6134ec612b2761264d8686611c61565b036134fe5750600180925b019161346a565b91600360fc1b6001600160f81b031961351a61264d8486611c61565b1610158061359c575b613530575b6001906134f7565b939561355061354b61354561264d8886611c61565b60f81c90565b612fa4565b9083156135825761357360019260ff61356b61357994611cea565b911690612568565b97611ea3565b945b9050613528565b96949560019160ff61356b61359693611cea565b9561357b565b50603960f81b6001600160f81b03196135b861264d8486611c61565b161115613523565b50505060c890565b602960f81b6135dd612b2761264d8489611c61565b146135ea57600101613448565b92505f90508061345056fe42b5c8c6ec0d7211dc04aa74bbcccfee3f274ae3675f4c085806658c628c8fc1a2646970667358221220b2a8536cefad8ad38521ad4790c558560568503924cbc387e521e274da0d0a5064736f6c634300081c0033",
  "linkReferences": {},
  "deployedLinkReferences": {},
  "immutableReferences": {
    "17": [
      {
        "length": 32,
        "start": 1676
      },
      {
        "length": 32,
        "start": 8987
      }
    ]
  },
  "inputSourceName": "project/contracts/BettingContract.sol",
  "buildInfoId": "solc-0_8_28-6ff41186d2c2457f90d042407f2ff0e9800242c6"
}