{
  "_format": "hh3-artifact-1",
  "contractName": "BettingContract",
  "sourceName": "contracts/BettingContract.sol",
  "abi": [
    {
      "inputs": [
        {
          "internalType": "address",
          "name": "router",
          "type": "address"
        },
        {
          "internalType": "uint64",
          "name": "_subscriptionId",
          "type": "uint64"
        },
        {
          "internalType": "bytes32",
          "name": "_donId",
          "type": "bytes32"
        },
        {
          "internalType": "address",
          "name": "_bettingToken",
          "type": "address"
        },
        {
          "internalType": "address",
          "name": "_betTicketNFT",
          "type": "address"
        },
        {
          "internalType": "address",
          "name": "_usdt",
          "type": "address"
        }
      ],
      "stateMutability": "nonpayable",
      "type": "constructor"
    },
    {
      "inputs": [],
      "name": "EmptyArgs",
      "type": "error"
    },
    {
      "inputs": [],
      "name": "EmptySecrets",
      "type": "error"
    },
    {
      "inputs": [],
      "name": "EmptySource",
      "type": "error"
    },
    {
      "inputs": [],
      "name": "NoInlineSecrets",
      "type": "error"
    },
    {
      "inputs": [],
      "name": "OnlyRouterCanFulfill",
      "type": "error"
    },
    {
      "anonymous": false,
      "inputs": [
        {
          "indexed": false,
          "internalType": "address",
          "name": "user",
          "type": "address"
        },
        {
          "indexed": false,
          "internalType": "uint256",
          "name": "tokenId",
          "type": "uint256"
        },
        {
          "indexed": false,
          "internalType": "uint256",
          "name": "matchId",
          "type": "uint256"
        },
        {
          "indexed": false,
          "internalType": "uint8",
          "name": "prediction",
          "type": "uint8"
        },
        {
          "indexed": false,
          "internalType": "uint256",
          "name": "amount",
          "type": "uint256"
        }
      ],
      "name": "BetPlaced",
      "type": "event"
    },
    {
      "anonymous": false,
      "inputs": [
        {
          "indexed": false,
          "internalType": "uint256",
          "name": "tokenId",
          "type": "uint256"
        },
        {
          "indexed": false,
          "internalType": "bool",
          "name": "won",
          "type": "bool"
        },
        {
          "indexed": false,
          "internalType": "uint256",
          "name": "payout",
          "type": "uint256"
        }
      ],
      "name": "BetResolved",
      "type": "event"
    },
    {
      "anonymous": false,
      "inputs": [
        {
          "indexed": false,
          "internalType": "string",
          "name": "response",
          "type": "string"
        }
      ],
      "name": "ChainlinkResponseReceived",
      "type": "event"
    },
    {
      "anonymous": false,
      "inputs": [
        {
          "indexed": false,
          "internalType": "uint256",
          "name": "matchId",
          "type": "uint256"
        },
        {
          "indexed": false,
          "internalType": "uint8",
          "name": "result",
          "type": "uint8"
        }
      ],
      "name": "MatchResultFetched",
      "type": "event"
    },
    {
      "anonymous": false,
      "inputs": [
        {
          "indexed": false,
          "internalType": "uint256[]",
          "name": "matchIds",
          "type": "uint256[]"
        }
      ],
      "name": "MatchesFetched",
      "type": "event"
    },
    {
      "anonymous": false,
      "inputs": [
        {
          "indexed": true,
          "internalType": "address",
          "name": "previousOwner",
          "type": "address"
        },
        {
          "indexed": true,
          "internalType": "address",
          "name": "newOwner",
          "type": "address"
        }
      ],
      "name": "OwnershipTransferred",
      "type": "event"
    },
    {
      "anonymous": false,
      "inputs": [
        {
          "indexed": true,
          "internalType": "bytes32",
          "name": "id",
          "type": "bytes32"
        }
      ],
      "name": "RequestFulfilled",
      "type": "event"
    },
    {
      "anonymous": false,
      "inputs": [
        {
          "indexed": true,
          "internalType": "bytes32",
          "name": "id",
          "type": "bytes32"
        }
      ],
      "name": "RequestSent",
      "type": "event"
    },
    {
      "inputs": [
        {
          "internalType": "uint256",
          "name": "id",
          "type": "uint256"
        },
        {
          "internalType": "string",
          "name": "homeTeam",
          "type": "string"
        },
        {
          "internalType": "string",
          "name": "awayTeam",
          "type": "string"
        },
        {
          "internalType": "uint256",
          "name": "matchDate",
          "type": "uint256"
        },
        {
          "internalType": "uint256",
          "name": "homeOdd",
          "type": "uint256"
        },
        {
          "internalType": "uint256",
          "name": "drawOdd",
          "type": "uint256"
        },
        {
          "internalType": "uint256",
          "name": "awayOdd",
          "type": "uint256"
        }
      ],
      "name": "addMatch",
      "outputs": [],
      "stateMutability": "nonpayable",
      "type": "function"
    },
    {
      "inputs": [],
      "name": "betTicketNFT",
      "outputs": [
        {
          "internalType": "contract BetTicketNFT",
          "name": "",
          "type": "address"
        }
      ],
      "stateMutability": "view",
      "type": "function"
    },
    {
      "inputs": [],
      "name": "bettingToken",
      "outputs": [
        {
          "internalType": "contract BettingToken",
          "name": "",
          "type": "address"
        }
      ],
      "stateMutability": "view",
      "type": "function"
    },
    {
      "inputs": [
        {
          "internalType": "uint256",
          "name": "tokenId",
          "type": "uint256"
        }
      ],
      "name": "claimReward",
      "outputs": [],
      "stateMutability": "nonpayable",
      "type": "function"
    },
    {
      "inputs": [],
      "name": "clearMatches",
      "outputs": [],
      "stateMutability": "nonpayable",
      "type": "function"
    },
    {
      "inputs": [],
      "name": "donId",
      "outputs": [
        {
          "internalType": "bytes32",
          "name": "",
          "type": "bytes32"
        }
      ],
      "stateMutability": "view",
      "type": "function"
    },
    {
      "inputs": [],
      "name": "encryptedSecretsReference",
      "outputs": [
        {
          "internalType": "bytes",
          "name": "",
          "type": "bytes"
        }
      ],
      "stateMutability": "view",
      "type": "function"
    },
    {
      "inputs": [],
      "name": "finalizeMatches",
      "outputs": [],
      "stateMutability": "nonpayable",
      "type": "function"
    },
    {
      "inputs": [],
      "name": "gasLimit",
      "outputs": [
        {
          "internalType": "uint32",
          "name": "",
          "type": "uint32"
        }
      ],
      "stateMutability": "view",
      "type": "function"
    },
    {
      "inputs": [],
      "name": "getMatchIdsLength",
      "outputs": [
        {
          "internalType": "uint256",
          "name": "",
          "type": "uint256"
        }
      ],
      "stateMutability": "view",
      "type": "function"
    },
    {
      "inputs": [
        {
          "internalType": "bytes32",
          "name": "requestId",
          "type": "bytes32"
        },
        {
          "internalType": "bytes",
          "name": "response",
          "type": "bytes"
        },
        {
          "internalType": "bytes",
          "name": "err",
          "type": "bytes"
        }
      ],
      "name": "handleOracleFulfillment",
      "outputs": [],
      "stateMutability": "nonpayable",
      "type": "function"
    },
    {
      "inputs": [],
      "name": "lastChainlinkResponse",
      "outputs": [
        {
          "internalType": "string",
          "name": "",
          "type": "string"
        }
      ],
      "stateMutability": "view",
      "type": "function"
    },
    {
      "inputs": [],
      "name": "lastMatchRequestTime",
      "outputs": [
        {
          "internalType": "uint256",
          "name": "",
          "type": "uint256"
        }
      ],
      "stateMutability": "view",
      "type": "function"
    },
    {
      "inputs": [
        {
          "internalType": "uint256",
          "name": "",
          "type": "uint256"
        }
      ],
      "name": "matchIds",
      "outputs": [
        {
          "internalType": "uint256",
          "name": "",
          "type": "uint256"
        }
      ],
      "stateMutability": "view",
      "type": "function"
    },
    {
      "inputs": [
        {
          "internalType": "uint256",
          "name": "",
          "type": "uint256"
        }
      ],
      "name": "matches",
      "outputs": [
        {
          "internalType": "uint256",
          "name": "id",
          "type": "uint256"
        },
        {
          "internalType": "string",
          "name": "homeTeam",
          "type": "string"
        },
        {
          "internalType": "string",
          "name": "awayTeam",
          "type": "string"
        },
        {
          "internalType": "uint256",
          "name": "matchDate",
          "type": "uint256"
        },
        {
          "internalType": "uint8",
          "name": "result",
          "type": "uint8"
        },
        {
          "internalType": "uint256",
          "name": "homeOdds",
          "type": "uint256"
        },
        {
          "internalType": "uint256",
          "name": "drawOdds",
          "type": "uint256"
        },
        {
          "internalType": "uint256",
          "name": "awayOdds",
          "type": "uint256"
        }
      ],
      "stateMutability": "view",
      "type": "function"
    },
    {
      "inputs": [],
      "name": "matchesSourceCode",
      "outputs": [
        {
          "internalType": "string",
          "name": "",
          "type": "string"
        }
      ],
      "stateMutability": "view",
      "type": "function"
    },
    {
      "inputs": [],
      "name": "owner",
      "outputs": [
        {
          "internalType": "address",
          "name": "",
          "type": "address"
        }
      ],
      "stateMutability": "view",
      "type": "function"
    },
    {
      "inputs": [
        {
          "internalType": "uint256",
          "name": "matchId",
          "type": "uint256"
        },
        {
          "internalType": "uint8",
          "name": "prediction",
          "type": "uint8"
        },
        {
          "internalType": "uint256",
          "name": "amount",
          "type": "uint256"
        }
      ],
      "name": "placeBet",
      "outputs": [],
      "stateMutability": "nonpayable",
      "type": "function"
    },
    {
      "inputs": [],
      "name": "renounceOwnership",
      "outputs": [],
      "stateMutability": "nonpayable",
      "type": "function"
    },
    {
      "inputs": [],
      "name": "requestInterval",
      "outputs": [
        {
          "internalType": "uint256",
          "name": "",
          "type": "uint256"
        }
      ],
      "stateMutability": "view",
      "type": "function"
    },
    {
      "inputs": [
        {
          "internalType": "uint256",
          "name": "matchId",
          "type": "uint256"
        }
      ],
      "name": "requestMatchResult",
      "outputs": [],
      "stateMutability": "nonpayable",
      "type": "function"
    },
    {
      "inputs": [],
      "name": "requestMatches",
      "outputs": [],
      "stateMutability": "nonpayable",
      "type": "function"
    },
    {
      "inputs": [
        {
          "internalType": "bytes32",
          "name": "",
          "type": "bytes32"
        }
      ],
      "name": "requestToMatchId",
      "outputs": [
        {
          "internalType": "uint256",
          "name": "",
          "type": "uint256"
        }
      ],
      "stateMutability": "view",
      "type": "function"
    },
    {
      "inputs": [],
      "name": "resetLastRequestTime",
      "outputs": [],
      "stateMutability": "nonpayable",
      "type": "function"
    },
    {
      "inputs": [],
      "name": "resultsSourceCode",
      "outputs": [
        {
          "internalType": "string",
          "name": "",
          "type": "string"
        }
      ],
      "stateMutability": "view",
      "type": "function"
    },
    {
      "inputs": [],
      "name": "secretsLocation",
      "outputs": [
        {
          "internalType": "uint8",
          "name": "",
          "type": "uint8"
        }
      ],
      "stateMutability": "view",
      "type": "function"
    },
    {
      "inputs": [
        {
          "internalType": "string",
          "name": "source",
          "type": "string"
        }
      ],
      "name": "setMatchesSource",
      "outputs": [],
      "stateMutability": "nonpayable",
      "type": "function"
    },
    {
      "inputs": [
        {
          "internalType": "uint256",
          "name": "_interval",
          "type": "uint256"
        }
      ],
      "name": "setRequestInterval",
      "outputs": [],
      "stateMutability": "nonpayable",
      "type": "function"
    },
    {
      "inputs": [
        {
          "internalType": "string",
          "name": "source",
          "type": "string"
        }
      ],
      "name": "setResultsSource",
      "outputs": [],
      "stateMutability": "nonpayable",
      "type": "function"
    },
    {
      "inputs": [
        {
          "internalType": "uint8",
          "name": "_location",
          "type": "uint8"
        },
        {
          "internalType": "bytes",
          "name": "_reference",
          "type": "bytes"
        }
      ],
      "name": "setSecretsReference",
      "outputs": [],
      "stateMutability": "nonpayable",
      "type": "function"
    },
    {
      "inputs": [],
      "name": "subscriptionId",
      "outputs": [
        {
          "internalType": "uint64",
          "name": "",
          "type": "uint64"
        }
      ],
      "stateMutability": "view",
      "type": "function"
    },
    {
      "inputs": [
        {
          "internalType": "address",
          "name": "newOwner",
          "type": "address"
        }
      ],
      "name": "transferOwnership",
      "outputs": [],
      "stateMutability": "nonpayable",
      "type": "function"
    },
    {
      "inputs": [],
      "name": "usdt",
      "outputs": [
        {
          "internalType": "contract USDT",
          "name": "",
          "type": "address"
        }
      ],
      "stateMutability": "view",
      "type": "function"
    }
  ],
  "bytecode": "0x60a03461017957601f612d0838819003918201601f19168301916001600160401b0383118484101761017d5780849260c0946040528339810103126101795761004781610191565b6020820151906001600160401b03821682036101795760408301519061006f60608501610191565b9361008860a061008160808401610191565b9201610191565b6001600160a01b039283166080525f8054336001600160a01b031982168117835560405198939590929116907f8be0079c531659141344cd1fd0a4f28419497f9722a3daafe3b4186f6b6457e09080a36005805463ffffffff1916620493e0179055600a600c5560038054600495909555600180546001600160a01b03199081166001600160a01b039485161790915560028054909116938316939093179092556001600160e01b031990931660a09490941b600160a01b600160e01b0316939093179116179055600d805460ff191660ff179055612b6290816101a6823960805181818161061401526121850152f35b5f80fd5b634e487b7160e01b5f52604160045260245ffd5b51906001600160a01b03821682036101795756fe60806040526004361015610011575f80fd5b5f3560e01c806309c1ba2e146102245780630af8a5b01461021f5780630ca761751461021a5780630e599a731461021557806326b2acc3146102105780632eae6e351461020b5780632f48ab7d1461020657806336ff6a70146102015780633f6abd8f146101fc57806341c512ad146101f757806343425e88146101f257806344af6819146101ed5780634768d4ef146101e85780634acd1eb9146101e35780634b40a275146101de57806352d6af9e146101d9578063536f6070146101d4578063715018a6146101cf57806380f9683e146101ca57806387cad4cd146101c55780638c640f0c146101c05780638da5cb5b146101bb5780638dbe7b9d146101b6578063a197317e146101b1578063ae169a50146101ac578063c6ee5ebf146101a7578063cc0e597c146101a2578063cdc634f11461019d578063d8c73d4614610198578063da866c4814610193578063e7b33f971461018e578063f2fde38b146101895763f68016b714610184575f80fd5b6116af565b6115e1565b6115a8565b6113db565b6112ac565b611286565b61110a565b6110b2565b610ec0565b610ea5565b610e88565b610e61565b610d6e565b610d09565b610c81565b610c2a565b610c0d565b610bf0565b610bd3565b610afd565b610a95565b610a22565b6109fa565b6109dc565b610939565b6108fc565b6108c0565b61084b565b610719565b6106f9565b6105bf565b61051c565b3461024d575f36600319011261024d5760206001600160401b0360035460a01c16604051908152f35b5f80fd5b90600182811c9216801561027f575b602083101461026b57565b634e487b7160e01b5f52602260045260245ffd5b91607f1691610260565b634e487b7160e01b5f52604160045260245ffd5b61010081019081106001600160401b038211176102b957604052565b610289565b604081019081106001600160401b038211176102b957604052565b90601f801991011681019081106001600160401b038211176102b957604052565b604051905f826007549161030d83610251565b80835292600181169081156103925750600114610333575b610331925003836102d9565b565b5060075f90815290917fa66cc928b5edb82af9bd49922954155ab7b0942694bea4ce44661d9a8736c6885b81831061037657505090602061033192820101610325565b602091935080600191548385890101520191019091849261035e565b6020925061033194915060ff191682840152151560051b820101610325565b604051905f82600654916103c483610251565b808352926001811690811561039257506001146103e757610331925003836102d9565b5060065f90815290917ff652222313e28459528d920b65115c16c04f3efc82aaedc97be59f3f377c0d3f5b81831061042a57505090602061033192820101610325565b6020919350806001915483858901015201910190918492610412565b9060405191825f82549261045984610251565b80845293600181169081156104c2575060011461047e575b50610331925003836102d9565b90505f9291925260205f20905f915b8183106104a6575050906020610331928201015f610471565b602091935080600191548385890101520191019091849261048d565b90506020925061033194915060ff191682840152151560051b8201015f610471565b805180835260209291819084018484015e5f828201840152601f01601f1916010190565b9060206105199281815201906104e4565b90565b3461024d575f36600319011261024d5761054b6105376102fa565b6040519182916020835260208301906104e4565b0390f35b60405190610331610100836102d9565b9291926001600160401b0382116102b95760405191610588601f8201601f1916602001846102d9565b82948184528183011161024d578281602093845f960137010152565b9080601f8301121561024d578160206105199335910161055f565b3461024d57606036600319011261024d576004356024356001600160401b03811161024d576105f29036906004016105a4565b6044356001600160401b03811161024d576106119036906004016105a4565b507f00000000000000000000000000000000000000000000000000000000000000006001600160a01b031633036106ea57815f52600a60205260405f2054908161067d575b827f85e1543bf2f84fe80c6badbce3648c8539ad1df4d2b3d822938ca0538be727e65f80a2005b7f1e64e9780c0a892267b8ddd6e87d3c74446a01c70ecb6d6ac1f60ab6175e9c0b9160ff6106b683602080604096518301019101611c99565b16815f5260086020526106d8816004855f20019060ff1660ff19825416179055565b82519182526020820152a15f80610656565b63c6829f8360e01b5f5260045ffd5b3461024d575f36600319011261024d57602060ff600d5416604051908152f35b3461024d57602036600319011261024d576004356107ea6107dc6107ba61073e6116d2565b61074f6107496102fa565b8261233f565b60ff61075d600d5460ff1690565b16158061080b575b6107ed575b6107b5610775611718565b60405161079b8161078d8a6020830160209181520190565b03601f1981018352826102d9565b6107a482611752565b526107ae81611752565b5082611e30565b611f65565b60035460a01c6001600160401b031660055463ffffffff16906004549261212e565b5f52600a60205260405f2090565b55005b6108066108006107fb6111f1565b611cd3565b82611daf565b61076a565b50610817600e54610251565b1515610765565b9181601f8401121561024d578235916001600160401b03831161024d576020838186019501011161024d57565b3461024d5760e036600319011261024d576004356024356001600160401b03811161024d5761087e90369060040161081e565b9190604435926001600160401b03841161024d576108a36108be94369060040161081e565b606435916084359360a435956108b860c43590565b97611778565b005b3461024d575f36600319011261024d576003546040516001600160a01b039091168152602090f35b634e487b7160e01b5f52603260045260245ffd5b3461024d57602036600319011261024d5760043560095481101561024d5760209060095f525f516020612b0d5f395f51905f520154604051908152f35b3461024d575f36600319011261024d5761098d6107ba6109576116d2565b6109626107496103b1565b60ff610970600d5460ff1690565b168015806109c9575b1561099757506107b56108006107fb6111f1565b506108be42600b55565b600114806109b6575b15611f65576107b56109b06111f1565b8261225c565b506109c2600e54610251565b15156109a0565b506109d5600e54610251565b1515610979565b3461024d575f36600319011261024d576109f4612205565b5f600b55005b3461024d575f36600319011261024d576001546040516001600160a01b039091168152602090f35b3461024d57602036600319011261024d57600435610a3e612205565b600c55005b949060e09693610a6d60ff94610a7b939c9b9a979c895261010060208a01526101008901906104e4565b9087820360408901526104e4565b98606086015216608084015260a083015260c08201520152565b3461024d57602036600319011261024d576004355f52600860205260405f20805461054b610ac560018401610446565b92610ad260028201610446565b90600381015460ff600483015416600583015491600760068501549401549460405198899889610a43565b3461024d575f36600319011261024d576040515f600f54610b1d81610251565b8084529060018116908115610baf5750600114610b51575b61054b83610b45818503826102d9565b60405191829182610508565b600f5f9081527f8d1108e10bcb7c27dddfc02ed9d693a074039d026cf4ea4240b40f7d581ac802939250905b808210610b9557509091508101602001610b45610b35565b919260018160209254838588010152019101909291610b7d565b60ff191660208086019190915291151560051b84019091019150610b459050610b35565b3461024d575f36600319011261024d576020600954604051908152f35b3461024d575f36600319011261024d576020600b54604051908152f35b3461024d575f36600319011261024d576020600c54604051908152f35b3461024d575f36600319011261024d57610c42612205565b5f80546001600160a01b0319811682556001600160a01b03167f8be0079c531659141344cd1fd0a4f28419497f9722a3daafe3b4186f6b6457e08280a3005b3461024d575f36600319011261024d57610c99612205565b6040516020810160208252600954809152604082019060095f525f516020612b0d5f395f51905f52905f5b818110610cf3577fc8ebec3ee270205e821a96d947158a7e7fe9df1ac520c2c8ae231a90978c8bdb85850386a1005b8254845260209093019260019283019201610cc4565b3461024d57602036600319011261024d576004355f52600a602052602060405f2054604051908152f35b602060031982011261024d57600435906001600160401b03821161024d578060238301121561024d578160246105199360040135910161055f565b3461024d57610d7c36610d33565b610d84612205565b80516001600160401b0381116102b957610da881610da3600754610251565b611860565b602091601f8211600114610de657610dd6925f9183610ddb575b50508160011b915f199060031b1c19161790565b600755005b015190505f80610dc2565b60075f52601f198216927fa66cc928b5edb82af9bd49922954155ab7b0942694bea4ce44661d9a8736c688915f5b858110610e4957508360019510610e31575b505050811b01600755005b01515f1960f88460031b161c191690555f8080610e26565b91926020600181928685015181550194019201610e14565b3461024d575f36600319011261024d575f546040516001600160a01b039091168152602090f35b3461024d575f36600319011261024d576020600454604051908152f35b3461024d575f36600319011261024d5761054b6105376103b1565b3461024d57602036600319011261024d57600435600254610ef1906001600160a01b03165b6001600160a01b031690565b6040516331a9108f60e11b815260048101839052602081602481855afa801561103c57610f30915f91611083575b506001600160a01b03163314611a65565b604051630efbf52960e01b8152600481018390529060a090829060249082905afa90811561103c57610f82915f5f915f935f905f92611041575b5090610f78610f7d92611ae9565b611b28565b61227f565b600354610f97906001600160a01b0316610ee5565b60405163a9059cbb60e01b8152336004820152602481018390529290602090849060449082905f905af192831561103c577fe1b4cc7b572a56466df9203312ded49052ff26393efd614a3f8658c98ec0fc389361100f575b50604080519182526001602083015281019190915280606081015b0390a1005b6110309060203d602011611035575b61102881836102d9565b810190611b62565b610fef565b503d61101e565b611a5a565b915050610f789350610f7d9250611070915060a03d60a01161107c575b61106881836102d9565b810190611aae565b91959294509091610f6a565b503d61105e565b6110a5915060203d6020116110ab575b61109d81836102d9565b810190611a45565b5f610f1f565b503d611093565b3461024d575f36600319011261024d576110ca612205565b6009545f600955806110d857005b5f516020612b0d5f395f51905f52015f516020612b0d5f395f51905f525b8181106110ff57005b5f81556001016110f6565b3461024d5761111836610d33565b611120612205565b80516001600160401b0381116102b9576111448161113f600654610251565b6118a3565b602091601f821160011461117657611171925f9183610ddb5750508160011b915f199060031b1c19161790565b600655005b60065f52601f198216927ff652222313e28459528d920b65115c16c04f3efc82aaedc97be59f3f377c0d3f915f5b8581106111d9575083600195106111c1575b505050811b01600655005b01515f1960f88460031b161c191690555f80806111b6565b919260206001819286850151815501940192016111a4565b604051905f82600e549161120483610251565b8083529260018116908115610392575060011461122757610331925003836102d9565b50600e5f90815290917fbb7b4a454dc3493923482f07822329ed19e8244eff582cc204f8554c3620c3fd5b81831061126a57505090602061033192820101610325565b6020919350806001915483858901015201910190918492611252565b3461024d575f36600319011261024d5761054b6105376111f1565b60ff81160361024d57565b3461024d57604036600319011261024d576004356112c9816112a1565b6024356001600160401b03811161024d576112ea60ff91369060040161081e565b9190926112f5612205565b1660ff19600d541617600d556001600160401b0381116102b9576113238161131e600e54610251565b6118db565b5f601f821160011461135f57819061134f935f926113545750508160011b915f199060031b1c19161790565b600e55005b013590505f80610dc2565b600e5f52601f198216927fbb7b4a454dc3493923482f07822329ed19e8244eff582cc204f8554c3620c3fd915f5b8581106113c3575083600195106113aa575b505050811b01600e55005b01355f19600384901b60f8161c191690555f808061139f565b9092602060018192868601358155019401910161138d565b3461024d57606036600319011261024d576024356004356113fb826112a1565b6044359161141c611414835f52600860205260405f2090565b541515611bd0565b61144760ff6114406004611438865f52600860205260405f2090565b015460ff1690565b1615611c13565b611457600260ff83161115611c58565b60035461146c906001600160a01b0316610ee5565b6040516323b872dd60e01b81523360048201523060248201526044810185905290602090829060649082905f905af1801561103c5761158b575b506002546114bc906001600160a01b0316610ee5565b604051633a3446df60e21b81523360048201526024810184905260ff83166044820152606481018590529390602090859060849082905f905af190811561103c577f11d02810c631c72400f6f1739955999911bdcec8c268889873bcfb0dd64b94ba945f92611558575b5060408051338152602081019390935282019390935260ff909116606082015260808101919091528060a0810161100a565b61100a925061157e9060203d602011611584575b61157681836102d9565b810190611c99565b91611526565b503d61156c565b6115a39060203d6020116110355761102881836102d9565b6114a6565b3461024d575f36600319011261024d576002546040516001600160a01b039091168152602090f35b6001600160a01b0381160361024d57565b3461024d57602036600319011261024d576004356115fe816115d0565b611606612205565b6001600160a01b0381161561165b575f80546001600160a01b039283166001600160a01b03198216811783559216907f8be0079c531659141344cd1fd0a4f28419497f9722a3daafe3b4186f6b6457e09080a3005b60405162461bcd60e51b815260206004820152602660248201527f4f776e61626c653a206e6577206f776e657220697320746865207a65726f206160448201526564647265737360d01b6064820152608490fd5b3461024d575f36600319011261024d57602063ffffffff60055416604051908152f35b6040519060e082018281106001600160401b038211176102b957604052606060c0835f81525f60208201525f604082015282808201528260808201528260a08201520152565b6040805190919061172983826102d9565b6001815291601f1901825f5b82811061174157505050565b806060602080938501015201611735565b80511561175f5760200190565b6108e8565b805182101561175f5760209160051b010190565b969261033198946007966118156117c3611822946117b4611835978e9d9961179e612205565b6040519e8f6117ac8161029d565b52369161055f565b9460208d01958652369161055f565b60408b0190815260608b0192835261180b60808c01945f865260a08d0198895260c08d01998a5260e08d019a8b528d5f52600860205260405f209c518d555160018d0161194b565b5160028b0161194b565b5160038901555160ff1690565b600487019060ff1660ff19825416179055565b51600585015551600684015551910155611a0a565b818110611855575050565b5f815560010161184a565b90601f821161186d575050565b6103319160075f5260205f20906020601f840160051c83019310611899575b601f0160051c019061184a565b909150819061188c565b90601f82116118b0575050565b6103319160065f5260205f20906020601f840160051c8301931061189957601f0160051c019061184a565b90601f82116118e8575050565b61033191600e5f5260205f20906020601f840160051c8301931061189957601f0160051c019061184a565b9190601f811161192257505050565b610331925f5260205f20906020601f840160051c8301931061189957601f0160051c019061184a565b91909182516001600160401b0381116102b9576119728161196c8454610251565b84611913565b6020601f82116001146119a55781906119a19394955f92610ddb5750508160011b915f199060031b1c19161790565b9055565b601f198216906119b8845f5260205f2090565b915f5b8181106119f2575095836001959697106119da575b505050811b019055565b01515f1960f88460031b161c191690555f80806119d0565b9192602060018192868b0151815501940192016119bb565b600954680100000000000000008110156102b9576001810160095560095481101561175f5760095f525f516020612b0d5f395f51905f520155565b9081602091031261024d5751610519816115d0565b6040513d5f823e3d90fd5b15611a6c57565b60405162461bcd60e51b815260206004820152600d60248201526c2737ba103a34329037bbb732b960991b6044820152606490fd5b5190811515820361024d57565b908160a091031261024d578051916020820151611aca816112a1565b916040810151916105196080611ae260608501611aa1565b9301611aa1565b15611af057565b60405162461bcd60e51b815260206004820152601060248201526f10995d081b9bdd081c995cdbdb1d995960821b6044820152606490fd5b15611b2f57565b60405162461bcd60e51b815260206004820152600b60248201526a2132ba103737ba103bb7b760a91b6044820152606490fd5b9081602091031261024d5761051990611aa1565b634e487b7160e01b5f52601160045260245ffd5b600381901b91906001600160fd1b03811603611ba257565b611b76565b908160011b9180830460021490151715611ba257565b81810292918115918404141715611ba257565b15611bd757565b60405162461bcd60e51b815260206004820152601460248201527313585d18da08191bd95cc81b9bdd08195e1a5cdd60621b6044820152606490fd5b15611c1a57565b60405162461bcd60e51b815260206004820152601660248201527513585d18da08185b1c9958591e481c995cdbdb1d995960521b6044820152606490fd5b15611c5f57565b60405162461bcd60e51b815260206004820152601260248201527124b73b30b634b210383932b234b1ba34b7b760711b6044820152606490fd5b9081602091031261024d575190565b6007039060078211611ba257565b601f19810191908211611ba257565b5f19810191908211611ba257565b6008815110611d50575f905f905b60088210611cee57505090565b9091815183101561175f57600190611d47611d25611d1f611d1960208888010160ff60f81b90511690565b60f81c90565b60ff1690565b611d36611d3187611ca8565b611b8a565b6001600160401b03809216901b1690565b17920190611ce1565b60405162461bcd60e51b8152602060048201526014602482015273092dcecc2d8d2c840c4f2e8cae640d8cadccee8d60631b6044820152606490fd5b634e487b7160e01b5f52602160045260245ffd5b60031115611daa57565b611d8c565b90608090611e22611dbe61237d565b91611e1c6040611dec8151611dd383826102d9565b60068152651cdb1bdd125160d21b6020820152866123ad565b611df65f8661260a565b611e02815191826102d9565b60078152663b32b939b4b7b760c91b6020820152846123ad565b8261260a565b600260208401525151910152565b815115611e3d5760a00152565b63fe936cb760e01b5f5260045ffd5b60405190611e5b6040836102d9565b600c82526b31b7b232a637b1b0ba34b7b760a11b6020830152565b60405190611e856040836102d9565b60088252676c616e677561676560c01b6020830152565b60011115611daa57565b60405190611eb56040836102d9565b6006825265736f7572636560d01b6020830152565b60405190611ed96040836102d9565b60048252636172677360e01b6020830152565b60405190611efb6040836102d9565b600f82526e39b2b1b932ba39a637b1b0ba34b7b760891b6020830152565b60405190611f286040836102d9565b60078252667365637265747360c81b6020830152565b60405190611f4d6040836102d9565b600982526862797465734172677360b81b6020830152565b611f6d61237d565b90611f7f611f79611e4c565b836123ad565b611f9c8151611f8d81611da0565b611f9681611da0565b83612494565b611fa7611f79611e76565b611fc16040820151611fb881611e9c565b611f9681611e9c565b611fcc611f79611ea6565b611fda6060820151836123ad565b60a081018051516120d6575b506080810190815151612059575b60c0915001805151612007575b50515190565b91612013611f79611f3e565b61201c826124dc565b5f5b83518051821015612046579061204061203982600194611764565b5185612520565b0161201e565b50509150612053816124fe565b5f612001565b60208101805161206881611da0565b61207181611da0565b156120c75760c0926120aa6120c29261209161208b611eec565b886123ad565b5161209b81611da0565b6120a481611da0565b86612494565b6120bb6120b5611f19565b866123ad565b5184612520565b611ff4565b63a80d31f760e01b5f5260045ffd5b926120e86120e2611eca565b846123ad565b6120f1836124dc565b5f5b8451805182101561211b579061211561210e82600194611764565b51866123ad565b016120f3565b50509250612128826124fe565b5f611fe6565b92906020926001600160401b039263ffffffff61216d604051978896879663230e93b160e11b885216600487015260a0602487015260a48601906104e4565b6001604486015292166064840152608483015203815f7f00000000000000000000000000000000000000000000000000000000000000006001600160a01b03165af190811561103c575f916121e6575b50807f1131472297a800fee664d1d89cfa8f7676ff07189ecc53f80bbb5f4969099db85f80a290565b6121ff915060203d6020116115845761157681836102d9565b5f6121bd565b5f546001600160a01b0316330361221857565b606460405162461bcd60e51b815260206004820152602060248201527f4f776e61626c653a2063616c6c6572206973206e6f7420746865206f776e65726044820152fd5b815115612270576001602082015260800152565b63e889636f60e01b5f5260045ffd5b9161231e91610519935f52600860205260405f2060e060ff61229f61054f565b93835485526122b060018501610446565b60208601526122c160028501610446565b6040860152600384015460608601526122eb6122e1600486015460ff1690565b60ff166080870152565b6005840154948560a082015260076006860154958660c0840152015493849101521680155f146123255750505090611bbd565b6064900490565b91925090600103612337575090611bbd565b905090611bbd565b815115612355575f808252604082015260600152565b6322ce3edd60e01b5f5260045ffd5b60405190612371826102be565b5f602083606081520152565b604051612389816102be565b5f612392612364565b8083526123a861010060208501928484526125b9565b505290565b81516123fc9291906001600160401b0316601781116123ff5781516123e7916123e1906123da6060611d1f565b1760ff1690565b906127e6565b505b51906123f3612364565b50805191612a50565b50565b60ff811161242c578151612426919061241e90601860605b17906127e6565b5082516129d0565b506123e9565b61ffff811161245157815161242691906124499060196060612417565b508251612957565b63ffffffff8111612478578151612426919061247090601a6060612417565b5082516128de565b8151612426919061248c90601b6060612417565b508251612860565b90610331916124a38151612776565b50604051916020830152602082526124bc6040836102d9565b612520565b9060208201809211611ba257565b91908201809211611ba257565b6020906124eb609f82516127e6565b500180519060018201809211611ba25752565b60209061250d60ff82516127e6565b500180515f19810191908211611ba25752565b81516123fc9291906001600160401b03166017811161254d5781516123e7916123e1906123da6040611d1f565b60ff8111612569578151612426919061241e9060186040612417565b61ffff811161258657815161242691906124499060196040612417565b63ffffffff81116125a5578151612426919061247090601a6040612417565b8151612426919061248c90601b6040612417565b906125c2612364565b50601f8116806125f0575b50806020830152604051908183525f8252810160200190811061024d5760405290565b60200360208111611ba2578101809111611ba2575f6125cd565b906001600160401b03811660178111612631575090516123fc916123e1906123da5f611d1f565b905060ff81116126555781516123fc929061264e9060185f612417565b50516129d0565b61ffff81116126785781516123fc92906126719060195f612417565b5051612957565b63ffffffff811161269d5781516123fc929061269690601a5f612417565b50516128de565b81516123fc92906126b090601b5f612417565b5051612860565b906126c0612364565b5080516126cb612364565b506126d98251821115612a49565b825151916126e782846124cf565b906020850151821161275f575b602091855183815196820101958211612757575b505001905b6020811015612731575f19906020036101000a019081199051169082511617905290565b909161274c61274661275292855181526124c1565b936124c1565b91611cb6565b61270d565b525f80612708565b61277161276b83611ba7565b86612af5565b6126f4565b61277e612364565b508051516001810190818111611ba25760208301518110156127b7575b60c2602084519283010153805182116127b357505090565b5290565b8160011b82810460021483151715611ba2576127e0906127d9855191866125b9565b50846126b7565b5061279b565b906127ef612364565b508151516001810191828211611ba2576020840151821015612822575b602084519283010153805182116127b357505090565b8260011b83810460021484151715611ba25761284b90612844865191876125b9565b50856126b7565b5061280c565b601f8111611ba2576101000a90565b90612869612364565b50815151806008019182600811611ba257602084015183116128b6575b6128986128936008612851565b611cc5565b9060088551938401019119825116179052805182116127b357505090565b8260011b83810460021484151715611ba2576128d890612844865191876125b9565b50612886565b906128e7612364565b50815151806004019182600411611ba2576020840151831161292f575b6129116128936004612851565b9060048551938401019119825116179052805182116127b357505090565b8260011b83810460021484151715611ba25761295190612844865191876125b9565b50612904565b90612960612364565b50815151806002019182600211611ba257602084015183116129a8575b61298a6128936002612851565b9060028551938401019119825116179052805182116127b357505090565b8260011b83810460021484151715611ba2576129ca90612844865191876125b9565b5061297d565b906129d9612364565b50815151806001019182600111611ba25760208401518311612a21575b612a036128936001612851565b9060018551938401019119825116179052805182116127b357505090565b8260011b83810460021484151715611ba257612a4390612844865191876125b9565b506129f6565b1561024d57565b91612a59612364565b50612a678251821115612a49565b602083515192612a7783856124cf565b828601518111612ade575b855183815196820101958211612ad6575b505001905b6020811015612abc575f19906020036101000a019081199051169082511617905290565b909161274c612746612ad192855181526124c1565b612a98565b525f80612a93565b612af0612aea82611ba7565b87612af5565b612a82565b906123fc91612b06815192826125b9565b506126b756fe6e1540171b6c0c960b71a7020d9f60077f6af931a8bbf590da0223dacf75c7afa26469706673582212202d0a4fac9145378b8eeaeaf23f0846aa0f94754a216868078de14925c7bdb79864736f6c634300081c0033",
  "linkReferences": {},
  "deployedLinkReferences": {},
  "immutableReferences": {
    "17": [
      {
        "length": 32,
        "start": 1556
      },
      {
        "length": 32,
        "start": 8581
      }
    ]
  },
  "inputSourceName": "project/contracts/BettingContract.sol",
  "buildInfoId": "solc-0_8_28-e98dea21805c9b24a1ac20b3cfc6ceb2d5c7dfec"
}